:020000040800F2
:10000000200900207902000841450008DD3C000875
:100010004D440008A50B0008D75700080000000059
:100020000000000000000000000000004D4C00082F
:10003000C50D000800000000B74700081D52000869
:10004000930200089302000893020008930200083C
:10005000930200089302000893020008930200082C
:10006000930200089302000893020008930200081C
:10007000930200089302000893020008930200080C
:100080009302000800000000C50400089302000865
:1000900093020008930200089302000893020008EC
:1000A00093020008930200089302000893020008DC
:1000B00093020008930200089302000893020008CC
:1000C00093020008930200089302000893020008BC
:1000D00093020008930200089302000893020008AC
:1000E000930200089302000893020008930200089C
:1000F0009302000893020008930200080000000029
:1001000000000000930200080000000093020008B5
:100110009302000800000000930200089302000808
:10012000930200089302000893020008930200085B
:100130009302000800000000000000009302000885
:100140009302000893020008000000000000000075
:10015000000000000000000000000000000000009F
:1001600000000000000000000000000093020008F2
:1001700093020008000000000000000000000000E2
:1001800000000000930200080000000000000000D2
:10019000000000000000000000000000000000005F
:1001A0000000000000000000930200089302000815
:1001B0009302000893020008930200080000000068
:1001C0000000000093020008000000000000000092
:1001D000930200089302000800F002F800F03CF8D7
:1001E0000AA090E8000C82448344AAF10107DA4592
:1001F00001D100F031F8AFF2090EBAE80F0013F0A8
:10020000010F18BFFB1A43F00103184704620000F6
:1002100024620000103A24BF78C878C1FAD8520787
:1002200024BF30C830C144BF04680C607047000070
:100230000023002400250026103A28BF78C1FBD8EF
:10024000520728BF30C148BF0B6070471FB505F08B
:10025000CAFC1FBD10B510BD00F06CF81146FFF7C9
:10026000F5FF05F036FB00F08AF803B4FFF7F2FF64
:1002700003BC00F08DF8000009488047094800479A
:10028000FEE7FEE7FEE7FEE7FEE7FEE7FEE7FEE746
:10029000FEE7FEE704480549054A064B70470000A3
:1002A0008D520008D90100082003002020090020F9
:1002B00020050020200500204FF0000200B5134665
:1002C00094469646203922BFA0E80C50A0E80C5076
:1002D000B1F12001BFF4F7AF090728BFA0E80C5027
:1002E00048BF0CC05DF804EB890028BF40F8042B20
:1002F00008BF704748BF20F8022B11F0804F18BF8D
:1003000000F8012B704770477047704710B500F038
:1003100009F8006810BD10B5044600F003F8046049
:1003200010BD000000487047BC0200200048704724
:10033000BC0200207546FFF7F9FFAE46050069468E
:10034000534620F00700854618B020B5FFF7A2FFFE
:10035000BDE820404FF000064FF000074FF00008C6
:100360004FF0000B21F00701AC46ACE8C009ACE847
:10037000C009ACE8C009ACE8C0098D46704710B5AB
:100380000446AFF300802046BDE81040FFF76DBF84
:1003900001491820ABBEFEE72600020070470000AE
:1003A00080B59FED441A9FED443A20EE011AB0EE5D
:1003B000C11ABDEEC12AB8EEC22A31EE421A21EEB0
:1003C000031ABDEEC12A12EE102A02F1800E6FF35D
:1003D0005F2245F60C4CC0F6000C02EE102A6FF3BB
:1003E0005F2E0CEB8203B8EE422A0CEB8E0231EE4C
:1003F000421A92ED002A92ED013A93ED004A93EDF4
:10040000015A9FED2E7A33EE426A74EE050A20EE11
:10041000877A76EE060A74EE041ADFED292A37EEA3
:10042000607AF0EE080A75EE211A26EE206A61EE77
:10043000A21A21EE077A36EE216A36EE076A21EE1D
:10044000066A24EE227A36EE476A21EE066A32EE1A
:10045000066A81ED006A35EE445A32EE036A26EEF2
:10046000226A35EE057A36EE476A32EE027A33EECC
:10047000073A25EE205A23EE223A21EE066A35EE9F
:10048000433A33EE063A21EE033A22EE222A32EEC6
:10049000032A21EE021A34EE011AB5EE400AB1EE3B
:1004A000412AF1EE10FAB8BFB0EE421A80ED001A00
:1004B00080BD00BF610B363B00000044DB0F49BC30
:1004C000DB0F493C10B5024801F012FA10BD0000E4
:1004D0007801002070B50446206803F031FC064620
:1004E000206803F032FC98B396BB2068806800F067
:1004F0000D0001280AD1206881681A4A1140891C20
:10050000816000BF03202168086009E0E06D40F0D1
:100510001000E065206E40F001002066012070BDF3
:1005200001F018FE054614E001F014FE401B0228FD
:100530000FD92068806800F0010050B1E06D40F0F4
:100540001000E065206E40F0010020660120E6E723
:1005500005E02068806800F001000028E4D1002058
:10056000DDE70000C0FFFF7F38B5044600200090A3
:10057000206803F0EAFB00284FD1206880682849F2
:10058000084048B1E06D40F01000E065206E40F09A
:1005900001002066012038BD206803F0A1FB00BFE8
:1005A0002048806800F0E07000F4000080B11E4830
:1005B00000681E49B0FBF1F0401C00EB40008000D9
:1005C000009002E00098401E009000980028F9D1A9
:1005D00001F0C0FD05461AE0206803F0B6FB10B933
:1005E000206803F07DFB01F0B5FD401B02280ED909
:1005F0002068006800F0010048B9E06D40F010008C
:10060000E065206E40F0010020660120C3E720680D
:10061000006800F001000028DED00020BBE70000E9
:100620003F0000800003005030000020400D030018
:1006300030B52DED048B83B004460D46E88800EEFE
:10064000100AB8EE400ADFEDFE0A20EE200A84ED23
:10065000090A94ED090AFB48D0ED000AB0EE001A31
:1006600070EE810AB4EEE00AF1EE10FA03DD01202B
:10067000F54908701CE094ED090AF248D0ED000A33
:10068000B0EE001A70EEC10AB4EEE00AF1EE10FA14
:1006900003D20220EC4908700AE0EB4800780128F8
:1006A00003D0E9480078022802D10020E64908700A
:1006B00094ED090AE54880ED000A94ED090ADFEDA2
:1006C000E40A20EE200ADFEDE30A20EE200AE248E9
:1006D00080ED070A94ED090ADFEDE00A20EE200A1A
:1006E000DFEDDC0A20EE200A80ED0C0A288800EEFF
:1006F000100AB8EE400ADFEDDA0A20EE200ADFED3C
:10070000D90A80EE201A84ED001A688800EE100ADB
:10071000B8EE400ADFEDD20A20EE200ADFEDD10A62
:1007200080EE201A84ED011AA88800EE100AB8EEB7
:10073000400ADFEDCB0A20EE200ADFEDCA0A80EE88
:10074000201A84ED021AC048407800287ED1BE48A5
:10075000007801287AD0BC4800780228FAD0208D91
:1007600044F62061884272DA94ED000ADFEDBE0A99
:1007700030EE600A10EE101A084605F0C3F941EC9D
:10078000190BB0EE490AF0EE690A05F043F8B0EE35
:10079000408AF0EE608A9FEDB50B53EC102B51ECC4
:1007A000180B05F01FF90DD294ED030ADFEDB10A25
:1007B00020EE200AD4ED000A9FEDAF1A00EE810A68
:1007C00084ED030A94ED010ADFEDA70A30EE600A1A
:1007D00010EE101A084605F095F941EC190BB0EE31
:1007E000490AF0EE690A05F015F8B0EE408AF0EE1D
:1007F000608A9FED9E0B53EC102B51EC180B05F00B
:10080000F1F80DD294ED040ADFED9A0A20EE200AE9
:10081000D4ED010A9FED981A00EE810A84ED040AD6
:1008200094ED020ADFED900A30EE600A10EE101A25
:10083000084605F067F941EC190BB0EE490AF0EEF5
:10084000690A04F0E7FFB0EE408A01E08AE019E0AF
:10085000F0EE608A9FED850B53EC102B51EC180BDA
:1008600005F0C0F87BD294ED050ADFED820A20EE98
:10087000200AD4ED020A9FED801A00EE810A84ED71
:10088000050A6CE094ED030ADFED770A30EE600AAA
:1008900010EE101A084605F035F941EC190BB0EED0
:1008A000490AF0EE690A04F0B5FFB0EE408AF0EEB6
:1008B000608A9FED6E0B53EC102B51EC180B05F07A
:1008C00091F846D294ED040ADFED670A30EE600A33
:1008D00010EE101A084605F015F941EC190BB0EEB0
:1008E000490AF0EE690A04F095FFB0EE408AF0EE96
:1008F000608A9FED5E0B53EC102B51EC180B05F04A
:1009000071F826D294ED050ADFED570A30EE600A41
:1009100010EE101A084605F0F5F841EC190BB0EE90
:10092000490AF0EE690A04F075FFB0EE408AF0EE75
:10093000608A9FED4E0B53EC102B51EC180B05F019
:1009400051F806D2002040490870208501204870E7
:1009500005E004203C490870002020854870208D67
:10096000401C208538484078012858D194ED000A71
:10097000D4ED030A30EE600AD4ED0B0A80EE201AA3
:100980008DED001A94ED010AD4ED040A30EE600AF0
:10099000D4ED0B0A80EE201A8DED011A94ED020AB7
:1009A000D4ED050A30EE600AD4ED0B0A80EE201A71
:1009B0008DED021A314890F9000000EE100AB8EEF1
:1009C000C00A2F480078694601EB8000D0ED000A8C
:1009D00020EE200A84ED060A284890F9010000EE76
:1009E000100AB8EEC00A2648407801EB8000D0ED2E
:1009F000000A20EE200A84ED070A204890F9020040
:100A000000EE100AB8EEC00A1D48807801EB8000A5
:100A1000D0ED000A20EE200A84ED080A00BF94ED14
:100A2000060AB0EEC00ADFED0E0AB4EEE00AF1EEFF
:100A300010FA39DC94ED070AB0EEC00A22E000009B
:100A40002E33113C3400002000000020080000205C
:100A50009A99193F3ACD133FE80000206666663F39
:100A600033335340000080453333D33F0000004010
:100A70003333D33F3333733FCDCC4C3D1E00002086
:100A8000180000205FED0A0AB4EEE00AF1EE10FA59
:100A90000ADC94ED080AB0EEC00A5FED0F0AB4EE6E
:100AA000E00AF1EE10FA03DD03200849087009E0BE
:100AB0000648007818B105480078032802D10020C4
:100AC0000249087003B0BDEC048B30BD000000206B
:100AD00010B52DED068BB0EE408AF0EE608AB0EED8
:100AE000000A28EE800AB0EE409AB4EEE88AF1EEF1
:100AF00010FA0BD2B1EE680AB4EEC08AF1EE10FA29
:100B000004DBB0EE480ABDEC068B10BDB4EEE88AFB
:100B1000F1EE10FA09DB38EE890AB4EEC80AF1EEFC
:100B200010FA02DD38EE490AEDE7B1EE680AB4EEDC
:100B3000C08AF1EE10FA0BD2B1EE680A30EE490A23
:100B4000B4EEC80AF1EE10FA02D838EE090ADAE774
:100B500038EE280AC0EE090AB0EE60AAB0EE4A0AE2
:100B600004F062FEF0EE409AB0EE480A09EEC90ABF
:100B7000B0EE408AB4EEE88AF1EE10FA04DB38EE0B
:100B8000490AB0EE408A0AE0B1EE680AB4EEC08AC3
:100B9000F1EE10FA03D238EE090AB0EE408AB0EE58
:100BA000480AB0E700BFFEE710B5B3EE080A6D488B
:100BB00080ED000A0E206B4908719FED6B0A084614
:100BC00080ED020A9FED690A80ED030A9FED680A35
:100BD00080ED040A90ED030A80ED060A90ED030A09
:100BE00080ED050A9FED630A80ED070A42F2D0000E
:100BF00008849FED610A084680ED090A9FED5F0AAF
:100C000080ED0A0A9FED5E0A80ED0B0A01205D4926
:100C100088700220C870002008714871887151489E
:100C200090ED000A584880ED050A4E49088C00EB0B
:100C3000D0714910544A11834A48008C5349888026
:100C4000484890ED000A084680ED000A9FED500AE2
:100C5000504880ED030A9FED4E0A80ED040A9FED97
:100C60004C0A80ED050A3F4890ED090AD0ED0A0ACA
:100C700020EE200A474880ED0B0A4FF48040464999
:100C80000880002008719FED450A084680ED050A9E
:100C90009FED430A80ED0B0AB7EE000A80ED090ACA
:100CA0009FED3F0A80ED0A0A9FED3E0A3E4880ED27
:100CB000060AB0EE080A04F0EFFD2A48D0ED000A5B
:100CC0009FED3A1A60EE810A80EE801A364880ED78
:100CD000071A244890ED0B0ADFED350A20EE200AB2
:100CE000D0ED030A20EE200A2F4880ED000A1D48AF
:100CF00090ED0B0ADFED2E0A20EE200AD0ED040A5B
:100D000020EE200ADFED2B0A80EE201A264880ED27
:100D1000011A01201B49C8719FED160A224880ED77
:100D2000020A9FED140A80ED030AB7EE000A22487A
:100D300080ED010A9FED210A80ED080A00201E497E
:100D40008873B7EE000A084680ED0A0A9FED1C0A78
:100D500080ED0B0A012081F8300000208886C886CB
:100D6000888710BD34000020000010422E56D43970
:100D7000CBA1653F000000000AD7233C0000484299
:100D800000009643000000206400002008000020BE
:100D90003333D33F80000020B00000200B246A4191
:100DA0002506813E7B143E40E80000209A99193FB9
:100DB000DB0FC94000409C461C010020C520703F4D
:100DC0000000C8437047000070B5044603F06EF998
:100DD0000546207908B9658002E0C5F5804060804D
:100DE00094ED050A608800EE900AF8EE600A9FED27
:100DF000461A10EE810A84ED020A94ED021A434865
:100E0000007900EE900AF8EE600A61EE200AB0EE7A
:100E1000600ADFED3F0AFFF75BFE84ED030A3D4801
:100E20008078D0BB3B484078012836D13A489FEDC6
:100E30003B1AF7EE000A9FED390A03F09DFF208B65
:100E400044F62061884225DB208B45F20821884248
:100E50000BDA608B401C608394ED040AD4ED020A27
:100E600030EE200A84ED040A14E00120294988703C
:100E7000D4ED040A608B00EE100AB8EE400A80EE52
:100E8000801A84ED051A9FED250A84ED040A0020DE
:100E900020836083208B401C20831E48C07801285B
:100EA0001ED194ED0A0AD4ED090A20EE200A84ED41
:100EB0000B0AD4ED070A94ED0B1A70EE810AB0EE1E
:100EC000600ADFED130AFFF703FE84ED070A94EDD5
:100ED000070ADFED130A20EE200A84ED080A09E074
:100EE0000C48C078022804D194ED030A84ED070A67
:100EF00000E000BFD4ED070AB0EE600A04F134014F
:100F0000081FFFF74DFA70BD0000B43C340000200C
:100F10000000344300000020080000200000000012
:100F200034FA8E3C72B600BFFEE700009FED191A3E
:100F3000B0EE413A9FED181AF0EE413A174A92EDA1
:100F4000061AB0EE410A92ED061ADFED121A21EEF2
:100F5000211AD2ED071A9FED102A02EE211AF0EEA7
:100F6000410AB0EE401AF0EE601A0D4A92ED0C2ADA
:100F7000D2ED0D2A21EE224A01EE824A81ED004A8D
:100F8000B1EE414A24EE024A01EEA24A80ED004A47
:100F900000BF70473ACD133F3ACD933F8000002009
:100FA000B0000020F8B504460D460020009000BFB8
:100FB00094F85800012801D10220F8BD012084F8DE
:100FC000580000BF2046FFF785FA06468EBBE06D4D
:100FD00020F4885040F00200E065206881681B4AD8
:100FE000114005F0804242F000421143816000BF91
:100FF00013E00098401C00901549009888420CD3DB
:10100000E06D20F0020040F01000E06500BF00201D
:1010100084F8580000BF0120CFE720688168C90F1D
:101020000029E6D1E06D20F0020040F00100E0650B
:1010300004E0FFE7E06D40F01000E06500BF002035
:1010400084F8580000BF3046B7E70000C0FFFF3FFC
:1010500002DE0400704700002DE9FC5F05460C46E7
:101060000020019000900027686900B100BFFE4990
:10107000E068884200D000E000BF00BF95F858004B
:10108000012802D10220BDE8FC9F012085F858000C
:1010900000BF686910B1206A01281ED16068092864
:1010A0004ED1A06A60B194F8280000F07C0021685D
:1010B000C1F3846140EA4120E16A40EA010703E0AC
:1010C0002068C0F3846047022868C06CE749084084
:1010D00038432968C8646F6632E0A86E90B9216A07
:1010E000A96600206866A06A50B1206A401E94F884
:1010F000281001F07C010843E16A40EA010701E0A1
:10110000206A471E207900F01F0100208840874395
:101110002068C0F38460217901F01F0188400743F3
:10112000A86E401EA866686E38436866A86E38B917
:101130002868C06CCD490840696E08432968C864B6
:10114000286802F0EDFDD8B994F8250070B994F83C
:101150002600400594F8241040EA01502968C96827
:1011600021F4401108432968C86009E02868C06874
:1011700020F4401094F8261040EA41502968C860D5
:10118000286802F0F6FD8246286802F0C9FD814613
:10119000BAF1000F7ED1B9F1000FFBD1A06A08B1FE
:1011A000E06A88B994F82500012806D12868C0684B
:1011B00040F000702968C86017E02868C06820F017
:1011C00000702968C86010E094F82500012806D155
:1011D000E86D40F02000E8650120019005E02868F6
:1011E000C06820F000702968C86094F830000128B9
:1011F0000CD1606B40F00200A16B084329680969BB
:1012000021F4FF7108432968086105E02868006936
:1012100020F0020029680861A068B0F1004F0AD1EF
:1012200021680022286802F0B2FD4FF000412868D2
:1012300002F0D2FD08E0A2682168286802F0A7FD4C
:101240000021286802F0C8FD60692968C968C1F3F7
:10125000C101490000FA01F82069042840D028683B
:101260002268216900F1600C0CEB8103D3F800C007
:10127000DFF8FCB10CEA0B0C02F0F84B4BF0004B22
:101280004BEA080B4CEA0B0CC3F800C000BF2868FF
:10129000A26900E0CCE0216900F1600C0CEB810355
:1012A000D3F800C02CF0807C4CEA020CC3F800C0DC
:1012B00000BF2868227F2169012A01D1520600E07F
:1012C0000022134600F1600C0CEB8102D2F800C042
:1012D0002CF0007C4CEA030CC2F800C000BFA7E071
:1012E0000021286802F009FDC0F3120030B9002186
:1012F000286802F002FDC0F3846007E0002128683E
:1013000002F0FBFC90FAA0F0B0FA80F02168C1F383
:10131000120119B92168C1F3846104E0216891FACE
:10132000A1F1B1FA81F1884204D100221146286866
:1013300002F047FD0121286802F0DFFCC0F3120033
:1013400030B90121286802F0D8FCC0F3846007E0BE
:101350000121286802F0D1FC90FAA0F0B0FA80F0E8
:101360002168C1F3120119B92168C1F3846104E055
:10137000216891FAA1F1B1FA81F1884204D10022E9
:101380000121286802F01DFD0221286802F0B5FC49
:10139000C0F3120030B90221286802F0AEFCC0F39D
:1013A000846007E00221286802F0A7FC90FAA0F010
:1013B000B0FA80F02168C1F3120119B92168C1F3B4
:1013C000846104E0216891FAA1F1B1FA81F18842C7
:1013D00004D100220221286802F0F3FC03212868CE
:1013E00002F08BFCC0F3120030B90321286802F030
:1013F00084FCC0F3846007E00321286802F07DFCD0
:1014000090FAA0F0B0FA80F02168C1F3120119B986
:101410002168C1F3846104E0216891FAA1F1B1FA75
:1014200081F1884204D100220321286802F0C9FC1E
:10143000286802F08FFC002873D12868E2682168D0
:10144000D0F8B030C1F3120C23EA0C0302F0180BF1
:10145000DFF820C02CFA0BFC0CEA010C43EA0C0369
:10146000C0F8B03000BF07E000007F40004010042B
:1014700000F0FF03FFFF07007849E068884250D181
:101480002368C3F312031BB92368C3F3846304E026
:10149000236893FAA3F3B3FA83F35B1C03F01F03EF
:1014A000092B3FD82368C3F312031BB92368C3F386
:1014B000846304E0236893FAA3F3B3FA83F35B1C19
:1014C00003F01F034FF0010C0CFA03FC2368C3F375
:1014D00012031BB92368C3F3846304E0236893FAFF
:1014E000A3F3B3FA83F35B1C03F01F034CEA836C92
:1014F0002368C3F312031BB92368C3F3846304E0B6
:10150000236893FAA3F3B3FA83F35B1C03F01F037E
:1015100003EB43034FF0000B4BEA03534CEA030386
:101520003FE043E02368C3F312031BB92368C3F30E
:10153000846304E0236893FAA3F3B3FA83F35B1C98
:1015400003F01F034FF0010C0CFA03FC2368C3F3F4
:1015500012031BB92368C3F3846304E0236893FA7E
:10156000A3F3B3FA83F35B1C03F01F034CEA836C11
:101570002368C3F312031BB92368C3F3846304E035
:10158000236893FAA3F3B3FA83F35B1C03F01F03FE
:101590000A3B03EB43034FF0007B4BEA03534CEA57
:1015A00003031946A268286802F0F1FB2C49206861
:1015B000084050B300BF2B48806800F0E07600BFC1
:1015C00029492068884203D02849206888421DD1D3
:1015D00006F40000D0B92868B0F1A04F37D146F426
:1015E0000001204802F0E7FB214800682149B0FBD8
:1015F000F1F0801C00EB40008000009002E00098B9
:10160000401E009000980028F9D120E01A49206877
:1016100088420CD106F0807048B918492868884281
:1016200015D046F080710F4802F0C5FB0FE0144959
:10163000206888420BD106F4800040B90F49286821
:10164000884204D046F48001064802F0B4FB00BF93
:10165000002085F8580000BF019814E500007F4085
:101660000000088000030050000021C31000C0905B
:1016700030000020400D0300000052C70001005060
:10168000000084CB10B504460122D1020E4800F0C0
:101690005BFD2068D0F880000C4908802068D0F8F5
:1016A000840048802068D0F8880088802068D0F8BE
:1016B0008C00C88004F020F900224FF40061024839
:1016C00000F042FD10BD000000080048100000209E
:1016D000704700002DE9F041044600BF3D48806896
:1016E00000F01F000546206802F01AFB10B102202E
:1016F000BDE8F0812068C06800F000472068C06C39
:1017000000F4C07030B92FB9E06D40F02000E06502
:101710000120EDE700BF94F85800012801D1022014
:10172000E6E7012084F8580000BF2046FEF71CFFC2
:101730000646002E46D1E06D00F4807020B1206E88
:1017400020F00800206601E000202066E06D42F2F3
:101750000101884340F48050E0651F4920688842B9
:1017600002D14FF0A04000E020682168884200D0FC
:101770001DB9E06D20F48010E065602021680860EC
:1017800000BF002084F8580000BF13492068884239
:1017900002D14FF0A04000E020682168884204D0C8
:1017A0001DB1062D01D0072D07D1206802F0AEFA39
:1017B00068B9206802F0BAFA09E0E06D40F48010E0
:1017C000E06504E000BF002084F8580000BF304608
:1017D0008EE7000000030050000100507047704782
:1017E0002DE9F0439BB004460E464FF000083068E8
:1017F00000B100BF00BF94F85800012803D10220B7
:101800001BB0BDE8F083012084F8580000BF002021
:10181000179018902068B0F1A04F02D13148009085
:1018200001E000200090009850B9E06D40F02000E9
:10183000E06500BF002084F8580000BF0120DFE70A
:10184000009802F096FA0746206802F092FAD8BB98
:10185000D7BB254D306800B394F83800716841EA71
:101860004030A96821F460410843A8604FF0A040CF
:1018700002F070FA81461B4802F06CFA49EA00094E
:10188000B9F1000F27D1B16830680843A96840F664
:101890001F7291430843A8601DE0A86820F46040CF
:1018A000A8604FF0A04002F055FA81460D4802F0C2
:1018B00051FA49EA0009B9F1000F0CD1A86840F6C5
:1018C0001F718843A86006E0FFE7E06D40F020004C
:1018D000E0654FF0010800BF002084F8580000BF09
:1018E00040468DE7000100500003005070477047EC
:1018F0002DE9F84F04460020009020680568206814
:101900004668C54802F0F4F9074605F002000228CF
:1019100011D106F0020002280DD1E06D00F0100098
:1019200018B9E06D40F40060E0652046FFF792FBD7
:1019300002202168086005F00400042803D106F0A5
:101940000400042807D005F0080008285FD106F03D
:10195000080008285BD1E06D00F0100018B9E06DB8
:1019600040F40070E065206802F008FA002848D0D2
:10197000AA492068884202D14FF0A04000E02068C8
:101980002168884204D01FB1052F01D0092F03D14F
:101990002068D0F80C800AE0A0492068884202D173
:1019A0004FF0A04000E020688346DBF80C8008F48C
:1019B0000050B0F5005F24D02068006800F00800F7
:1019C00008281ED1206802F0CFF990B9206840683D
:1019D00020F00C0021684860E06D20F48070E06524
:1019E000E06D00F4805060B9E06D40F00100E0650A
:1019F00007E0E06D40F01000E065206E40F001006F
:101A000020662046FFF772FF0C202168086005F071
:101A10002000202803D106F02000202807D005F060
:101A20004000402872D106F0400040286ED1E06DA1
:101A300000F0100018B9E06D40F40050E065206837
:101A4000C16C01F4C07109B9012100E000218A468E
:101A500000BF206802F092F98146704920688842F0
:101A600002D14FF0A04000E020682168884204D0F5
:101A70001FB1062F01D0072F03D12068D0F80C80AA
:101A80000AE066492068884202D14FF0A04000E099
:101A900020688346DBF80C80BAF1000F30D008F0E4
:101AA000007028B1B9F1000F2AD008F4005038BBFB
:101AB0002068006800F04000402821D108F40010A0
:101AC000F0B9206802F027F990B92068406820F04A
:101AD000600021684860E06D20F48050E065E06DB2
:101AE00000F4807060B9E06D40F00100E06507E04F
:101AF000E06D40F01000E065206E40F001002066CF
:101B00002046FFF7BFFD60202168086005F08000D7
:101B100080280DD106F08000802809D1E06D40F4C6
:101B20008030E065204600F0A9F980202168086037
:101B300005F48070B0F5807F0FD106F48070B0F5A9
:101B4000807F0AD1E06D40F40030E0652046FFF769
:101B500045FE4FF480702168086005F40070B0F510
:101B6000007F0FD106F40070B0F5007F0AD1E06D60
:101B700040F48020E0652046FFF731FE4FF400700E
:101B80002168086005F0100010282AD106F0100026
:101B9000102826D1E06B10B90120009010E047B169
:101BA00000BF1D48806800F4604048B101200090EB
:101BB00006E02068C06800F0010008B10120009034
:101BC000009801280AD1E06D40F48060E065206E45
:101BD00040F0020020662046FFF789FE10202168B1
:101BE000086005F48060B0F5806F13D106F4806062
:101BF000B0F5806F0ED1E06D40F48040E065206E5E
:101C000040F0080020664FF480602168086020469C
:101C1000FFF75EFDBDE8F88F0003005000010050A3
:101C20002DE9F84304464FF000080020009014B955
:101C30000120BDE8F883606920B194F824000128F0
:101C400000D100BFE06D30B9204600F019F9002046
:101C5000206684F8580020688168C1F3407131B172
:101C6000206881687E4A1140816000BF00BF206803
:101C700002F075F8B0B9206881687A4A114041F0E5
:101C80008051816000BF784800687849B0FBF1F06E
:101C9000401C4000009002E00098401E0090009818
:101CA0000028F9D1206802F05AF848B9E06D40F0F8
:101CB0001000E065206E40F0010020664FF0010842
:101CC000206802F051F80646E06D00F01000002890
:101CD00077D1002EFCD1E06D20F4807040F002003E
:101CE000E065206802F031F8B0B94FF0A04002F092
:101CF0002CF881465E4802F028F849EA0009B9F15B
:101D0000000F09D160685B49896821F47C110143A7
:101D1000584A916000BF00BF607FE16B41EA4030EC
:101D2000E1680843A168084394F8241040EA01459B
:101D300094F82400012803D1208D401E45EA404537
:101D4000E06A28B1A08D00F47870216B0843054348
:101D50002068C0684849084028432168C860206856
:101D6000006920F04060616B0843216808612068C9
:101D700001F0D1FF0746002E50D1EFBB207F00219C
:101D800041EA803194F8380041EA40052068C06893
:101D900044F20201884328432168C860206988B161
:101DA0002068006940F48030216808612068D0F81C
:101DB000C0006FF30D00216908432168C1F8C0001D
:101DC0000EE045E02068006920F480302168086159
:101DD0002068D0F8C0006FF30D002168C1F8C00082
:101DE00094F84000012813D1606C40F00101A06C10
:101DF0000843E16C084300E010E0216D08432168CE
:101E0000096940F2FC72914308432168086105E0CA
:101E10002068006920F001002168086160690128DC
:101E200009D12068006B20F00F00216A491E084389
:101E30002168086305E02068006B20F00F0021682E
:101E40000863E06D20F0020040F00100E06505E06D
:101E5000E06D40F01000E0654FF001084046E8E614
:101E6000C0FFFF5FC0FFFF7F30000020400D030078
:101E700000010050000300500740F0FF70470000D1
:101E800010B598B00446142113A8FEF715FA4421A2
:101E900002A8FEF711FA2068B0F1A04F38D14FF434
:101EA000004002908003119002A800F0BFFA08B130
:101EB000FFF738F800BF1748C06C40F400501549D0
:101EC000C8640846C06C00F40050019000BF00BF19
:101ED00000BF0846C06C40F00100C8640846C06CF2
:101EE00000F00100019000BF00BF0F2013900320FD
:101EF00014900020159013A94FF0904000F03EF888
:101F000000221146122000F0A9F9122000F092F9E7
:101F100018B010BD0010024010B504460CB90120E5
:101F200010BD94F8210028B9002084F82000204634
:101F300000F00CF8002060626060A060E06020614A
:101F40006061012084F821000020E9E708B5094A12
:101F5000016891420DD100BF0749896C41F0080129
:101F6000054A91641146896C01F00801009100BF97
:101F700000BF08BD000C02400010024078B50246C8
:101F80000B460021CAE001268E401D6805EA0604C2
:101F9000002C73D01D7905F00305012D04D01D79A7
:101FA00005F00305022D13D190684E000325B540BE
:101FB000A8434E00DD68B540284390605068012575
:101FC0008D40A8431D79C5F300158D40284350600E
:101FD0001D7905F00305032D09D0D0684E000325B7
:101FE000B540A8434E009D68B5402843D0601D7998
:101FF00005F00305022D13D1CE0802F1200555F896
:1020000026004D07EE0E0F25B540A8434E07F60EED
:102010001D69B5402843CE0802F1200545F8260089
:1020200010684E000325B540A8431D7905F003054F
:102030004E00B540284310605D6805F44035002D22
:102040006BD000BF384D2D6E45F00105364E35661C
:1020500035462D6E05F00105009500BF00BF4FEA23
:10206000B6358E0855F826008D072E0F0F25B54082
:10207000A843B2F1904F02D100251AE04DE02B4D5C
:10208000AA4201D1012514E0294DAA4201D102251D
:102090000FE0284DAA4201D103250AE0264DAA42AD
:1020A00001D1042505E0254DAA4201D1052500E016
:1020B00006258E07360FB5402843214D8E0845F87A
:1020C0002600204D2868A0435D6805F4801505B101
:1020D00020431C4D28602D1D2868A0435D6805F431
:1020E000001505B12043174D2D1D2860154D2D1FDE
:1020F0002868A0435D6805F4003505B12043114D03
:102100002D1F28602D1F2868A0435D6805F48035C9
:1021100005B120430B4D083D2860491C1D68CD408A
:10212000002D7FF430AF78BD00100240000400485D
:1021300000080048000C0048001000480014004847
:1021400008000140080401400AB1816100E0816299
:10215000704700000148006870470000240000201C
:10216000034800680349096808440149086070474A
:10217000240000202C00002010B50024032000F0D3
:10218000ABF80F2000F008F808B1012401E000F0DE
:102190002FF8204610BD000070B5044600251148F8
:1021A0000068D8B10F4800684FF47A71B1FBF0F0C5
:1021B0000D490968B1FBF0F6304601F01EF958B937
:1021C000102C07D200222146501E00F047F8074885
:1021D000046004E0012502E0012500E00125284615
:1021E00070BD00002C0000203000002028000020DE
:1021F00008B500BF0E48006E40F001000C490866AB
:102200000846006E00F00100009000BF00BF00BF54
:102210000846806D40F0805088650846806D00F06B
:102220008050009000BF00BF00F0F6F808BD00002D
:10223000001002400146084600280DDB00BF00BF29
:1022400000F01F0301229A4043099B0003F1E023A1
:10225000C3F8002100BF00BF00BF70472DE9F05F49
:1022600080460D46164603F0B9FA074639462A4617
:10227000334601F00700C0F1070ABAF1040F02D992
:102280004FF0040A01E0C0F1070AD14600F1040A48
:10229000BAF1070F02D24FF0000A01E0A0F1030AE1
:1022A000D4464FF0010A0AFA09FAAAF1010A0AEA29
:1022B000020A0AFA0CFA4FF0010B0BFA0CFBABF115
:1022C000010B0BEA030B4AEA0B042146404603F0DC
:1022D0008DFABDE8F09F000000BF00F00702064B3A
:1022E00019684FF6FF031940044B0B4343EA0221E0
:1022F000014B196000BF70470CED00E00000FA05CB
:1023000002468ABB4148006800F4C060B0F5806FA7
:102310002BD13E488030006820F480703B4BC3F8DE
:1023200080001846006820F4C06040F40070186017
:102330003748006832235843364BB0FBF3F0411C5A
:1023400000E0491E3148406900F48060B0F5806FBC
:1023500001D10029F5D12D48406900F48060B0F525
:10236000806F51D10320704708E028488030006812
:1023700020F48070254BC3F8800045E0B2F5007F63
:102380003AD12248006800F4C060B0F5806F2AD1CD
:102390001E488030006840F480701C4BC3F88000F9
:1023A0001846006820F4C06040F4007018601848B7
:1023B000006832235843174BB0FBF3F0411C00E098
:1023C000491E1248406900F48060B0F5806F01D169
:1023D0000029F5D10D48406900F48060B0F5806FA8
:1023E00012D10320BFE709488030006840F48070B4
:1023F000064BC3F8800007E00448006820F4C06082
:1024000040F48060014B18600020ACE70070004091
:102410003000002040420F000348806840F48040B4
:102420000149886070470000007000402DE9F843C2
:1024300004460027B846206800F40020B0F5002FBD
:1024400073D1B946D348806D00F0805078B900BF91
:10245000D048806D40F08050CE4988650846806D38
:1024600000F08050009000BF00BF4FF00109CA4843
:10247000006840F48070C8490860FFF76BFE0646AC
:1024800006E0FFF767FE801B022801D9032705E05D
:10249000C148006800F480700028F2D000BF002F0F
:1024A00046D1BC489030006800F44075CDB1206C36
:1024B000A84216D0B7489030006820F44075B5485F
:1024C000D0F8900040F48030B249C1F8900008463E
:1024D000D0F8900020F48030C1F890000846C0F891
:1024E000905005F00100A0B1FFF734FE064608E069
:1024F000FFF730FE801B41F28831884201D9032763
:1025000006E0A4489030006800F002000028EFD0F8
:1025100000BF5FB99F489030006820F44070216C84
:1025200008439C49C1F8900003E00CE0B84600E085
:10253000B846B9F1010F05D19648806D20F0805062
:102540009449886500BF207800F0010048B19148A7
:102550008830006820F00300616808438D49C1F8A5
:102560008800207800F00200022809D189488830CC
:10257000006820F00C00A16808438649C1F8880073
:10258000207800F00400042809D1824888300068CF
:1025900020F03000E16808437E49C1F888002078C7
:1025A00000F00800082809D17A488830006820F037
:1025B000C000216908437749C1F88800207800F0FD
:1025C0002000202809D173488830006820F440603A
:1025D000616908436F49C1F88800207800F0400025
:1025E000402809D16B488830006820F44050A16928
:1025F00008436849C1F88800207800F080008028EE
:1026000009D164488830006820F44040E1690843FB
:102610006049C1F88800208800F48070B0F5807FA0
:1026200009D15C488830006820F44030216A0843B2
:102630005849C1F88800208800F40070B0F5007F88
:1026400009D154488830006820F44020616A08436A
:102650005049C1F88800208800F48060B0F5806F90
:1026600013D14C488830006820F44010A16A084318
:10267000484988310860A06AB0F5801F05D14548F7
:10268000C06840F480104349C860208800F40060AE
:10269000B0F5006F13D13F488830006820F4400047
:1026A000E16A08433B4988310860E06AB0F5800F71
:1026B00005D13848C06840F480103649C860208889
:1026C00000F48050B0F5805F13D132488830006844
:1026D00020F04070216B08432E4988310860206B40
:1026E000B0F1807F05D12B48C06840F480102949A3
:1026F000C860208800F40050B0F5005F13D1254871
:102700008830006820F04060616B084321498831BF
:102710000860606BB0F1006F05D11E48C06840F4DE
:1027200080101C49C860208800F48040B0F5804FBC
:1027300013D118488830006820F04060A16B08432E
:10274000144988310860A06BB0F1006F05D11148C1
:10275000C06840F480100F49C860208800F4004031
:10276000B0F5004F13D10B488830006820F040507E
:10277000E16B0843074988310860E06BB0F1805F86
:1027800005D10448C06840F480300249C860404622
:10279000BDE8F88300100240007000402DE9F041D0
:1027A00004460D464FF0000814B90120BDE8F08141
:1027B0007D48006800F00F00A8420ED27A480068F9
:1027C00020F00F002843784908600846006800F0B0
:1027D0000F00A84201D00120E8E7207800F00100B6
:1027E000002864D06068032823D17048006800F096
:1027F000007008B90120D9E701F0DEFF06466C48F9
:10280000864237D96948806800F0F00030B12078FE
:1028100000F0020002282DD1A06858BB63488068F0
:1028200020F0F00040F08000604988604FF08008A0
:1028300020E06068022806D15C48006800F400309F
:1028400040B90120B2E75948006800F4806008B937
:102850000120ABE700F0B4F806465548864209D996
:102860005248806820F0F00040F080004F498860B6
:102870004FF080084D48806820F0030061680843ED
:102880004A498860FFF766FC074608E0FFF762FCEC
:10289000C01B41F28831884201D9032086E74348B2
:1028A000806800F00C006168B0EB810FEED12078F9
:1028B00000F00200022820D1207800F00400042853
:1028C00005D13A48806840F4E06038498860207853
:1028D00000F00800082807D13448806820F46050D0
:1028E00040F4E060314988603048806820F0F000B2
:1028F000A16808432D49886008E0B8F1800F05D130
:102900002A48806820F0F00028498860264800683E
:1029100000F00F00A84219D92348006820F00F00EA
:10292000284321490860FFF715FC074608E0FFF738
:1029300011FCC01B41F28831884201D9032035E7E0
:102940001948006800F00F00A842F0D1207800F08C
:102950000400042807D11548806820F4E060E1688D
:10296000084312498860207800F00800082808D140
:102970000E48806820F46050216940EAC1000B498C
:10298000886000F01DF809498968C1F30311094AFC
:10299000515C01F01F01C840074908600748006802
:1029A000FFF7FAFB02E7000000200240001002409F
:1029B00000B4C404F25B00083000002028000020AE
:1029C00070B5224DAD6805F00C05042D01D12048ED
:1029D0003AE01E4DAD6805F00C05082D01D11D48EB
:1029E00032E01A4DAD6805F00C050C2D2BD1174DBA
:1029F000ED6805F00304154DED68C5F303156A1C79
:102A0000022C0CD0032C09D1124DB5FBF2F50F4E60
:102A1000F668C6F3062605FB06F10AE000BF0C4D7A
:102A2000B5FBF2F5094EF668C6F3062605FB06F17E
:102A300000BF00BF054DED68C5F341656D1C6B001F
:102A4000B1FBF3F000E0002070BD00000010024078
:102A50000024F40000366E012DE9F843044614B951
:102A60000120BDE8F883207800F00100002865D03F
:102A7000FC48806800F00C07FA48C06800F00306C4
:102A80000C2F01D1032E01D0082F0AD1F548006880
:102A900000F40030002851D0606800284ED1012099
:102AA000DFE700BF6068B0F5803F06D1ED48006801
:102AB00040F48030EB4908601AE06068B0F5A02F60
:102AC0000BD1E848006840F48020E64908600846D9
:102AD000006840F4803008600AE0E248006820F4B2
:102AE0008030E04908600846006820F480200860D3
:102AF00000BF606888B1FFF72DFB054606E0FFF7D1
:102B000029FB401B642801D90320AAE7D5480068A7
:102B100000F400300028F2D010E0FFF71BFB054660
:102B200006E0FFF717FB401B642801D9032098E754
:102B3000CC48006800F400300028F2D1207800F082
:102B40000200022860D1C748806800F00C07C54821
:102B5000C06800F003060C2F01D1022E01D0042F13
:102B600018D1C048006800F4806018B1E06808B966
:102B7000012076E7BB48406820F0FE40217C40EA17
:102B80000160B8494860B8480068FFF705FB18B312
:102B9000012066E7E06800B3B248006840F4807046
:102BA000B0490860FFF7D6FA054606E0FFF7D2FA0B
:102BB000401B022801D9032053E7AA48006800F40B
:102BC00080600028F2D0A748406820F0FE40217CB9
:102BD00040EA0160A349486016E0A248006820F47A
:102BE0008070A0490860FFF7B5FA054606E0FFF7D8
:102BF000B1FA401B022801D9032032E79948006846
:102C000000F480600028F2D1207800F00800082845
:102C100036D16069D0B193489430006840F001002B
:102C20009049C1F89400FFF795FA054606E0FFF7D2
:102C300091FA401B022801D9032012E789489430F9
:102C4000006800F002000028F1D019E085489430B7
:102C5000006820F001008349C1F89400FFF77AFA78
:102C6000054606E0FFF776FA401B022801D903204B
:102C7000F7E67C489430006800F002000028F1D1AB
:102C8000207800F00400042872D14FF00008754845
:102C9000806D012121EA107078B100BF7148806D0C
:102CA00040F080506F4988650846806D00F0805084
:102CB000009000BF00BF4FF001086C48006800F4AE
:102CC0008070B0B96948006840F480706749086056
:102CD000FFF740FA054606E0FFF73CFA401B0228E2
:102CE00001D90320BDE66148006800F48070002827
:102CF000F2D000BFA068012808D15A48903000687F
:102D000040F001005749C1F8900021E0A068052873
:102D10000FD154489030006840F004005149C1F888
:102D200090000846D0F8900040F00100C1F89000F3
:102D30000EE04C489030006820F001004949C1F88D
:102D400090000846D0F8900020F00400C1F89000F0
:102D500000BFA068A8B1FFF7FDF9054609E0FFF73D
:102D6000F9F9401B41F28831884202D9032078E604
:102D700025E03C489030006800F002000028EED0CA
:102D800013E0FFF7E7F9054608E0FFF7E3F9401B1A
:102D900041F28831884201D9032062E631489030FF
:102DA000006800F002000028EFD1B8F1010F05D152
:102DB0002C48806D20F080502A49886500BF20781B
:102DC00000F02000202836D1A069D0B125489830E5
:102DD000006840F001002349C1F89800FFF7BAF9F4
:102DE000054606E0FFF7B6F9401B022801D903208B
:102DF00037E61C489830006800F002000028F1D047
:102E000019E018489830006820F001001549C1F811
:102E10009800FFF79FF9054606E0FFF79BF9401B76
:102E2000022801D903201CE60E489830006800F003
:102E300002000028F1D1E069002860D009488068CC
:102E400000F00C000C287AD0E069022858D105481F
:102E5000006820F0807003490860FFF77BF90546A1
:102E60000DE000000010024028000020007000402B
:102E7000FFF770F9401B022801D90320F1E54A4809
:102E8000006800F000700028F2D1D4E90810401E5C
:102E900041EA0011A06A41EA0021208E0122C2EB22
:102EA000500041EA40513420005DC2EB500041EA3D
:102EB00040612C20005D41EAC0603B49C9683B4A43
:102EC000114008433849C8600846006840F08070E7
:102ED00008600846C06840F08070C860FFF73AF9A3
:102EE000054606E0FFF736F9401B022801D903200A
:102EF000B7E52D48006800F000700028F2D051E0DE
:102F00002948006820F0807027490860FFF722F9FF
:102F1000054606E0FFF71EF9401B022801D90320F1
:102F20009FE52148006800F000700028F2D11E489B
:102F3000C0681F4908401C49C86033E0FFE7E069EA
:102F4000012800D18DE51848C66806F00301206A03
:102F5000814225D106F0F001606A401EB1EB001FEE
:102F60001ED106F4FE41A06AB1EB002F18D106F085
:102F700078412C20005DB1EBC06F11D106F4C00187
:102F8000208E0122C2EB5000B1EB405F08D106F069
:102F9000C0613420005DC2EB5000B1EB406F01D046
:102FA00001205EE500205CE5001002400C809F01DE
:102FB000FCFFEEFE70B504460CB9012070BD606ADE
:102FC00038B96068B0F5827F00D105E00021E16189
:102FD00002E00021216161610021A16294F85D009D
:102FE00028B9002084F85C00204600F061F8022037
:102FF00084F85D002068006820F0400021680860C7
:10300000E068B0F5E06F01D9002501E04FF480558C
:10301000E068B0F5706F05D0E068B0F5E06F01D002
:103020000021A162A08800F48270218901F404418A
:103030000843217C01F002010843217D01F00101D8
:103040000843218B01F400710843217F01F038010E
:1030500008432021095D01F080010843218D01F41E
:1030600000510843216808600421A06901EA10406A
:1030700094F8241001F01001084394F8341001F082
:1030800008010843A18901F47061084305F48051E7
:103090000843216848602068C06920F40060216806
:1030A000C86100202066012084F85D00002085E7CB
:1030B00010B586B00446142101A8FDF7FDF81849A3
:1030C0002068884229D100BF1648006E40F4805025
:1030D000144908660846006E00F48050009000BF56
:1030E00000BF00BF0846C06C40F00100C86408463D
:1030F000C06C00F00100009000BF00BFE020019014
:1031000002200290002003900320049005200590E7
:1031100001A94FF09040FEF731FF06B010BD00004E
:1031200000300140001002402DE9FF5F044689464F
:1031300092461D460E9E012001900020009000BF87
:1031400094F85C00012803D1022004B0BDE8F09F90
:10315000012084F85C0000BFFEF7FCFF074694F8EE
:103160005D00029060680390A846AB460298012873
:103170000BD00398B0F5827F04D1A06810B90298F3
:10318000042802D00220009030E1B9F1000F03D0F2
:10319000BAF1000F00D015B90120009026E194F893
:1031A0005D00042802D0052084F85D000020206620
:1031B000C4F840A0A4F84650A4F84450C4F838908D
:1031C000E587A587E0642065E068B0F5E06F02D888
:1031D000BBF1010F06D92068406820F480502168B7
:1031E000486005E02068406840F4805021684860ED
:1031F0002068006800F04000402805D02068006882
:1032000040F0400021680860E068B0F5E06F51D9F7
:10321000606810B1B8F1010F09D1A06B0088216876
:10322000C860A06B801CA063E08F401EE08739E07F
:103230002068806800F00200022810D1E08F70B191
:10324000019801280BD1A06B00882168C860A06B91
:10325000801CA063E08F401EE08700200190206862
:10326000806800F0010080B1B4F8460068B12068C1
:10327000C068216C0880206C801C2064B4F8460073
:10328000401EA4F8460001200190FEF763FFC01B1A
:10329000B04207D3701C28B103200090012084F8AD
:1032A0005D00A3E0E08F0028C2D1B4F846000028FA
:1032B000BED188E0606810B1B8F1010F17D1E08F7E
:1032C00001280AD9A06B00882168C860A06B801C07
:1032D000A063E08F801EE08709E0A06B0078216882
:1032E0000873A06B401CA063E08F401EE08763E082
:1032F0002068806800F0020002281ED1E08FE0B153
:103300000198012819D1E08F01280AD9A06B008803
:103310002168C860A06B801CA063E08F801EE087DE
:1033200009E0A06B007821680873A06B401CA063C3
:10333000E08F401EE087002001902068806800F048
:10334000010058B3B4F8460040B3B4F84600012871
:1033500016D92068C068216C0880206C801C20640D
:10336000B4F84600801EA4F84600B4F846000128D0
:1033700012D82068406840F48050216848600BE013
:103380002068007B216C0870206C401C2064B4F81D
:103390004600401EA4F8460001200190FEF7DAFE28
:1033A000C01BB04201D3701C00B92EB9032000909D
:1033B000012084F85D0019E0E08F002898D1B4F86E
:1033C0004600002894D13A463146204601F024FBBD
:1033D00018B10120009020202066206E10B101203D
:1033E000009002E0012084F85D0000BF00BF0020D3
:1033F00084F85C0000BF0098A7E670B50446254637
:10340000681EB0F1807F01D301200FE0681E4FF0ED
:10341000E02148610F214FF0FF3002F0E7F9002072
:103420004FF0E021886107200861002070BD000096
:1034300010B50346002200BF93F83C00012801D1DB
:10344000022010BD012083F83C0000BF22F0FF00E5
:10345000CC6840EA040222F440708C6840EA04021E
:1034600022F480604C6840EA040222F400600C6898
:1034700040EA040222F480500C6940EA040222F47B
:1034800000504C6940EA040222F480400C6B40EA90
:10349000040222F470200C8B40EA044222F0805097
:1034A000CC6940EA0402124C1868A04203D0114CC7
:1034B0001868A04213D122F470000C8D40EA045227
:1034C00022F080700C6A40EA040222F000704C6A1C
:1034D00040EA040222F00050CC6A40EA0402186874
:1034E000426400BF002083F83C0000BF00BFA8E793
:1034F000002C01400034014030B502460B4600BFAD
:1035000092F83C00012801D1022030BD012082F850
:103510003C0000BF022082F83D001068416810683E
:1035200084681D4D1068A84203D01C4D1068A84245
:1035300003D121F47001586801431948014018680B
:10354000014310684160144D1068A84213D0106800
:10355000B0F1804F0FD0134D1068A8420BD0124D20
:103560001068A84207D00D4D1068A84203D00F4D37
:103570001068A84205D124F08004986804431068BC
:103580008460012082F83D0000BF002082F83C00EA
:1035900000BF00BFB9E70000002C0140003401402B
:1035A0008FFFFFFD00040040000800400040014084
:1035B00070B504460D4615B994F844000BE0042D8F
:1035C00002D14520005D06E0082D02D14620005DB5
:1035D00001E04720005D012801D0012070BD1DB928
:1035E000022084F844000EE0042D03D1022145207E
:1035F000015508E0082D03D102214620015502E0C3
:1036000002214720015504222946206801F0BFFE0F
:103610002068406C40F400402168486418492068E4
:10362000884213D02068B0F1804F0FD01549206830
:1036300088420BD014492068884207D0134920687B
:10364000884203D012492068884210D120688068DF
:10365000104900EA0106062E0FD0B6F5803F0CD0C7
:103660002068006840F001002168086005E02068DB
:10367000006840F00100216808600020AEE700000B
:10368000002C0140000400400008004000340140CC
:10369000004001400700010010B504460CB90120AC
:1036A00010BD94F83D0028B9002084F83C00204665
:1036B00000F02AF8022084F83D00211D206801F066
:1036C000EFFD012084F8480000BF84F83E0001218E
:1036D0003F20015540200155412001554220015510
:1036E0004320015500BF00BF012084F8440045205D
:1036F0000155462001554720015500BF012084F89F
:103700003D000020CCE7000008B5094A016891425D
:103710000DD100BF0749096E41F40061054A1166E9
:103720001146096E01F40061009100BF00BF08BDA1
:10373000002C014000100240014691F83D00012894
:1037400001D001207047022081F83D00184B086825
:10375000984213D00868B0F1804F0FD0154B08681D
:1037600098420BD0144B0868984207D0134B086856
:10377000984203D0124B0868984210D108688068BC
:10378000104B00EA0302062A0FD0B2F5803F0CD09E
:103790000868006840F001000B68186005E00868E0
:1037A000006840F001000B6818600020CAE70000C4
:1037B000002C01400004004000080040003401409B
:1037C00000400140070001002DE9F04104460D468C
:1037D000002700BF94F83C00012802D10220BDE878
:1037E000F081012084F83C0000BF022084F83D00F5
:1037F000206886683F48064026F47F462068866039
:103800002868702824D00CDC00F00F01002964D156
:103810000011072861D2DFE800F0535455564935AE
:103820003F00354A811A90424FD009DCB0F5805FE5
:103830000DD0B0F5005F18D0B0F1101F4DD143E0AE
:10384000102943D0202942D0502946D140E046E0FB
:10385000D5E902136A68206801F0AAFD206886682D
:1038600046F077062068866039E0D5E902136A6879
:10387000206801F09DFD2068806840F48040216848
:1038800088602CE0EA686968206801F07DFF5021BB
:10389000206801F099FD22E0EA686968206801F07B
:1038A00086FF6021206801F08FFD18E0EA686968F2
:1038B000206801F069FF4021206801F085FD0EE0DD
:1038C00000BF00BF00BF00BF00BF00BF00BF00BF00
:1038D0002968206801F078FD01E0012700BF00BFE2
:1038E000012084F83D0000BF002084F83C0000BFA8
:1038F000384674E788FFCEFF2000100010B586B070
:103900000446142101A8FCF7D7FC26492068884208
:1039100045D100BF2448C06C40F002002249C86471
:103920000846C06C00F00200009000BF00BF00BF5E
:103930000846C06C40F00100C8640846C06C00F046
:103940000100009000BF00BF4FF4C0400190022072
:1039500002900020039004900620059001A91348CE
:10396000FEF70CFB4FF40040019002200290002073
:10397000039004900420059001A90C48FEF7FEFA7C
:103980004FF4E06001900220029000200390049028
:103990000620059001A94FF09040FEF7EFFA06B01F
:1039A00010BD0000002C014000100240000400483F
:1039B0002DE9F04104460D461646002700BF94F855
:1039C0003C00012802D10220BDE8F081012084F8EA
:1039D0003C0000BF0C2E51D005DC4EB1042E1ED091
:1039E000082E7AD133E0102E60D0142EF9D175E074
:1039F0002946206801F0F4FC2068806940F0080046
:103A0000216888612068806920F00400216888614D
:103A100020688069296908432168886178E029461F
:103A2000206801F033FD2068806940F4006021685F
:103A300088612068806920F480602168886120683E
:103A40008069296940EA01202168886160E029468F
:103A5000206801F075FD2068C06940F00800216809
:103A6000C8612068C06920F004002168C86120682E
:103A7000C069296908432168C86149E0294620686E
:103A800001F0B8FD2068C06940F400602168C86199
:103A90002068C06920F480602168C8612068C0691E
:103AA000296940EA01202168C86131E0294620687F
:103AB00001F0FAFD2068006D40F0080021680865FB
:103AC0002068006D20F00400216808652068006D02
:103AD00029690843216808651AE017E0294620682B
:103AE00001F01AFE2068006D40F40060216808654E
:103AF0002068006D20F48060216808652068006DF2
:103B0000296940EA01202168086501E0012700BF1A
:103B100000BF00BF002084F83C0000BF384653E7D8
:103B200010B504460CB9012010BD94F83D0028B929
:103B3000002084F83C00204600F029F8022084F898
:103B40003D00211D206801F0ABFB012084F84800F6
:103B500000BF84F83E0001213F200155402001555F
:103B600041200155422001554320015500BF00BFAF
:103B7000012084F844004520015546200155472086
:103B8000015500BF012084F83D000020CCE77047BC
:103B900070B504460D4615B994F83E0015E0042DA5
:103BA00002D13F20005D10E0082D02D14020005DD1
:103BB0000BE00C2D02D14120005D06E0102D02D15A
:103BC0004220005D01E04320005D012801D001207A
:103BD00070BD1DB9022084F83E001AE0042D03D107
:103BE00002213F20015514E0082D03D1022140207D
:103BF00001550EE00C2D03D102214120015508E0B2
:103C0000102D03D102214220015502E00221432060
:103C1000015501222946206801F0A8FB27492068A8
:103C200088420FD02649206888420BD02549206859
:103C3000884207D024492068884203D0234920685D
:103C4000884201D1012000E0002028B12068406CAA
:103C500040F400402168486418492068884213D025
:103C60002068B0F1804F0FD01949206888420BD0EE
:103C700018492068884207D011492068884203D03B
:103C800010492068884210D120688068124900EAF3
:103C90000106062E0FD0B6F5803F0CD020680068D4
:103CA00040F001002168086005E02068006840F0ED
:103CB00001002168086000208AE70000002C014014
:103CC00000340140004001400044014000480140F0
:103CD00000040040000800400700010000BFFEE7AC
:103CE0008168024A1140491C81607047C0FFFF7F14
:103CF0000146886800F01F007047024602F160002C
:103D000000EB8103186800F0F84070470146C8686E
:103D100000F00070704701468868C0F3C00070472B
:103D200001468868C0F3C000704700008168034AFC
:103D3000114041F00801816070470000C0FFFF7F23
:103D400001468868C0F3400070470146886800F06B
:103D5000010070470146886800F001007047014685
:103D60008868C0F30070704701468868C0F380001F
:103D7000704701468868C0F3800070470146C868F4
:103D800000F4406008B9012070470020FCE770B5DE
:103D900000F11404C1F3406504EB85031C68C1F312
:103DA00004560725B540AC43C1F3045502FA05F5A6
:103DB0002C431C6070BD826822F0E0720A4382606E
:103DC000704710B500F1600404EB81031C6824F017
:103DD000004414431C6010BD426922F000420A43B3
:103DE00042617047194991ED070A80ED040A90ED90
:103DF0000B0ADFED170A80EE801ABCEEC10A10EE46
:103E0000101A41863C21018700218186C1869FEDE1
:103E1000110A80ED120A41879FED0E0A80ED130A08
:103E20009FED0D0A80ED100A9FED0C0A80ED110A3E
:103E3000A0F858109FED070A80ED140A9FED050ABF
:103E400080ED150A0121818770470000B000002035
:103E500000401C4600000000286B6ECE286B6E4EA2
:103E600010B52DED048B0446A08F10B92046FFF746
:103E7000B9FFB4F8580000287ED194F8360000F05D
:103E8000010010B1BFEE000A01E0B7EE000AF0EE4B
:103E9000409A94ED0A0A60EE298A94F8300058B9E5
:103EA00094ED040AB0EE401A6B48DFED6C0AB0EEF8
:103EB000680A00F061FF0AE094ED040AB0EE401ACF
:103EC0006548F0EE680A9FED650A00F055FF94F82A
:103ED000300018B9624890ED040A02E0604890EDA5
:103EE000050AB0EE408A94ED100AB4EEC80AF1EE6D
:103EF00010FA01D284ED108A94ED110AB4EEC80ACA
:103F0000F1EE10FA01DD84ED118A94ED120A30EE23
:103F1000080A84ED120AA08E401CA086A08E618E35
:103F2000884261DB94ED122AA08E00EE100AB8EEF2
:103F3000400AC2EE002AB0EE621A94ED100A94ED27
:103F4000112A30EE420AF0EE400A94ED0B0AB6EE6A
:103F5000002AC2EE002AF0EE621A9FED420AF4EE49
:103F6000C00AF1EE10FA2DDD94ED082AB5EEC02A54
:103F7000F1EE10FA0CDD00E06BE0F0EEC12A94EDFA
:103F80000A2A94ED083AB0EE420A03EE620A01E012
:103F900094ED0A0A9FED342AB4EEC20AF1EE10FA4B
:103FA0000FDD60EE212A82EEA03AB0EE432AD4ED76
:103FB000132A72EE822AC4ED132A608F401C608798
:103FC00000BF00BFE08E401CE0869FED280A84ED14
:103FD000100A9FED270A84ED110A9FED200A84ED57
:103FE000120A0020A08600BFE08E218F88422FDBBE
:103FF0009FED1A0AB0EE409A608F00280ADDD4EDDA
:10400000130A608F00EE100AB8EE400A80EE801AA4
:10401000B0EE419A94F8300010B984ED149A01E0A2
:1040200084ED159A94ED040AB0EE401A0A48DFEDCB
:104030000B0A9FED0A0A00F09FFE002060879FEDAB
:10404000070A84ED130AE0860120A4F8580000BF97
:1040500000BFBDEC048B10BD080000200000000074
:10406000E80000200AD7A33CACC527370050C3C7DF
:104070000050C34738B50446002210214FF090404D
:10408000FEF762F8642002232246064900900648A3
:10409000FFF74AF8012210214FF09040FEF754F844
:1040A00038BD0000F05B00080C02002038B56846FF
:1040B000FFF7E0FF9DF8010084109DF8000044EA3E
:1040C0008014204638BD000000B593B00020109049
:1040D000119012903C2101A8FCF7EEF84FF0A0409F
:1040E000394908604FF4403048600021364881600B
:1040F000C1600161012141610421816100210177D9
:10410000417701210162002180F8241080F83810E5
:10411000C16380F84010FDF783FD08B1FCF702FF92
:104120000020109010A92848FDF75AFB08B1FCF7B1
:10413000F9FE2648019009200290012003907F207B
:10414000049004200590002006900420099000208F
:104150008DF828008DF829008DF82A0084200B9016
:104160004FF480700C9000208DF8340001A916489F
:10417000FCF772FF08B1FCF7D5FE1548019040F23C
:104180000F10029001A91048FCF766FF08B1FCF778
:10419000C9FE1048019040F21520029001A90A487A
:1041A000FCF75AFF08B1FCF7BDFE0B48019040F246
:1041B0001B30029001A90448FCF74EFF08B1FCF740
:1041C000B1FE13B000BD00007801002002003004F1
:1041D000040060080800900C1000C01010B50548DD
:1041E000054908600846FDF797FE08B1FCF79AFEFE
:1041F00010BD0000000C0240E401002000B587B0B3
:10420000142102A8FCF758F800BF2D48C06C40F0FC
:1042100020002B49C8640846C06C00F020000190C3
:1042200000BF00BF00BF0846C06C40F00100C8647A
:104230000846C06C00F00100019000BF00BF00BF45
:104240000846C06C40F00200C8640846C06C00F02C
:104250000200019000BF00BF00BF0846C06C40F0E4
:104260000400C8640846C06C00F00400019000BF60
:1042700000BF012210214FF09040FDF765FF0022A2
:104280004FF400610F48FDF75FFF102002900120FE
:104290000390002004900320059002A94FF0904065
:1042A000FDF76CFE4FF400600290012003900020A7
:1042B0000490059002A90348FDF760FE07B000BD19
:1042C000001002400008004810B51148114908606C
:1042D0004FF48270486000210E4881604FF4E06125
:1042E000C160002101610121416149028161182100
:1042F000C16100210162416281620721C162002126
:1043000001634163FEF756FE08B1FCF70BFE10BDDA
:10431000003001400C02002000B59BB00020179037
:10432000189019901A901490159016901C210DA8B1
:10433000FBF7C2FF34216846FBF7BEFF4148424904
:1043400008600020486020213F48816041F26801F8
:10435000C16000210161416180218161FFF79CF909
:1043600008B1FCF7DFFD4FF48050179017A93648CD
:10437000FFF72AFA08B1FCF7D5FD3348FFF7D0FB69
:1043800008B1FCF7CFFD7020149000201590169016
:1043900014A92D48FFF7B0F808B1FCF7C3FD702051
:1043A0000D9040F634000E9000200F901090119068
:1043B0001290139000220DA92348FFF7F9FA08B1D3
:1043C000FCF7B0FD04220DA91F48FFF7F1FA08B170
:1043D000FCF7A8FD08220DA91B48FFF7E9FA08B170
:1043E000FCF7A0FDFA200E900C220DA91648FFF74D
:1043F000DFFA08B1FCF796FD4FF400600090401022
:104400000190801002900020039004904FF400501F
:10441000059000200690079008904FF000700990DA
:1044200000200A900B904FF480400C90694606489B
:10443000FEF7FEFF08B1FCF775FD0348FFF75EFAD3
:104440001BB000BD002C01407002002000BFFEE741
:1044500010B53448007901280CD13249C87032486F
:10446000D0ED090AB0EE600A3048DFED310A00F005
:10447000EFFB55E02B480079022810D12949C8707C
:104480002948D0ED070AB0EE601AD0ED090AB0EE67
:10449000600A2848DFED260A00F06EFC40E0214863
:1044A0000079032817D102201E49C870224800F065
:1044B00049F81D48D0ED071AB0EE611A1E48D0ED3C
:1044C0000B1AF0EE610AD0ED0A1AB0EE610A194833
:1044D00000F052FC24E013480079042803D10220A4
:1044E0001049C8701CE00F480079052803D102204C
:1044F0000C49C87014E00B480079062806D1032047
:104500000849C8700D4800F0A7F909E0054800798E
:10451000072805D103200349C8700848FFF7A0FC0D
:1045200010BD000000000020B0000020640000204A
:104530000000000008000020E80000201C0100200E
:1045400000BFFEE790ED022AD0ED062AF1EE622AC6
:10455000B4EEE22AF1EE10FA04D290ED062AB1EEA2
:10456000422A0DE090ED022AD0ED062AB4EEE22AAE
:10457000F1EE10FA02DD90ED062A01E090ED022A3C
:1045800080ED022A90ED032AD0ED062AF1EE622A90
:10459000B4EEE22AF1EE10FA04D290ED062AB1EE62
:1045A000422A0DE090ED032AD0ED062AB4EEE22A6D
:1045B000F1EE10FA02DD90ED062A01E090ED032AFB
:1045C00080ED032A90ED022AD0ED042A32EE620A31
:1045D00090ED032AD0ED052A72EE620A90ED082ACA
:1045E000D0ED012A02EE802A80ED082A90ED092AFA
:1045F000D0ED012A02EEA02A80ED092A90ED082ACA
:10460000D0ED002AB0EE421A02EE801A90ED092A8F
:10461000D0ED002AF0EE421A42EEA01A90ED0C2ADC
:10462000B4EEC12AF1EE10FA04D8B5EEC00AF1EEEC
:1046300010FA0DDC90ED0C2AB1EE422AB4EEC12A3C
:10464000F1EE10FA0CDBB5EEC00AF1EE10FA07D26B
:1046500090ED082AD0ED012A02EEC02A80ED082A4A
:1046600090ED0C2AB4EEE12AF1EE10FA04D8F5EE42
:10467000C00AF1EE10FA0DDC90ED0C2AB1EE422AE0
:10468000B4EEE12AF1EE10FA0CDBF5EEC00AF1EE21
:1046900010FA07D290ED092AD0ED012A02EEE02AA5
:1046A00080ED092A90ED082AD0ED072AF1EE622A62
:1046B000B4EEE22AF1EE10FA04D290ED072AB1EE40
:1046C000422A0DE090ED082AD0ED072AB4EEE22A46
:1046D000F1EE10FA02DD90ED072A01E090ED082AD4
:1046E00080ED082A90ED092AD0ED072AF1EE622A22
:1046F000B4EEE22AF1EE10FA04D290ED072AB1EE00
:10470000422A0DE090ED092AD0ED072AB4EEE22A04
:10471000F1EE10FA02DD90ED072A01E090ED092A92
:1047200080ED092A90ED082AD0ED002A02EE802AB9
:10473000B0EE421A90ED092AD0ED002A02EEA02A2E
:10474000F0EE421A90ED0C2AB1EE422AB4EEC12AE4
:10475000F1EE10FA04DD90ED0C2AB1EE422A0BE0E6
:1047600090ED0C2AB4EEC12AF1EE10FA02D290EDCF
:104770000C2A01E0B0EE412A80ED0A2A90ED0C2AC5
:10478000B1EE422AB4EEE12AF1EE10FA04DD90ED2A
:104790000C2AB1EE422A0BE090ED0C2AB4EEE12A8D
:1047A000F1EE10FA02D290ED0C2A01E0B0EE612A8F
:1047B00080ED0B2A7047704770B5164DED6805F017
:1047C0000304144DED68C5F303156B1C022C0CD0CB
:1047D000032C09D1104DB5FBF3F50E4EF668C6F368
:1047E000062605FB06F10AE000BF0C4DB5FBF3F50C
:1047F000084EF668C6F3062605FB06F100BF00BFAB
:10480000044DED68C5F341656D1C6A00B1FBF2F023
:1048100070BD00000010024000366E010024F4005C
:104820004FF4965141814FF47A61818100210181D9
:10483000074991ED070A80ED040A9FED060A80ED15
:10484000080A01218173002180F8241070470000BC
:10485000B00000200000000010B52DED028B0446D2
:10486000207806280BD2DFE800F0030B245570A354
:10487000A07B20B92046FFF7D3FF01202070C0E0C5
:1048800094ED040AB0EE401A94ED010AF0EE400AED
:104890005E489FED5F0A00F06FFA2089401C20817E
:1048A00020896189884203DB00202081022020705A
:1048B000A7E094ED040AB0EE401A94ED010AF0EE80
:1048C000400A52489FED520A00F056FA514890EDC6
:1048D000058A94ED050A30EE080A84ED050A208960
:1048E000401C20812089A189884212DBD4ED050A71
:1048F000208900EE100AB8EE400A80EE801A84ED9E
:10490000061A002020819FED420A84ED050A03204B
:10491000207076E094ED040AB0EE401A94ED010A9E
:10492000B1EE400AF0EE400A38489FED390A00F037
:1049300023FA2089401C208120896189884203DB79
:1049400000202081042020705BE094ED040AB0EE8A
:10495000401A94ED010AB1EE400AF0EE400A2B48ED
:104960009FED2B0A00F008FA2A4890ED058A94ED95
:10497000050A30EE080A84ED050A2089401C2081D2
:104980002089A189884212DBD4ED050A208900EE36
:10499000100AB8EE400A80EE801A84ED071A002053
:1049A00020819FED1B0A84ED050A0520207028E078
:1049B00094ED040AB0EE401A1448DFED150A9FED9D
:1049C000140A00F0D9F994ED060AD4ED070A30EE86
:1049D000600AD4ED010AB0EE001A60EE810A80EEA2
:1049E000801A84ED081A9FED0A0A84ED060A9FEDED
:1049F000080A84ED070A012084F8240000202070B2
:104A000000BF00BFBDEC028B10BD000008000020FD
:104A100000000000E8000020F8B504460E461546E8
:104A2000334600224FF4C0512046009500F026F88E
:104A300028B1206E40F0200020660320F8BD3346E8
:104A4000002280212046009500F094F828B1206EC5
:104A500040F0200020660320F0E7334600224FF4A8
:104A6000C0612046009500F009F828B1206E40F0A2
:104A7000200020660320E1E70020DFE72DE9FC5F4E
:104A800004460D4616461F46DDF830900020009083
:104A9000FDF760FBA0EB0900A7EB0008FDF75AFB50
:104AA0008246206800F10C0B31480068C0EBC00062
:104AB00000EB8000000D00FB08F0019050E0B5F520
:104AC000C06F05D126B99BF8000000909DF800004A
:104AD000781C002844D0FDF73DFBA0EB0A004045C0
:104AE00002D2B8F1000F34D12068406820F0E00015
:104AF000216848606068B0F5827F0DD1A068B0F58C
:104B0000004F03D0A068B0F5806F05D12068006821
:104B100020F0400021680860A06AB0F5005F0DD168
:104B200000BF2068006820F40050216808602068F9
:104B3000006840F400502168086000BF012084F83C
:104B40005D0000BF002084F85C0000BF0320BDE8CA
:104B5000FC9F019808B94FF000080198401E019091
:104B6000206880682840B042A9D10020EFE700000B
:104B7000300000202DE9F84F04460D4690461E46B1
:104B8000DDF82890FDF7E6FAA0EB0900371AFDF7EB
:104B9000E1FA82462C480068C0F3CB30784300909D
:104BA00045E0701C002842D0FDF7D4FAA0EB0A00C3
:104BB000B84200D2A7BB2068406820F0E00021681E
:104BC00048606068B0F5827F0DD1A068B0F5004FF5
:104BD00003D0A068B0F5806F05D12068006820F090
:104BE000400021680860A06AB0F5005F0DD100BFE9
:104BF0002068006820F40050216808602068006880
:104C000040F400502168086000BF012084F85D0076
:104C100000BF002084F85C0000BF0320BDE8F88FCF
:104C2000FFE7009800B900270098401E0090206818
:104C300080682840A84201D1012000E000204045C2
:104C4000AFD10020EAE700003000002070470000EC
:104C50004649D1ED0C1A91ED0D2A60EE825A40EED4
:104C6000615AC0ED035A60EEA15A40EE025AC0EDFF
:104C7000045A00BFD0ED031AF0EE612AD0ED031AFA
:104C8000BEEE002A61EE821A90ED042ADFED385A5A
:104C900045EE821AB0EE613AD0ED031ABEEE002A5C
:104CA00061EE821A90ED042ADFED315A45EEC21A08
:104CB000F0EE613AD0ED051AB6EE002A61EE821AE6
:104CC000B0EE611A72EE811AC0ED001A73EE011A8D
:104CD000C0ED011A73EE811AC0ED021AD0ED001A70
:104CE000D0ED055A81EEA52A018B01EE901AF8EE5F
:104CF000611A62EE211AB0EE614AD0ED011AD0EDD0
:104D0000055A81EEA52A018B01EE901AF8EE611A80
:104D100062EE211AF0EE614AD0ED021AD0ED055A8A
:104D200081EEA52A018B01EE901AF8EE611A62EE6F
:104D3000211AB0EE615A028BFCEEC41A11EE901AE1
:104D4000511A0C4A1160028BFCEEE41A11EE901A13
:104D5000511A084A121D1160028BFCEEC51A11EEA1
:104D6000901A511A034A083211607047B0000020AF
:104D7000D7B35D3F342C01402DE9F0412DED108B70
:104D800090B0B0EE40CAB0EE60DAB0EE41FA044640
:104D90009FEDF70A8DED0F0A9FEDF60A8DED0E0AD5
:104DA0000AA90BA8B0EE4F0AFBF7FAFA9DED0B0A21
:104DB000DDED0A0A2DEE201A0CEE401A8DED0D1ACB
:104DC0002DEE001A0CEE201A8DED0C1A00BF94ED9A
:104DD000000ADFEDE80A20EE200A8DED090A9DEDBC
:104DE0000D0A20EE000ADDED0C0A9DED0C1A00EE16
:104DF000810A8DED080A9DED090A60EE000A9DED1D
:104E0000080AF4EEC00AF1EE10FA16D29DED080A77
:104E100000F042FDDDED090A80EE801AF0EE41FA65
:104E20009DED0D0A20EE2F0A8DED0D0A9DED0C0A69
:104E300020EE2F0A8DED0C0A00BFA08800EE100AAC
:104E4000B8EE400ADFEDCA0A20EE200AD4ED000ACF
:104E5000C0EE20EA9DED0D0A20EE2E0A8DED0D0A22
:104E60009DED0C0A20EE2E0A8DED0C0A9DED0C0A2C
:104E7000B5EEC00AF1EE10FA01DD012000E00020DD
:104E800006469DED0C0ADDED0D0A9FEDB91A11EEF7
:104E9000200AB5EEC00AF1EE10FA01DD012000E0B3
:104EA000002007469DED0C0ADDED0D0A9FEDB21ABC
:104EB00011EE200AB5EEC00AF1EE10FA01DD012074
:104EC00000E0002080464FEA880040EA4700304377
:104ED000C5B2DDED0CCA9DED0D0ADFEDA80A20EE8E
:104EE000200ADDED0C0AB6EE001AF0EE40DA41EED3
:104EF00020DA9DED0D0ADFEDA20A20EE200ADDED9D
:104F00000C0AB6EE001AB0EE40EA01EE20EA9FED80
:104F10009DBADFED9CBA072D2FD2DFE805F02E04F5
:104F20000910171E2500B0EE4EBAF0EE6DBA24E05F
:104F3000B0EE6DBAB1EE6C0AF0EE40BA1DE0B1EE23
:104F40004E0AB0EE40BAF0EE6CBA16E0B1EE6C0A62
:104F5000B0EE40BAF0EE4EBA0FE0B0EE6CBAB1EE81
:104F60006D0AF0EE40BA08E0B1EE6D0AB0EE40BA5C
:104F7000B1EE4E0AF0EE40BA00BF00BF7BEE2B0A46
:104F8000A08800EE100AB8EE400AF4EEC00AF1EE76
:104F900010FA13DDA08800EE900AF8EE600A3BEEEE
:104FA0002B1AC0EE811AB0EE610A6BEE000AB0EE69
:104FB00060BA6BEE800AF0EE60BA00BFA08800EE27
:104FC000100AB8EE400A30EE4B0A30EE6B0AF5EEEE
:104FD000000A60EE209AB6EE000AB0EE69AA00EE72
:104FE0000BAAB6EE000AF0EE4AAA40EE2BAA072D55
:104FF0002FD2DFE805F02E040B1219202700B0EEA7
:105000004A8AF0EE698AB0EE6A9A30E0B0EE698AB8
:10501000F0EE6A8AB0EE4A9A29E0B0EE698AF0EEC4
:105020004A8AB0EE6A9A22E0B0EE6A8AF0EE4A8AC4
:10503000B0EE699A1BE0B0EE6A8AF0EE698AB0EED3
:105040004A9A14E0B0EE4A8AF0EE6A8AB0EE699AA3
:105050000DE0A088C11700EB9171891000EE101AC5
:10506000B8EEC08AB0EE489AF0EE488A00BF00BFA2
:105070009FED450AB4EEC08AF1EE10FA02D29FED20
:10508000420A0BE09FED410AB4EEC08AF1EE10FA3D
:1050900002DD9FED3E0A01E0B0EE480AB0EE408A24
:1050A0009FED390AF4EEC08AF1EE10FA02D29FEDBC
:1050B000360A0BE09FED350AF4EEC08AF1EE10FAE5
:1050C00002DD9FED320A01E0B0EE680AF0EE408AA0
:1050D0009FED2D0AB4EEC09AF1EE10FA02D29FEDC8
:1050E0002A0A0BE09FED290AB4EEC09AF1EE10FAFD
:1050F00002DD9FED260A01E0B0EE490AB0EE409ACB
:105100008DED058ACDED068A8DED079A0020019080
:105110000290039004909DED050ABCEEC00A10EECB
:10512000100A1B49097801AA42F821009DED060AE0
:10513000BCEEC00A10EE100A1549497842F8210069
:105140009DED070ABCEEC00A10EE100A10498978DE
:1051500042F821000F4902980860091D0398086071
:10516000091D0498086010B0BDEC108BBDE8F081FB
:10517000D7B3DD3F3ACD133FD7B3DDBFD7B35D3FE4
:10518000D7B35DBF000000000000964300F08245E9
:105190001B000020342C014010B51E48FEF7CCFA4D
:1051A00000211C48FEF7F4FC04211A48FEF7F0FC2D
:1051B00008211848FEF7ECFC0C211648FEF7E8FC25
:1051C00000211448FEF7F4F904211248FEF7F0F923
:1051D00008211048FEF7ECF940F634000D49096843
:1051E00048630C49096888630A490968C863FBF782
:1051F000DBFC09480068406840F040000649096847
:1052000048607F210448FBF7CDFE0348FCF762FAB3
:1052100010BD0000700200207801002010B5FCF7DE
:105220009FFF10BD00B593B0382105A8FBF744F8E7
:1052300014216846FBF740F80020FDF761F80120D3
:1052400005900004069002200C9003210D91062188
:105250000E9154210F91022110911191129105A8E4
:10526000FDF7FAFB08B1FBF75DFE0F20009003206D
:105270000190002002900390049004216846FDF7FD
:105280008DFA08B1FBF74EFE13B000BD034800686D
:1052900040F47000014908607047000088ED00E0AC
:1052A00010B502682A4B98420BD0B0F1804F08D05D
:1052B000284B984205D0284B984202D0274B984261
:1052C00003D122F070024B681A43214B984214D04C
:1052D000B0F1804F11D01F4B98420ED01E4B984218
:1052E0000BD01E4B984208D01D4B984205D01D4B49
:1052F000984202D01C4B984203D122F44072CB68F2
:105300001A4322F080034C6943EA040202608B686E
:10531000C3620B6883620E4B98420BD00F4B9842CE
:1053200008D00F4B984205D00E4B984202D00E4B3E
:10533000984201D10B69036301234361036903F0C0
:1053400001031BB1036923F00103036110BD0000D9
:10535000002C0140000400400008004000340140DF
:1053600000400140004401400048014030B501F0D8
:105370001F05012404FA05F3046A9C430462046ACD
:1053800001F01F0502FA05F52C43046230BD30B56B
:1053900001F00F05042404FA05F3046A9C43046237
:1053A000046A01F00F0502FA05F52C43046230BDD2
:1053B00030B50C46816821F47F4142EA032525433C
:1053C0002943816030BD00000A468168034B1940C3
:1053D00042F0070319438160704700008FFFCFFF41
:1053E00030B5026A056A25F00105056243688469E3
:1053F000204D2C4024F003040D682C4322F00202BF
:105400008D682A431C4DA84200D10FE01B4DA842D5
:1054100000D10BE01A4DA84200D107E0194DA84277
:1054200000D103E0184DA84206D100BF22F00802C7
:10543000CD682A4322F004020F4DA8420BD00F4D35
:10544000A84208D00E4DA84205D00E4DA84202D069
:105450000D4DA84207D123F4807323F400734D69E6
:105460002B438D692B43436084614D684563026221
:1054700030BD00008FFFFEFF002C014000340140D2
:1054800000400140004401400048014030B5026A3C
:10549000056A25F01005056243688469224D2C4099
:1054A00024F440740D6844EA052422F020028D683B
:1054B00042EA05121D4DA84200D10FE01C4DA84242
:1054C00000D10BE01B4DA84200D100BF1A4DA842ED
:1054D00000D100BF194DA84207D106E022F080029A
:1054E000CD6842EA051222F04002104DA8420BD0CE
:1054F0000F4DA84208D00F4DA84205D00E4DA8422E
:1055000002D00E4DA84209D123F4806323F4006336
:105510004D6943EA85038D6943EA850343608461ED
:105520004D688563026230BDFF8FFFFE002C014095
:105530000034014000400140004401400048014067
:1055400030B5026A056A25F4807505624368C4694E
:10555000224D2C4024F003040D682C4322F40072E9
:105560008D6842EA05221E4DA84200D10FE01D4D74
:10557000A84200D10BE01C4DA84200D100BF1B4D3A
:10558000A84200D100BF1A4DA84207D106E022F47C
:105590000062CD6842EA052222F48062104DA842E2
:1055A0000BD0104DA84208D00F4DA84205D00F4D8A
:1055B000A84202D00E4DA84209D123F4805323F40F
:1055C00000534D6943EA05138D6943EA05134360AF
:1055D000C4614D68C563026230BD00008FFFFEFFED
:1055E000002C0140003401400040014000440140D3
:1055F0000048014030B5026A056A25F4805505620D
:105600004368C469224D2C4024F440740D6844EA78
:10561000052422F400528D6842EA05321D4DA8424D
:1056200000D10FE01C4DA84200D10BE01B4DA84259
:1056300000D100BF1A4DA84200D100BF194DA842A9
:1056400007D106E022F40042CD6842EA053222F496
:105650008042104DA8420BD00F4DA84208D00F4DEC
:10566000A84205D00E4DA84202D00E4DA84209D145
:1056700023F4804323F400434D6943EA85138D6985
:1056800043EA85134360C4614D680564026230BD1E
:10569000FF8FFFFE002C014000340140004001401C
:1056A000004401400048014030B5026A056A25F413
:1056B000803505624368046D114D2C400D682C4304
:1056C00022F400320D8942EA05420E4DA8420BD069
:1056D0000D4DA84208D00D4DA84205D00C4DA84252
:1056E00002D00C4DA84204D123F480334D6943EA23
:1056F0000523436004654D688564026230BD000087
:105700008FFFFEFF002C01400034014000400140AB
:10571000004401400048014030B5026A056A25F4A2
:10572000801505624368046D114D2C400D6844EAF4
:10573000052422F400120D8942EA05520D4DA842BB
:105740000BD00D4DA84208D00C4DA84205D00C4DF1
:10575000A84202D00B4DA84204D123F480234D6906
:1057600043EA8523436004654D68C564026230BD29
:10577000FF8FFFFE002C014000340140004001403B
:10578000004401400048014030B50B461446026A0F
:10579000056A25F001050562816921F0F00141EA01
:1057A000041122F00A021A438161026230BD30B551
:1057B0000B461446026A056A25F0100505628169E8
:1057C00021F4704141EA043122F0A00242EA0312BE
:1057D0008161026230BD00BFFEE700000248006840
:1057E000C0F30220704700000CED00E010B5002867
:1057F00004DB0A07130E054A135406E00A07140EC9
:10580000034A00F00F031B1FD45410BD00E400E056
:1058100018ED00E02DED020B019820F00040019002
:105820009DED000B02B0704710EE100AC0F3C75197
:105830007F391729A8BF7047DFED140A002970EEE1
:10584000200A0DDAF5EEC00AF1EE10FA1ADD002892
:10585000A8BF002016DAB0F1004F18BF0C4811E0C5
:105860000C4ACA40104208BF7047F5EEC00AF1EE7C
:1058700010FA07DD002804DA4FF4000323FA01F1DF
:105880000844904300EE100A70470000CAF24971C4
:10589000000080BFFFFF7F0010B52DED028BB1EE41
:1058A000C08A18EE100A20F00040C0F1FF40C00F7F
:1058B0000AD010EE100A20F00040C0F1FF40C00FE7
:1058C00004BF0120FAF727FDB0EE480ABDEC028BB9
:1058D00010BDFCF751FCFFF7A5FCFEF78FFCFEF7AF
:1058E0007DFCFEF7F1FBFEF717FDFEF7EDFCFFF781
:1058F00053FC00BFFEE7000010B52A492A48FAF71A
:1059000097FE2A48FBF760FA2949081FFBF70EFBB0
:1059100028484078012843D12648807801283FD183
:105920002448007850B140F63400234909684863A0
:1059300021490968886320490968C863FEF788FD22
:105940001C48C07960BB01201A49C8711B4890ED02
:105950000B0ADFED1B0A20EE200AD0ED030A20EE31
:10596000200A1348143880ED000A144890ED0B0A01
:10597000DFED130A20EE200AD0ED040A20EE200A03
:10598000DFED100A80EE201A0948143880ED011A64
:105990009FED0D0A80ED080A9FED0B0A80ED090AC4
:1059A00010BD00001000002080000020B00000208A
:1059B000FC000020000000207002002034000020C5
:1059C000DB0FC94000409C4600000000491058BF52
:1059D000C1F140415B1058BFC3F140438B42EFF32C
:1059E0000080704751EA030C17D41CF5801F58BF84
:1059F000BCF5801F00F10680994218BF704708BFB0
:105A00009042704707D711F5801F58BF13F5801FCC
:105A100019D499427047894270471CF5801F08D5F8
:105A2000BCF5801FF7D58B4218BF704708BF824274
:105A300070474FF4001C1CEB410F38BF1CEB430FA9
:105A400001D28B42704770B500F008F892244900EB
:105A50004FF000514FF08053FFF7B8BF0EF1020E28
:105A60002EF0030E5EF8046B364205D4012A43EB98
:105A7000030515F5001F12D8012841EB010C1CF598
:105A8000001F0CD80ED14FEAD17C15F5001F0CEB8E
:105A90004C0C0CF1020C08BF4CEBD37C04E04FF033
:105AA000080C01E04FEAD37C0CEB4C0526FA05F616
:105AB00006F00706B6F1040C06D20EEB860CBDE824
:105AC00070404CF0010C6047DFE80CF0090B02025B
:105AD0004FF000414FF00000A1F5002170BD1946C4
