:020000040800F2
:10000000280900207902000819370008B7320008D3
:10001000A5360008A10800083346000800000000CB
:10002000000000000000000000000000993D0008F2
:10003000C909000800000000DD390008254100085A
:10004000930200089302000893020008930200083C
:10005000930200089302000893020008930200082C
:10006000930200089302000893020008930200081C
:10007000930200089302000893020008930200080C
:100080009302000800000000C50400089302000865
:1000900093020008930200089302000893020008EC
:1000A00093020008930200089302000893020008DC
:1000B00093020008930200089302000893020008CC
:1000C00093020008930200089302000893020008BC
:1000D00093020008930200089302000893020008AC
:1000E000930200089302000893020008930200089C
:1000F0009302000893020008930200080000000029
:1001000000000000930200080000000093020008B5
:100110009302000800000000930200089D410008BF
:10012000930200089302000893020008930200085B
:100130009302000800000000000000009302000885
:100140009302000893020008000000000000000075
:10015000000000000000000000000000000000009F
:1001600000000000000000000000000093020008F2
:1001700093020008000000000000000000000000E2
:1001800000000000930200080000000000000000D2
:10019000000000000000000000000000000000005F
:1001A0000000000000000000930200089302000815
:1001B0009302000893020008930200080000000068
:1001C0000000000093020008000000000000000092
:1001D000930200089302000800F002F800F03CF8D7
:1001E0000AA090E8000C82448344AAF10107DA4592
:1001F00001D100F031F8AFF2090EBAE80F0013F0A8
:10020000010F18BFFB1A43F001031847904D00007F
:10021000B04D0000103A24BF78C878C1FAD8520710
:1002200024BF30C830C144BF04680C607047000070
:100230000023002400250026103A28BF78C1FBD8EF
:10024000520728BF30C148BF0B6070471FB504F08C
:1002500091FA1FBD10B510BD00F06CF81146FFF704
:10026000F5FF04F04CFA00F08AF803B4FFF7F2FF50
:1002700003BC00F08DF8000009488047094800479A
:10028000FEE7FEE7FEE7FEE7FEE7FEE7FEE7FEE746
:10029000FEE7FEE704480549054A064B70470000A3
:1002A0008D410008D90100082803002028090020FA
:1002B00028050020280500204FF0000200B5134655
:1002C00094469646203922BFA0E80C50A0E80C5076
:1002D000B1F12001BFF4F7AF090728BFA0E80C5027
:1002E00048BF0CC05DF804EB890028BF40F8042B20
:1002F00008BF704748BF20F8022B11F0804F18BF8D
:1003000000F8012B704770477047704710B500F038
:1003100009F8006810BD10B5044600F003F8046049
:1003200010BD000000487047C4020020004870471C
:10033000C40200207546FFF7F9FFAE460500694686
:10034000534620F00700854618B020B5FFF7A2FFFE
:10035000BDE820404FF000064FF000074FF00008C6
:100360004FF0000B21F00701AC46ACE8C009ACE847
:10037000C009ACE8C009ACE8C0098D46704710B5AB
:100380000446AFF300802046BDE81040FFF76DBF84
:1003900001491820ABBEFEE72600020070470000AE
:1003A00080B59FED441A9FED443A20EE011AB0EE5D
:1003B000C11ABDEEC12AB8EEC22A31EE421A21EEB0
:1003C000031ABDEEC12A12EE102A02F1800E6FF35D
:1003D0005F2244F2987CC0F6000C02EE102A6FF304
:1003E0005F2E0CEB8203B8EE422A0CEB8E0231EE4C
:1003F000421A92ED002A92ED013A93ED004A93EDF4
:10040000015A9FED2E7A33EE426A74EE050A20EE11
:10041000877A76EE060A74EE041ADFED292A37EEA3
:10042000607AF0EE080A75EE211A26EE206A61EE77
:10043000A21A21EE077A36EE216A36EE076A21EE1D
:10044000066A24EE227A36EE476A21EE066A32EE1A
:10045000066A81ED006A35EE445A32EE036A26EEF2
:10046000226A35EE057A36EE476A32EE027A33EECC
:10047000073A25EE205A23EE223A21EE066A35EE9F
:10048000433A33EE063A21EE033A22EE222A32EEC6
:10049000032A21EE021A34EE011AB5EE400AB1EE3B
:1004A000412AF1EE10FAB8BFB0EE421A80ED001A00
:1004B00080BD00BF610B363B00000044DB0F49BC30
:1004C000DB0F493C014800F0EBBE00003401002086
:1004D00070B50446006881688268C1F3400112F07B
:1004E000010F28D039BB816801F00D01012914D119
:1004F0008168124A1140891C8160216803200860CC
:1005000001F09AFA054612E001F096FA401B022823
:100510000DD920688068C00709D0E06D40F0100058
:10052000E065206E40F001002066012070BD20686B
:100530008068C007E8D1002070BD0000C0FFFF7FC9
:10054000F8B50446002000902068816811F0010F82
:1005500041D18168214A11422ED18168D543294079
:10056000491C81601E48806800F0E07000020DD5D3
:100570001C481D490068B0FBF1F0401C00EB400036
:10058000800000E0401E00900028FBD101F054FAEA
:1005900006461BE0816811F0010F03D181682940F4
:1005A000491C816001F048FA801B02280ED920689E
:1005B0000068C043C00709D0E06D40F01000E0655E
:1005C000206E40F0010020660120F8BD206801681F
:1005D000C943C907DED10020F8BD00003F000080FC
:1005E0000003005028000020400D030070B5CA88A9
:1005F00000EE102AB8EE400ADFED740A744AB0EE3D
:10060000001A20EE200A0124724B80ED090AD2ED77
:10061000000A002270EE811AB4EEE10AF1EE10FA3F
:1006200001DD1C7010E070EEC10AB4EEE00AF1EEDC
:1006300010FA02D202251D7006E01D78012D01D0AE
:10064000022D01D11A705A700D8800EE105AF8EE82
:10065000400A9FED610A20EE801ADFED600A21EE6C
:10066000202A80ED002A4D8801EE105AB8EE411A7A
:1006700021EE001A21EE201A80ED011A898801EE80
:10068000901AF8EE611A21EE800A60EE200AC0EDA1
:10069000020A5978E9BB197801297DD002297BD05B
:1006A000058D44F620669FED4E0A4E49B54236D27E
:1006B00072EE401AF0EEE11A11EE902ADFED4A2AAE
:1006C000DFED4A1A8A4207DA90ED033A23EE223A26
:1006D00002EE213A80ED033A31EE402AB0EEC22A12
:1006E00012EE102A8A4207DA90ED042A22EE222A1C
:1006F00001EE212A80ED042A30EEC00AB0EEC00AD5
:1007000010EE102A8A4230DA90ED050A20EE220A15
:1007100000E02DE000EEA10A80ED050A25E0D0ED15
:10072000031A71EEC01AF0EEE11A11EE905A8D42E2
:1007300017DAD0ED041A71EEC01AF0EEE11A11EEDC
:10074000905A8D420DDAD0ED051A31EEC00AB0EEA6
:10075000C00A10EE105A8D4203DA1A7002855C70DE
:1007600003E00421197002855A70018D491C01852E
:10077000597801291DD190ED000AD0ED031A70EED1
:10078000611A90ED0B0A81EE802A80ED062AD0EDE9
:10079000041A31EE611A00E00BE0C1EE001AC0ED60
:1007A000071A90ED051A70EEC10A80EE801A80EDEE
:1007B000081A0F4982698A4207DDC2698A4204DD4C
:1007C000006A884201DD0320187070BD3333113C8C
:1007D0002C000020000000203333534000008039FB
:1007E0003333D33F9A99993E3333733FCDCC4C3D4D
:1007F0000000C04010B52DED048BB0EE408AB0EE85
:10080000609AB0EE000AB4EEC98A69EE008AF1EE91
:10081000499AF1EE10FA09D2B4EEE98AF1EE10FA33
:1008200004DBB0EE480ABDEC048B10BDB4EEC98AFF
:10083000F1EE10FA09DB39EE280AB4EEC80AF1EE3F
:1008400010FA02DD38EE680AEDE7B4EEE98AF1EE5F
:1008500010FA09D239EEE80AB4EEC80AF1EE10FA3D
:1008600002D838EE280ADEE778EE090A80EEA80AF8
:1008700003F0F0FEF0EE400AB0EE480A00EEE80A9F
:10088000B4EEC90AF1EE10FA02DB30EE680ACAE7EC
:10089000B4EEE90AF1EE10FAC5D230EE280AC2E74A
:1008A000FEE7000070B5354CB3EE080A0E2084ED6B
:1008B000000ADFED330A2071C4ED020ADFED310AD0
:1008C0009FED311AC4ED030A84ED041AC4ED060A43
:1008D000C4ED050ADFED2D0A42F2D002C4ED070A8D
:1008E000DFED2B0A2284C4ED090ADFED2A0A2A482B
:1008F000C4ED0A0A012181700221C17000214171F9
:1009000081712648DFED2B0A2D4D80ED050A02830B
:100910002348828080ED000A23489FED220A4FF48D
:10092000804280ED030A80ED040A80ED050AB6EEF0
:10093000000A80ED0B0A1D489FED1D0A028001711F
:1009400080ED050A9FED1C0AC0ED0B0A80ED090A37
:100950009FED1A0AC0ED0A0A85ED060AB0EE080AF4
:1009600003F0B0FED4ED000A9FED161A60EE810A86
:1009700080EE801A85ED071A70BD00002C00002063
:1009800000001042A69B443A85EBF13F00000000B6
:100990000AD7233C000048420000002058000020F5
:1009A000080000203333D33F74000020A40000204F
:1009B000D26F69412506813ECDCCCC3E7B143E40B2
:1009C000DC0000206666663F7047000070B5044694
:1009D0002DED028B02F0A6FC2179608080B200EE42
:1009E000900A94ED050A9FED3B1AF8EE600A3A482A
:1009F0009FED3A8A10EE810A84ED020A007900EE3A
:100A0000900AF8EE600A20EE200AF0EE480AFFF79E
:100A1000F1FE334D84ED030AA87860BB68780128A5
:100A200029D130489FED300AF7EE000AB0EE401AA7
:100A300003F01AFA208B44F62061884218D345F25D
:100A40000821884208D294ED040AD4ED020A30EE5F
:100A5000200A84ED040A0BE00120A87094ED040A3A
:100A6000DFED220A002080EE201A84ED051A208393
:100A700080B2401C2083E878012802D0022819D0D7
:100A80001CE094ED0A0AD4ED090A20EE200A84ED58
:100A90000B0AD4ED070A30EE800AF0EE480AFFF7A1
:100AA000A9FEDFED130A84ED070A20EE200A84ED8B
:100AB000080A03E094ED030A84ED070A94ED070A9F
:100AC00004F13401BDEC028B081FBDE87040FFF754
:100AD00067BC00000000B43C2C0000200000344340
:100AE00000000020080000200000000000007A4400
:100AF00034FA8E3C72B6FEE7F8B50026044600963E
:100B000090F858000D4601280BD0012084F85800B9
:100B10002046FFF7DDFC0100E06D04D040F010003E
:100B20002AE00220F8BD20F4885040F00200E06581
:100B300020688268134B1A4005F080431A4342F044
:100B400000428260104A20680EE0009B5B1C00930C
:100B5000934209D3E06D20F0020040F01000E06500
:100B600084F858600120F8BD8368DB0FEDD1E06D9B
:100B700020F0020040F00100E06584F8586008466B
:100B8000F8BD0000C0FFFF3F02DE04007047000018
:100B90002DE9F84F4FF000080446CDF800800D46CF
:100BA00094F85820DFF8EC93616947464046012AE3
:100BB0000AD00126F84A84F8586041B1296A01290F
:100BC00005D0A36EEBB129E00220BDE8F88F68687C
:100BD000092838D1A96A4FF4785041B12B6801F047
:100BE0007C0100EA53400843E96A084302E02968AF
:100BF00000EA51402168CB6C13400343CB6460662C
:100C000021E0C4E91971A96A286A31B101F07C01B7
:100C1000401E0843E96A084300E0401E29682B791A
:100C2000C1F3846103F01F0399400143A06E401E8D
:100C3000A066636E43EA0103636604D12068C16C59
:100C400011401943C164206802F040FB58B995F87F
:100C5000250098B12068C16895F8262021F440113C
:100C600041EA4251C160206802F038FB82462068A8
:100C700002F02CFB5AEA00000DD0FBE095F82600AC
:100C800095F82410400540EA01512068C26822F41A
:100C900040121143E6E7A86A30B1E86A20B195F83E
:100CA000250001285ED003E095F82500012804D036
:100CB0002068C16821F0007103E02068C16841F03C
:100CC0000071C16095F83000012852D02068016998
:100CD00021F002010161AA6829682068B2F1004F81
:100CE00038D002F007FB2068416921F000414161E2
:100CF00020686969C268C2F3C102520091402A6942
:100D0000042A44D000EB82002B68026EDFF88CC20C
:100D100003F0F84302EA0C020B431A4342F000418D
:100D2000016620682A69A96900EB8200026E22F040
:100D300080720A430266297F22682869012923D02C
:100D40005FF0000102EB8000026E22F000720A43A5
:100D500002668FE0002202F0CDFA2068416941F07E
:100D60000041C4E7E06D40F02000E0654FF001086D
:100D7000A8E7D5E90D1001432068026922F4FF724B
:100D800042F002021143A5E74FF00071DAE70021BB
:100D900002F092FA400320684FF0000172D002F096
:100DA0008BFA90FAA0F0B0FA80F1286842036ED076
:100DB00090FAA0F0B0FA80F0814204D100221146EE
:100DC000206802F0A6FA0121206802F075FA4003BB
:100DD00020684FF001015DD002F06EFA90FAA0F0A9
:100DE000B0FA80F12868420359D090FAA0F0B0FA26
:100DF00080F0814204D100220121206802F089FAAA
:100E00000221206802F058FA400320684FF00201E6
:100E100048D002F051FA90FAA0F0B0FA80F12868B8
:100E2000420344D090FAA0F0B0FA80F0814204D19D
:100E300000220221206802F06CFA0321206802F0EF
:100E40003BFA400320684FF0030133D002F034FA3C
:100E500090FAA0F0B0FA80F1286842032FD090FAFF
:100E6000A0F0B0FA80F0814204D100220321206872
:100E700002F04FFA2068816811F0010F22D0B6E02D
:100E800000E004E002F018FAC0F384618DE7C0F3DB
:100E9000846091E702F010FAC0F38461A2E7C0F326
:100EA0008460A6E702F008FAC0F38461B7E7C0F3F4
:100EB0008460BBE702F000FAC0F38461CCE7C0F3C2
:100EC0008460D0E72A7B296850F8B03FC1F3120C48
:100ED00023EA0C0302F0180C314A22FA0CF20A4001
:100EE00013430360E96849457ED1286841031CD05B
:100EF00090FAA0F1B1FA81F1491C01F01F01092912
:100F00004FEA403132D8002912D000BF90FAA0F148
:100F1000B1FA81F101F1010101F01F0106FA01F6B8
:100F200009D100BFC0F3846109E0C0F38461E3E745
:100F3000C0F38461EEE790FAA0F1B1FA81F101F11A
:100F4000010101F01F0146EA816102D1C0F3846012
:100F500003E090FAA0F0B0FA80F000F1010000F098
:100F60001F0000EB400041EA00513AE000290ED09A
:100F700090FAA0F1B1FA81F101F1010101F01F0134
:100F800006FA01F60ED100BFC0F384610EE0C0F393
:100F90008461F1E700007F400040100400F0FF038F
:100FA000FFFF070090FAA0F1B1FA81F101F1010110
:100FB00001F01F0146EA816102D1C0F3846003E0C1
:100FC00090FAA0F0B0FA80F000F1010000F01F00EC
:100FD0002B4A00EB400002EB005041EA000141F0D7
:100FE0000071AA68206800E001E002F083F925485A
:100FF0002A68024240D024488168244B01F0E07105
:101000009A4202D0224B9A421BD10B0219D4226879
:10101000B2F1A04F30D1826841F4000122F0E072B9
:101020000A4382601B481C490068B0FBF1F0801C39
:1010300000EB4000800000E0401E00900028FBD143
:101040001AE0164D164BAA4207D1CD0105D42268ED
:101050009A4211D041F0807109E0124DAA420BD1A1
:101060004A0209D422689A4206D041F4800182687B
:1010700022F0E0720A43826084F858704046A4E58A
:10108000000020FE0000088000030050000021C383
:101090001000C09028000020400D0300000052C73F
:1010A00000010050000084CB0168D1F8802008497D
:1010B0000A800268D2F884204A800268D2F8882028
:1010C0008A800068D0F88C00C88003F029BB00003B
:1010D00010000020704700002DE9F041044635481B
:1010E000806800F01F05206802F0F0F808BB216856
:1010F000C868C96C00F0004011F4C07F00D190B105
:1011000094F85800012814D0012084F85800204693
:10111000FFF716FA02004FF000030CD084F85830A5
:101120001046BDE8F081E06D40F02000E065012050
:10113000F7E70220F5E7E06DC00504D5206E20F04A
:101140000800206600E02366E06D42F2010188435A
:1011500040F48050E065184F21684FF0A046B94236
:1011600001D1304600E00846884200D01DB9E06D4C
:1011700020F48010E0656020086084F85830206812
:10118000B84200D00646864209D045B1062D06D0A9
:10119000072D04D0E06D40F48010E065C0E7C16821
:1011A00011F0007FBCD18168044B194041F0080167
:1011B0008160B5E70003005000010050C0FFFF7FD1
:1011C000704770472DE9F047044690F858009CB0EE
:1011D0000E464FF00009012815D0012084F8580070
:1011E00000251795189520684FF0A04840450ED16E
:1011F000284F0097384602F071F88246206802F0C6
:101200006DF860B10EE002201CB0BDE8F087E06D23
:1012100040F02000E06584F858500120F4E7BAF16E
:10122000000F09D0E06D40F02000E0654FF00109AB
:1012300084F858504846E7E71748326840F61F716F
:10124000002A826822F4604216D094F8383042EACC
:10125000433273681A438260D8F80820BB6802F0F2
:10126000010203F001031A43E2D1B36832681A4362
:1012700083688B431A430BE08260D8F80820BB6870
:1012800002F0010203F001031A43D1D182688A43BC
:101290008260CDE7000100500003005070477047A6
:1012A0002DE9F05F0446006806684568DFF854B22F
:1012B000DBF8080000F01F07B0070ED5A8070CD513
:1012C000E06DC00603D4E06D40F40060E0652046A8
:1012D000FFF75CFC216802200860DFF82CA2700791
:1012E0004FF0A04801D5680703D4300737D5280749
:1012F00035D5E06DC00603D4E06D40F40070E065C4
:10130000206801F0EFFF20B32068504501D142462C
:1013100000E00246824208D03FB1052F05D0092FD8
:1013200003D0504503D1414602E0C16801E00146C7
:10133000C96889040DD4016809070AD501F0CAFFFC
:1013400058B3E06D40F01000E065206E40F0010001
:1013500020662046FFF7A2FF21680C200860B00637
:1013600001D5A80603D4700658D5680656D5E06D99
:10137000C00603D4E06D40F40050E0652068C16C05
:1013800011F4C07F1AD00021894601F0ABFF02465C
:101390002068504514D1434613E02068416821F08D
:1013A0000C014160E06D20F48070E065E06DC004E8
:1013B000CFD4E06D40F00100E065CAE70121E3E72A
:1013C0000346834208D03FB1062F05D0072F03D034
:1013D000504503D1414602E0C16801E00146C968B9
:1013E000B9F1000F14D08B0102D58AB18A040FD451
:1013F000026852060CD589020AD401F063FFE8B3F3
:10140000E06D40F01000E065206E40F001002066C5
:101410002046FFF749FE21686020086030060BD5A2
:10142000280609D5E06D40F48030E065204600F0E4
:1014300067F9216880200860F0050CD5E8050AD519
:10144000E06D40F40030E0652046FFF7B9FE21680A
:101450004FF480700860B0050CD5A8050AD5E06D82
:1014600040F48020E0652046FFF7ABFE21684FF492
:1014700000700860F0062ED5E80600E008E02AD5E6
:10148000E06BD0B1AFB1DBF8080000F4604013E0CE
:101490002068416821F060014160E06D20F48050D7
:1014A000E065E06DC005B3D4E06D40F00100E0659B
:1014B000AEE72068C068C00750B1E06D40F48060BE
:1014C000E065206E40F0020020662046FFF7E7FE50
:1014D000216810200860700512D5680510D5E06DF0
:1014E00040F48040E065206E40F0080020662168EE
:1014F0004FF4806008602046BDE8F05FFFF7EABD6A
:10150000BDE8F09F0003005000010050F8B54FF017
:10151000000504002E46009502D0E06D10B107E0F2
:101520000120F8BD204600F0EDF8266684F85860EA
:1015300020688168C1F3407119B18168684A11401F
:10154000816020688168C1F3007189B98168654A4A
:10155000114041F080518160634864490068B0FBEC
:10156000F1F04000801C00E0401E00900028FBD1FC
:1015700020688168C1F3007141B9E16D41F010014B
:10158000E165216E41F001012166012501F0A2FE15
:10159000E16DC90600D430B1E06D40F01000E065A7
:1015A00001252846F8BDE06D20F4807040F002006F
:1015B000E0652068806810F0010F11D14FF0A04065
:1015C00080684B4900F00100896801F0010108437F
:1015D00006D148486168826822F47C120A4382601E
:1015E000E168E06B627F0843A16841EA4231084349
:1015F00094F8241040EA0140012904D1218D3E4A8B
:1016000002EB41410843E16A29B101F47871226B90
:10161000014342EA01002268D168384B1940014376
:10162000D16020680169626B21F040611143016162
:10163000206801F047FE70BB207F94F838108003CB
:1016400040EA41022168C86844F20203984310430B
:10165000C86020690028206801690AD041F48031FF
:101660000161206850F8C01F22696FF30D0111431A
:1016700007E021F480310161206850F8C01F6FF34A
:101680000D01016094F8400001280CD02068016928
:1016900021F001010161606901282068016B21F0DE
:1016A0000F0111D013E0D4E911010843D4E913125A
:1016B0001143084321680A6940F2FC739A431043BE
:1016C00040F001000861E6E7226A521E11430163FF
:1016D000E06D20F0020040F00100E06561E70000ED
:1016E000C0FFFF5FC0FFFF7F28000020400D030008
:1016F00000010050000300500000FEFF0740F0FF13
:101700007047000010B598B00446142111A8FEF7E8
:10171000D3FD44216846FEF7CFFD2068B0F1A04F0D
:101720002ED14FF40040009080030F90684600F0E7
:10173000A3FA08B1FFF7DEF91248C16C41F4005179
:10174000C164C16C01F400511691C16C41F00101FA
:10175000C164C06C11A900F0010016900F20119017
:1017600003201290002013904FF0904000F03AF8C0
:1017700000221146122000F0E7F9122000F0D6F9FD
:1017800018B010BD0010024070B5040004D094F8E9
:101790002100002510B106E0012070BD84F8205022
:1017A000204600F00BF865626560A560E560256184
:1017B0000120656184F82100002070BD08B5006833
:1017C0000649884208D10648816C41F008018164CD
:1017D000806C00F00800009008BD0000000C024082
:1017E000001002402DE9F04FDFF82092002301267F
:1017F0000324A9F1040B85B00F2709F1040AABF10A
:10180000040EFAE006FA03F52A407CD091F804C0F1
:101810000CF0030CBCF1010F02D0BCF1020F26D179
:10182000D0F808C0CDF800C04FEA430C04FA0CF819
:10183000CDF810C0DDF800C02CEA080CCDF800C0CF
:10184000D1F80C80DDF810C008FA0CF8DDF800C003
:1018500048EA0C08C0F80880D0F804C02CEA050C4F
:101860000D79C5F300159D4045EA0C0545600D79DD
:10187000ED43AD070ED0C5684FEA430804FA08FCF3
:1018800025EA0C05D1F808C00CFA08FC4CEA050C56
:10189000C0F80CC00D7905F00305022D16D1DD0846
:1018A00000EB850CCDF808C0DCF820805D074FEA1E
:1018B000D56C07FA0CF528EA05080D6905FA0CF550
:1018C000DDF808C045EA0805CCF8205005684FEA65
:1018D000430CCDF808C004FA0CFC25EA0C0591F87D
:1018E00004C00CF00308DDF808C008FA0CF848EA58
:1018F0000508C0F800804D6815F4403F7CD0444D89
:10190000D5F860C000E077E04CF0010CC5F860C08D
:101910002D6E23F0030C05F0010500953D4D654447
:101920000295AD684FEA837C4FEA1C7807FA08FC01
:1019300025EA0C05B0F1904F06D0DFF8DCC0604519
:1019400005D14FF0010C20E04FF0000C1DE0DFF856
:10195000CCC0604502D14FF0020C16E0DFF8C0C0E9
:10196000604502D14FF0030C0FE0DFF8B8C06045CE
:1019700002D14FF0040C08E0DFF8ACC0604502D1A2
:101980004FF0050C01E04FF0060C0CFA08FC4CEA95
:10199000050C029DC5F808C0D9F80050CC46D1F816
:1019A000048095435FEAC82800D51543CCF8005061
:1019B000DAF80050D446D1F8048095435FEA8828CD
:1019C00000D51543CCF80050DBF80050DC46D1F8C8
:1019D000048095435FEA883800D51543CCF8005061
:1019E000DEF80050F446D1F8048095435FEAC83829
:1019F00000D51543CCF800505B1C0A6832FA03F599
:101A00007FF400AF05B0BDE8F08F0000080401408E
:101A10000010024000000140000400480008004897
:101A2000000C004800100048001400480AB1816111
:101A3000704781627047000001488068704700006D
:101A40001C00002002488168426811448160704790
:101A50001C00002010B50024032000F095F80F2092
:101A600000F008F808B1012401E000F047F8204632
:101A700010BD000030B505461B4887B0816D41F0B0
:101A800020018165806D06A900F02000009001A86A
:101A900000F024FB00F042FB1449154AB0FBF1F1C1
:101AA0001448491E0260416040F2E7320021C0E95B
:101AB0000321816001F05DF8040012D10D4801F0AE
:101AC000D3F804000DD1372000F030F8102D07D2E4
:101AD00000222946372000F037F80748056000E06B
:101AE000012407B0204630BD0010024040420F00E4
:101AF00000140040780200201C0000200A4882B038
:101B0000016E41F001010166016E01F001010091D9
:101B1000816D41F080518165806D00F080500090B2
:101B200002B000F0A1B8000000100240002809DB5C
:101B300000F01F02012191404009800000F1E020E7
:101B4000C0F8001170470000F0B40E4B1B680C4643
:101B5000C3F30223C3F10705042D00D90425191D81
:101B6000072901D2002300E0DB1E012606FA05F159
:101B7000491E214099409E40761E16403143F0BCDC
:101B800002F058BD0CED00E0064900F007020868BD
:101B90004FF6FF03184040EA0220034A1043086052
:101BA000704700000CED00E00000FA052B492C4BBB
:101BB0000A6832214A432B4940B1B0F5007F0868DA
:101BC00029D020F4C06040F480602CE00868C0F3A5
:101BD0004120022804D051F8800F20F4807022E0C8
:101BE000D1F8800020F48070C1F88000086820F4EB
:101BF000C06040F400700860B2FBF3F0401C00E0ED
:101C0000401E4A69520501D50028F9D148694005AE
:101C10000AD503207047C0F34120022806D051F8AE
:101C2000800F40F48070086000207047D1F8800079
:101C300040F48070C1F88000086820F4C06040F46F
:101C400000700860B2FBF3F0401C00E0401E4A69DF
:101C50005205DBD50028F9D1D8E700002800002084
:101C600040420F00007000400248816841F480410A
:101C700081607047007000402DE9F8430446006819
:101C800000269D4D00035ED5A86D0027C00008D436
:101C9000A86D40F08050A865A86D012700F0805025
:101CA0000090DFF85892D9F8001041F48071C9F81B
:101CB0000010FFF7C1FE804606E000BFFFF7BCFE44
:101CC000A0EB080002282BD8D9F80000C005F5D5F4
:101CD000D5F8900010F4407014D0216C814211D0DE
:101CE000D5F89000D5F8901020F4407041F4803180
:101CF000C5F89010D5F8901021F48031C5F89010F7
:101D0000C5F89000C00711D0FFF796FE804641F25B
:101D1000883907E0FFF790FEA0EB0801494501D99B
:101D200003260BE0D5F890008007F3D5D5F8900096
:101D3000216C20F440700843C5F890001FB1A86DD5
:101D400020F08050A8652078C00707D0D5F888001B
:101D5000616820F003000843C5F8880020788007F8
:101D600007D5D5F88800A16820F00C000843C5F815
:101D700088002078400707D5D5F88800E16820F072
:101D800030000843C5F888002078000707D5D5F84B
:101D90008800216920F0C0000843C5F88800207839
:101DA000800607D5D5F88800616920F440600843B3
:101DB000C5F888002078400607D5D5F88800A169C5
:101DC00020F440500843C5F888002078000607D565
:101DD000D5F88800E16920F440400843C5F8880040
:101DE0002088C00507D5D5F88800216A20F4403046
:101DF0000843C5F888002088800507D5D5F88800F5
:101E0000616A20F440200843C5F888002088400516
:101E10000FD5D5F88800A16A20F440100843C5F812
:101E20008800A06AB0F5801F03D1E86840F48010F4
:101E3000E860208800050FD5D5F88800E16A20F415
:101E400040000843C5F88800E06AB0F5800F03D170
:101E5000E86840F48010E8602088C0040FD5D5F809
:101E60008800216B20F040700843C5F88800206B83
:101E7000B0F1807F03D1E86840F48010E8602088EA
:101E80004FF0006180040ED5D5F88800626B20F019
:101E900040601043C5F88800606B884203D1E86851
:101EA00040F48010E860208840040ED5D5F8880002
:101EB000A26B20F040601043C5F88800A06B8842F8
:101EC00003D1E86840F48010E860208800040FD552
:101ED000D5F88800E16B20F040500843C5F8880031
:101EE000E06BB0F1805F03D1E86840F48030E860D7
:101EF0003046BDE8F883000000100240007000404A
:101F00002DE9F0470E4605004FF0000725D0DFF819
:101F1000AC81D8F8000000F00F00B0420CD2D8F825
:101F2000001021F00F013143C8F80010D8F800006C
:101F300000F00F00B04210D12968614CC80741F28F
:101F4000883A5AD06868DFF87C91032808D00228C4
:101F500020682DD0400500282CDB0120BDE8F0874B
:101F600020688001F9D5E06800F00302E068C0F362
:101F70000310401C032A19D0534A00BFB2FBF0F0F3
:101F8000E268C2F306225043E268C2F34162521C87
:101F90005200B0FBF2F0484517D9A06810F0F00FDE
:101FA0000CD0880711D5A86840B10EE0474AE5E794
:101FB0008003D0E700F0C4F8484506D9A06820F0B7
:101FC000F00040F08000A0608027A068696820F0E1
:101FD00003000843A060FFF72FFD814606E000BF25
:101FE000FFF72AFDA0EB090151453AD8A0686968BE
:101FF00000F00C00B0EB810FF2D12868810714D5F6
:10200000400703D5A06840F4E060A060287800078E
:1020100005D5A06820F4605040F4E060A060A0689E
:10202000A96820F0F000084304E0802F03D1A068E5
:1020300020F0F000A060D8F80010404601F00F0139
:10204000B14216D9016821F00F0131430160FFF759
:10205000F3FC074607E000BFFFF7EEFCC11B51454C
:1020600001D903207AE7D8F8000000F00F00B04251
:10207000F2D12878400705D5A068E96820F4E0602F
:102080000843A0602878000706D5A068296920F4D5
:10209000605040EAC100A06000F052F8A1680C4A0C
:1020A000C1F30311515C01F01F01C84009490860E8
:1020B00009480068BDE8F047FFF7DCBC002002409B
:1020C0000010024000B4C4040024F40000366E0185
:1020D00080470008280000201C0000200F2202601A
:1020E0000C4A936803F003034360936803F0F00322
:1020F0008360936803F4E063C36092684FF4E06325
:1021000003EAD20202610448006800F00F00086090
:1021100070470000001002400020024005480649B8
:1021200000688968054AC1F30221515C01F01F0172
:10213000C840704728000020001002409047000867
:10214000184910B58868C0F381021748012A0BD0DE
:102150008A68164BC2F38102022A06D08A68C2F34B
:102160008102032A03D0002010BD184610BDCA68A2
:1021700002F00304CA68C2F30312521C032C02D0FB
:10218000B0FBF2F001E0B3FBF2F0CA68C968C2F339
:1021900006225043C1F34161491C4900B0FBF1F0F4
:1021A00010BD0000001002400024F40000366E0153
:1021B0002DE9F84304007AD02078F84DC00747D0C5
:1021C000A868E96800F00C0001F003010C2802D0B7
:1021D000082817D001E0032914D06068B0F5803FCB
:1021E00017D0B0F5A02F286817D020F480302860D1
:1021F000286820F4802028606068E0B1FFF71CFCAC
:10220000064614E02868800322D560680028D2D0F2
:102210001EE0286840F48030EDE740F4802028601C
:10222000F7E700BFFFF708FC801B642870D8286818
:102230008003F7D50CE0FFF7FFFB064605E000BF83
:10224000FFF7FAFB801B6428F0D828688003F7D4D6
:10225000207880074CD5A868E96800F00C0001F0F0
:1022600003010C2802D004280DD001E002290AD075
:10227000E068002828682BD040F480702860FFF7C1
:10228000DBFB064619E02868400502D5E068002817
:1022900091D06868217C20F0FE4040EA01606860CF
:1022A000BF480068FFF7E6FB002800D120E072E19C
:1022B000FFF7C2FB801B0228B8D828684005F7D575
:1022C0006868217C20F0FE4040EA016068600FE011
:1022D00020F480702860FFF7AFFB064605E000BFE2
:1022E000FFF7AAFB801B0228A0D828684005F7D476
:1022F0002078000729D560690028D5F8940013D00C
:1023000040F00100C5F89400FFF796FB064606E092
:1023100090E000BFFFF790FB801B022886D8D5F81D
:1023200094008007F6D510E020F00100C5F8940075
:10233000FFF782FB064604E0FFF77EFB801B0228C6
:1023400078D8D5F894008007F6D42078400761D576
:10235000A86D0026C00008D4A86D40F08050A86584
:10236000A86D012600F0805000908E480168C905D4
:1023700011D40168804641F480710160FFF75CFB75
:10238000074604E0FFF758FBC01B022852D8D8F8D4
:102390000000C005F6D5A068012815D00528D5F89D
:1023A000900016D020F00100C5F89000D5F89000FC
:1023B00020F00400C5F89000A06841F28838B8B158
:1023C000FFF73AFB07460EE0D5F8900040F0010019
:1023D000F0E740F00400C5F89000F5E7FFF72CFBAC
:1023E000C11B414526D8D5F890008007F6D50CE0F2
:1023F000FFF722FB074604E0FFF71EFBC11B414528
:1024000018D8D5F890008007F6D41EB1A86D20F03A
:102410008050A8652078800629D5A0690028D5F8C5
:10242000980013D040F00100C5F89800FFF704FBB6
:10243000064606E075E000BFFFF7FEFA801B0228A3
:102440006FD8D5F898008007F6D510E020F001008D
:10245000C5F89800FFF7F0FA064604E0FFF7ECFA3B
:10246000801B02285DD8D5F898008007F6D4E06973
:10247000F0B3A968C1F3810103295DD0022828685F
:1024800020F08070286003D0FFF7D6FA04464BE0B6
:10249000FFF7D2FA064604E0FFF7CEFA801B0228C7
:1024A0003FD828688001F7D4F4E908016FF00F02E3
:1024B00002EB01110843218A5204490802EB415101
:1024C000A26841EA02210843217D4FF07E4249087B
:1024D00002EB41610843217B40EAC160E968324A6E
:1024E00011400843E860286840F08070286000E0F0
:1024F0005EE0E86840F08070E860FFF79DFA04460F
:1025000005E000BFFFF798FA001B022809D82868E9
:102510008001F7D54CE000BFFFF78EFA001B0228C0
:1025200002D90320BDE8F88328688001F4D4E86864
:102530001E490840E8603BE00128F3D0E868226AC1
:1025400000F00301914226D1616A00F0F002090116
:10255000103991421FD1A26A00F4FE41B1EB022F63
:1025600019D194F82C2000F07841B1EBC26F12D150
:10257000218E00F4C00249084905A1F500119142DD
:1025800009D194F8341000F0C06049084906A1F15F
:10259000007181420CD00120C4E70000001002400D
:1025A0001C000020007000400C809F01FCFFEEFE2C
:1025B0000020B7E770B5040009D0606A002540B17B
:1025C00025616561A56294F85D0040B10CE00120D1
:1025D00070BD6068B0F5827FF4D0E561F2E784F801
:1025E0005C50204600F05CF8022084F85D00206812
:1025F000016821F040010160E1684FF4E06291421E
:1026000001D9002001E04FF48050B1F5706F02D085
:10261000914200D0A562A188228901F4827102F45E
:1026200004421143227C02F002021143227D02F097
:1026300001021143228B02F400721143227F02F047
:102640003802114394F8202002F080021143228DB9
:1026500002F40052114322681160A169042202EAC7
:10266000114194F8242000F4805002F0100211432C
:1026700094F8342002F008021143A28902F4706237
:1026800011430143206841602068C16921F4006161
:10269000C1612566012084F85D00002070BD000046
:1026A00010B586B0044614216846FDF705FE1349AF
:1026B000206888421FD11248016E41F480510166A2
:1026C000016E01F480510591C16C41F00101C164BA
:1026D000C06C694600F001000590E02000900220E7
:1026E00001900020029003200390052004904FF0F9
:1026F0009040FFF777F806B010BD000000300140B1
:10270000001002402DE9FF5F044690F85C000026AF
:102710000E9F1D4693464FF0010901280FD04FF040
:10272000010A84F85CA0FFF787F9804694F85D0001
:10273000616801280DD0B1F5827F08D103E0022045
:1027400004B0BDE8F09FA16809B9042801D00226B1
:1027500009E10198002876D0BBF1000FFBD0002DD5
:10276000F9D094F85D00042802D0052084F85D00BB
:1027700000202066C4F840B0A4F84650A4F84450A5
:102780000199A163E587A587E0642065E0684FF4BF
:10279000E061884201D8012D04D92068426822F402
:1027A000805203E02068426842F480524260206810
:1027B0000268520603D4026842F040020260E068F8
:1027C0008842606848D908B1012D3DD1A06B2168CD
:1027D0000088C860A06B801CA063E08F401EE0876B
:1027E00032E02068816889070FD5E18F69B1B9F1BE
:1027F000010F0AD1A16B0988C160A06B801CA06386
:10280000E08F401EE0874FF0000920688168C9070B
:102810000FD0B4F8461061B1C068216C0880206CFC
:10282000801C2064B4F84600401EA4F846004FF017
:102830000109FFF701F9A0EB0800B84204D3781CA6
:1028400002D003268DE08AE0E08F0028C9D1B4F8D9
:1028500046000028C5D177E008B1012D6DD1E08F89
:102860000128A06B08D921680088C860A06B801C73
:10287000A063E08F801E07E0216800780873A06BDA
:10288000401CA063E08F401EE08756E0206881680E
:1028900089071AD5E18FC1B1B9F1010F15D1E18FC7
:1028A0000129A16B07D90988C160A06B801CA063B6
:1028B000E08F801E06E009780173A06B401CA063C6
:1028C000E08F401EE0874FF0000920688168C9074B
:1028D00028D0B4F8461029B3B4F84610012914D909
:1028E000C068216C0880206C801C2064B4F846000D
:1028F000801EA4F84600B4F84600012810D82068CD
:10290000416841F4805141600AE0007B216C08700D
:10291000206C401C2064B4F84600401EA4F8460019
:102920004FF00109FFF788F8A0EB0800B84202D386
:10293000781C02D085E7002F83D0E08F0028A5D136
:10294000B4F846000028A1D142463946204601F09D
:1029500033F910B1012620202066206E08B101262F
:1029600001E084F85DA0002084F85C003046E7E6D2
:10297000704770477047000030B590F83C20012A3E
:1029800042D0012280F83C20CA688B6822F4407251
:102990001A434B6822F480621A430B6822F40062E7
:1029A0001A430B6922F480521A434B6922F40052F5
:1029B0001A430B6B22F480421A430B8B22F47022D1
:1029C00042EA0342CB6922F080521A430F4D03685A
:1029D0000024AB4202D00E4DAB4210D10D8D22F43B
:1029E000700242EA05520D6A22F080722A434D6A53
:1029F00022F000722A43C96A22F000520A435A6444
:102A000080F83C40002030BD022030BD002C014049
:102A1000003401407047704770470000F0B590F8EF
:102A20003C20012A3AD0012580F83C50022280F84F
:102A30003D2003685A689C68194E1A4FB34201D072
:102A4000BB4204D122F4700C4A6842EA0C02DFF85F
:102A500058C002EA0C02D1F800C04CEA020CC3F8DC
:102A600004C00268B2420DD0B2F1804F0AD00F4BC1
:102A70009A4207D00E4B9A4204D0BA4202D00D4B74
:102A80009A4204D1896824F080031943916080F848
:102A90003D50002180F83C100846F0BD0220F0BDFA
:102AA000002C0140003401408FFFFFFD0004004076
:102AB000000800400040014010B50446022249B120
:102AC00004290ED0082913D094F84700012816D005
:102AD000012010BD94F844000128F9D184F8442065
:102AE0000FE094F845000128F2D184F8452008E071
:102AF00094F846000128EBD184F8462001E084F8E0
:102B000047200422206801F0BAFB2068416C41F4A0
:102B1000004141641049206888420ED0B0F1804FD6
:102B20000BD00E49884208D00D49884205D00D4986
:102B3000884202D00C49884207D181680B4A114073
:102B4000062906D0B1F5803F03D0016841F00101AC
:102B50000160002010BD0000002C01400004004076
:102B6000000800400034014000400140070001001F
:102B7000704710B5040003D094F83D0010B107E091
:102B8000012010BD002084F83C00204600F022F80F
:102B9000022084F83D00211D206801F005FB012082
:102BA00084F8480084F83E0084F83F0084F8400030
:102BB00084F8410084F8420084F8430084F844001B
:102BC00084F8450084F8460084F8470084F83D0006
:102BD000002010BD08B500680649884208D10648A3
:102BE000016E41F400610166006E00F40060009027
:102BF00008BD0000002C01400010024090F83D107C
:102C0000012901D001207047022180F83D100068A1
:102C10000F4988420ED0B0F1804F0BD00D49884249
:102C200008D00D49884205D00C49884202D00C4991
:102C3000884207D181680B4A1140062906D0B1F5B8
:102C4000803F03D0016841F001010160002070471E
:102C5000002C014000040040000800400034014006
:102C6000004001400700010090F83D10012901D00B
:102C700001207047022180F83D100168CA6842F0C7
:102C80000102CA600068104988420ED0B0F1804F3E
:102C90000BD00E49884208D00D49884205D00D4915
:102CA000884202D00C49884207D181680B4A114002
:102CB000062906D0B1F5803F03D0016841F001013B
:102CC0000160002070470000002C0140000400401B
:102CD00000080040003401400040014007000100AE
:102CE00070B5044690F83C000025012814D0012658
:102CF00084F83C60022084F83D0022689068364BDE
:102D0000184020F47F409060086870282ED010DCB6
:102D100010F00F0F03D021E04FF0020070BD4FEA1A
:102D20002012072A1AD2DFE802F0525252524A38D1
:102D300040002A4BC21A984249D009DCB0F5805FA6
:102D40000DD0B0F5005F1CD0B0F1101F06D13EE0F1
:102D5000102A3CD0202A3AD0502A38D0012584F8B5
:102D60003D60002084F83C00284670BDCB68D1E966
:102D70000121206801F090FA2068816841F0770114
:102D800009E0CB68D1E90121206801F085FA2068CB
:102D9000816841F480418160E1E7CA684968206840
:102DA00001F024FC5021206806E0CA6849682068C8
:102DB00001F02DFC6021206801F078FACFE7CA68A5
:102DC0004968206801F012FC40212068F4E722687D
:102DD00001461046F0E7000088FFCEFF20001000FB
:102DE00070472DE9F04104460068C66805694FF058
:102DF0000007A90713D5B10711D5F91E01610120FC
:102E00002077206880698007204602D0FFF7E8FF1E
:102E100004E000F001F9204600F0C3F927776807C5
:102E200016D5700714D521686FF0040008610220E0
:102E300020772068806910F4407F204602D0FFF799
:102E4000CFFF04E000F0E8F8204600F0AAF9277769
:102E5000280715D5300713D521686FF008000861E1
:102E6000042020772068C0698007204602D0FFF741
:102E7000B7FF04E000F0D0F8204600F092F9277781
:102E8000E80616D5F00614D521686FF01000086129
:102E9000082020772068C06910F4407F204602D0C7
:102EA000FFF79EFF04E000F0B7F8204600F079F944
:102EB0002777E80708D0F00706D021686FF00100F7
:102EC0000861204600F0ECF9280601D4A80408D5D2
:102ED000300606D521686FF4025008612046FFF7DE
:102EE00048FDE80508D5300606D521686FF48070E6
:102EF00008612046FFF73CFD680608D5700606D538
:102F000021686FF040000861204600F0D3F9A80660
:102F100008D5B00606D521686FF02000086120466C
:102F2000FFF728FDE80208D5F00206D521686FF406
:102F3000801008612046FFF76EFDA80208D5B00298
:102F400006D521686FF4001008612046FFF762FD86
:102F5000680208D5700206D521686FF48000086108
:102F60002046FFF759FD28020AD5300208D521680E
:102F70006FF4000008612046BDE8F041FFF7F8BD9E
:102F8000BDE8F081F0B587B0044614216846FDF72E
:102F900093F91E492068884236D11D48C16C41F022
:102FA0000201C164C16C01F002010591C16C41F0E4
:102FB0000101C164C06C022500F0010005904FF4CE
:102FC000C04000900024CDE901540626114FCDE900
:102FD000034669463846FEF705FCA8030090CDE994
:102FE00001540420CDE9034069463846FEF7FAFB58
:102FF0004FF4E0600090CDE90154CDE90346694605
:103000004FF09040FEF7EEFB07B0F0BD002C014002
:103010000010024000040048704770B5044690F864
:103020003C0000260D4601280BD0012084F83C000E
:103030000C2A4AD007DC82B1042A20D0082A06D103
:1030400031E0022070BD102A53D0142A63D001262B
:10305000002084F83C00304670BD206801F030F953
:103060002068816941F0080181612068816921F04F
:1030700004018161206881692A69114311E0206897
:1030800001F06CF92068816941F400618161206878
:10309000816921F480618161206881692A6941EA3E
:1030A00002218161D4E7206801F0A0F92068C1699C
:1030B00041F00801C1612068C16921F00401C161CA
:1030C0002068C1692A69114311E0206801F0D6F92E
:1030D0002068C16941F40061C1612068C16921F4BF
:1030E0008061C1612068C1692A6941EA0221C16128
:1030F000AEE7206801F00AFA2068016D41F008018E
:1031000001652068016D21F0040101652068016DF1
:103110002A69114311E0206801F030FA2068016D3E
:1031200041F4006101652068016D21F48061016551
:103130002068016D2A6941EA0221016588E710B51E
:10314000040003D094F83D0010B107E0012010BD49
:10315000002084F83C00204600F022F8022084F889
:103160003D00211D206801F01FF8012084F848006F
:1031700084F83E0084F83F0084F8400084F8410061
:1031800084F8420084F8430084F8440084F8450041
:1031900084F8460084F8470084F83D00002010BD04
:1031A0007047704730B50446022269B1042912D035
:1031B000082917D00C291CD0102921D094F84300DD
:1031C000012824D0012030BD94F83E000128F9D117
:1031D00084F83E201DE094F83F000128F2D184F8E5
:1031E0003F2016E094F840000128EBD184F84020FD
:1031F0000FE094F841000128E4D184F8412008E070
:1032000094F842000128DDD184F8422001E084F8DE
:1032100043200122206801F025F8194B2068194944
:10322000194A984209D0884207D0904205D0174DDC
:10323000A84202D0164DA84203D1456C45F4004582
:103240004564206898420CD0B0F1804F09D0114BF2
:10325000984206D0104B984203D0884201D0904249
:1032600007D181680D4A1140062906D0B1F5803F8B
:1032700003D0016841F001010160002030BD000071
:10328000002C014000340140004001400044014056
:103290000048014000040040000800400700010011
:1032A00000680349884201D1FEF7CCBB704700009B
:1032B000001400407047FEE700EB8100006E00F054
:1032C000F84070478068C0F3C00070478068C0F362
:1032D000C00070478068C0F3800070478068C0F30A
:1032E00080007047C06810F4406F01D00020704724
:1032F00001207047042303EAD15310B518444369F1
:10330000C1F3045107248C40A3438A401343436113
:1033100010BD00EB8100016E21F0004111430166F8
:10332000704700007CB54FF0904501AC00221021A1
:103330002846FEF77BFB0120009002232246084925
:103340000848FFF7DFF9012210212846FEF76EFB3F
:103350009DF805009DF80410800840EA81107CBDAE
:103360007E470008C801002070B592B000240F9479
:1033700010943C2168461194FCF79EFF35484FF0AD
:10338000A041012501604FF44031C0E9011400F172
:1033900010010426C46081E8700004774477056258
:1033A00080F8244080F83840C46380F84040FEF73D
:1033B000ADF808B1FDF79EFB0FA926480F94FDF765
:1033C00001FF08B1FDF796FB234800900920CDE9E5
:1033D00001057F200594CDE9030684200A908DF82D
:1033E00024404FF480708DF825400B9008968DF89E
:1033F00026408DF8304069461648FDF7C9FB08B1F4
:10340000FDF778FB1548009040F20F1001906946D7
:103410001048FDF7BDFB08B1FDF76CFB10480090AC
:1034200040F21520019069460A48FDF7B1FB08B14A
:10343000FDF760FB0B48009040F21B30019069469D
:103440000448FDF7A5FB002801D0FDF753FB12B09F
:1034500070BD000034010020020030040400600848
:103460000800900C1000C010074910B5054808600E
:103470000846FEF789F9002803D0BDE81040FDF7A3
:1034800039BB10BD000C0240A00100202DE9F04125
:1034900086B014216846FCF70FFF2448C16C41F048
:1034A0002001C164C16C01F020010591C16C41F0A3
:1034B0000101C164C16C01F001010591C16C41F0D1
:1034C0000201C164C16C01F002010591C16C41F0BF
:1034D0000401C164C06C4FF0904700F004000590F7
:1034E000012210213846FEF7A1FADFF844804FF49C
:1034F0000066002231464046FEF798FA102001256A
:10350000CDE9000500240320CDE902406946384694
:10351000FEF768F90096CDE90154694640460394E8
:10352000FEF760F906B0BDE8F0810000001002402F
:1035300000080048124810B5104901604FF482712C
:10354000416000214FF4E062C0E902120122C0E9AB
:103550000412520282611822C0E907210722416247
:10356000C0E90A1201634163FFF724F8002803D081
:10357000BDE81040FDF7BEBA10BD000000300140AC
:10358000C801002030B59BB0002419941A941794F8
:103590001894149415941C2168461694FCF78CFE1C
:1035A000342107A8FCF788FE3D483C49C0E90014D7
:1035B0002021816041F26801C0E903148021C0E943
:1035C0000541FFF7D6FA08B1FDF794FA4FF48050A1
:1035D000179017A93248FFF783FB08B1FDF78AFA65
:1035E0002F48FFF7ACFD08B1FDF784FA7025CDE94F
:1035F000145414A92A481694FFF710FA08B1FDF7DD
:1036000079FA40F634000095CDE90104039404945E
:1036100005940022694622480694FFF7FEFC08B193
:10362000FDF768FA042269461D48FFF7F6FC08B169
:10363000FDF760FA082269461948FFF7EEFC08B169
:10364000FDF758FA4FF4967001900C226946144821
:10365000FFF7E3FC08B1FDF74DFA4FF40060079067
:10366000401008908010CDE909044001CDE90B40DD
:103670000D9400030E94CDE90F40C012CDE9124025
:1036800007A911940648FFF777F908B1FDF732FA58
:103690000348FFF777FC1BB030BD0000002C014051
:1036A0002C020020FEE700001448154A012301798E
:1036B000DFED140A92ED090A01290FD0022911D079
:1036C0000222032914D0042916D0052914D0062972
:1036D00013D10321C1700C4800F0AAB9C3700B4884
:1036E00000F05CBBC37092ED071A094800F0BCBB48
:1036F000C270084800F012B8C27070470000002085
:10370000A4000020000000000C0100205800002050
:1037100008000020DC000020FEE7000010B5044691
:103720002DED048BDFEDA20A9FEDA21AA24890EDC9
:10373000060AD0ED071AA14860EE200A90ED0D2A86
:1037400041EE810A60EE021A90ED0C1A20EE822AF8
:1037500040EE811A00EE412AC4ED051A84ED042AD8
:10376000D4ED060A94ED020AB1EE601AB4EEC10A75
:10377000F1EE10FA02D2B0EE410A06E0B4EEE00A31
:10378000F1EE10FA01DDB0EE600A84ED020AF0EE0F
:10379000402A94ED030AB4EEC10AF1EE10FA02D207
:1037A000B0EE410A06E0B4EEE00AF1EE10FA01DDF7
:1037B000B0EE600A84ED030A72EEC22A94ED088A24
:1037C000D4ED010A30EE611A00EEA28A84ED088A77
:1037D00094ED090A00EE810A84ED090A94ED079A36
:1037E000F1EE490AB4EEE08AF1EE10FA02D2B0EE40
:1037F000608A06E0B4EEC98AF1EE10FA01DDB0EE9F
:10380000498AB4EEE00A84ED088AF1EE10FA02D299
:10381000B0EE600A06E0B4EEC90AF1EE10FA01DD7E
:10382000B0EE490A84ED090A94ED003A6449654A0C
:1038300003EE010A90ED081A03EE228AF0EE408AA8
:1038400091ED000A31EE400A10EE100ADFED5E2A1B
:10385000904202DD30EE620A06E010EE100A5B4A8A
:10386000904201D930EE220ADFED592A594881ED04
:10387000001A20EE220A22EE001A90ED052A21EE0F
:10388000022A21EE801AD0ED061A21EE211AD0ED7F
:10389000071A514821EE800A8179A1B1012904D08B
:1038A000022907D003290ED107E078EEC28A38EE4C
:1038B000018A08E038EE008A05E038EE011A78EE59
:1038C000C28A31EE008A4079A8B3012802D00228CA
:1038D00066D128E0B4EEE08AF1EE10FA02D2B0EE42
:1038E000608A06E0B4EEC98AF1EE10FA01DDB0EEAE
:1038F000498A29EE090A08EE480A00F0E3FEF1EED3
:10390000400AF4EEE08AF1EE10FA02D2B0EE600A5C
:1039100006E0F4EEC08AF1EE10FA01DCB0EE680ABF
:10392000F0EE408A3CE0F4EEE08AF1EE10FA03D2C9
:10393000F0EE608A07E020E0F4EEC98AF1EE10FABA
:1039400001DDF0EE498A29EE090A08EEE80A00F0E6
:10395000B9FEF1EE400AB4EEE08AF1EE10FA02D2BE
:10396000B0EE600A06E0B4EEC08AF1EE10FA01DCB7
:10397000B0EE480AB0EE408A12E028EE080A69EE7E
:10398000090A08EEA80AF4EEC00AF1EE10FA07D20E
:1039900000F098FEC9EE000A28EE208A68EEA08AA0
:1039A00084ED0A8AC4ED0B8ABDEC048B10BD0000C7
:1039B0003ACD133F3ACD933F74000020A40000207D
:1039C00018000020C3F54840DB0FC940C3F548C0CC
:1039D00000409C462C0000200000002070470000A2
:1039E000114ADFED0F0A9FED0F1A92ED060AD2ED94
:1039F000071A0E4A60EE200A41EE810AD2ED0D1A36
:103A000092ED0C1A20EE212A00EE812A60EEA10A26
:103A100040EE410A81ED002AC0ED000A7047000027
:103A20003ACD133F3ACD933F74000020A40000200C
:103A3000F0B504462DED028B00250078032683B0F7
:103A400001279FED590A06281BD2DFE800F0031E6C
:103A50002F546893A07B002813D19FED540A4FF494
:103A6000966084ED010A60814FF4FA60A0815048AD
:103A7000258190ED070A84ED040AA77384F8245089
:103A8000277003B0BDEC028BF0BD94ED041AD4EDA9
:103A9000010A484800F0E8F92089401C80B22081E2
:103AA00061898842EDD32581022036E094ED041A25
:103AB000D4ED010A3F48B0EE408A00F0D5F96946DE
:103AC00001A8FFF78DFF94ED050ADDED000A30EE49
:103AD000200A84ED050A2089401C80B22081A1893A
:103AE0008842CED300EE900AF8EE600A80EE201AEB
:103AF00084ED061A39E0D4ED010A94ED041A2D483C
:103B0000F1EE600A00F0B0F92089401C80B22081FB
:103B100061898842B5D3258104202070B1E7D4EDB6
:103B2000010A94ED041A2348F1EE600AB0EE408ACF
:103B300000F09AF9694601A8FFF752FF94ED050AD3
:103B4000DDED000A30EE200A84ED050A2089401CD4
:103B500080B22081A189884293D300EE900AF8EECA
:103B6000600A80EE201A84ED071A258184ED058A0B
:103B7000267086E794ED041A0E48F0EE400A00F035
:103B800073F994ED060AD4ED070AB0EE001A30EE90
:103B9000600AD4ED010A60EE810A80EE801A84ED9D
:103BA000081A84F824706CE7000000009A99993F85
:103BB000A400002008000020F8B515460E460B466C
:103BC0000092044600224FF4C05100F019F888B961
:103BD0003346002280212046009500F081F848B944
:103BE000334600224FF4C0612046009500F008F8EB
:103BF000002804D0206E40F0200020660320F8BD8D
:103C00002DE9FE4F4FF0000A984617460E4604462F
:103C10000C9D8DF804A0FDF70FFF411BA8EB0105DB
:103C2000FDF70AFF814620684FF4C06B0C3002900C
:103C30002A480068C0EBC00000EB8000000D68431C
:103C4000009043E05E4506D12FB9029800788DF8C8
:103C500004009DF80400B8F1FF3F37D0FDF7ECFEFB
:103C6000A0EB0900A84203D215B1009858B32BE08D
:103C70002068416821F0E00141606068B0F5827F12
:103C80000BD1A068B0F5004F02D0B0F5806F04D121
:103C90002068016821F040010160A06AB0F5005F72
:103CA00009D12068016821F4005101602068016891
:103CB00041F400510160012084F85D0084F85CA0AB
:103CC0000320BDE8FE8F0025401E0090206880681C
:103CD0003040B842B6D10020F3E7000028000020B1
:103CE0002DE9F8431E46914688460446089DFDF797
:103CF000A3FE401B351AFDF79FFE074625480068C6
:103D0000C0F3CB30684338E0701C37D0FDF794FE29
:103D1000C01BA84203D215B1009860B32CE0206804
:103D2000416821F0E00141606068B0F5827F0BD10D
:103D3000A068B0F5004F02D0B0F5806F04D12068C4
:103D4000016821F040010160A06AB0F5005F09D16F
:103D50002068016821F4005101602068016841F485
:103D600000510160012084F85D00002084F85C00AF
:103D70000320BDE8F8830025401E0090206881687C
:103D800038EA010004D000214945BDD10020F0E708
:103D90000121F9E728000020704700002E4991ED2D
:103DA0000D2AD1ED0C1A2F4920EE821A60EEA10ADD
:103DB00000EE611A40EE020ABEEE000ADFED271A9D
:103DC00080ED031A21EE000AC0ED040AB0EE402A8D
:103DD00000EEA10ADFED221A00EEA12AD0ED050ABD
:103DE000F6EE001A60EEA11A71EE212A32EE211AC7
:103DF00030EE210AC0ED002A82EEA02A80ED010AF1
:103E000080ED021A008B01EE900AF8EE611AC1EE05
:103E1000202A62EE211A80EE202A00EE100AFCEE23
:103E2000E10AB8EE400A22EE002A00EE100A10EE77
:103E3000900AB8EE400A086022EE800AFCEEC20A40
:103E4000091D10EE900A0860BCEEC00A091D10EEB4
:103E5000100A086070470000A4000020D7B35D3F3F
:103E6000D7B35DBF342C014010B504462DED068B51
:103E700082B0B0EE409AB0EE608ADFED849A9FED9A
:103E800084AA01A96846B0EE410AFCF789FA9DECC4
:103E9000020A68EE208A28EE008A49EE408A94EDF4
:103EA000000A09EE208A20EE0A9A28EEA80A69EE96
:103EB000090A08EE080AF4EEC00AF1EE10FA07D279
:103EC00000F000FCC9EE000A68EEA08A28EE208A05
:103ED000A18894ED001A00EE101AB8EE400A20EE08
:103EE000290AC0EE010A28EE201A28EEA00AB5EE33
:103EF000C01AF1EE10FA01DD012200E00022F0EE1E
:103F0000410A50EE290AF5EEC00AF1EE10FA01DD81
:103F1000012000E00020DFED5F1AF0EE410A50EED4
:103F2000210AF5EEC00AF1EE10FA01DD012300E0EE
:103F300000239B0043EA40001043DFED570AF6EEF2
:103F4000002A60EE201A41EE221ADFED540A20EE1C
:103F5000202A01EE222ADFED520A0728B0EE600A7D
:103F600022D2DFE800F02104090E13181D00F0EE44
:103F7000420AB0EE610A17E0F0EE610AB1EE410AC2
:103F800012E0F1EE420AB0EE410A0DE0F1EE410A14
:103F9000B0EE420A08E0F0EE410AB1EE610A03E039
:103FA000F1EE610AB1EE420A01EE101A70EE801ACB
:103FB000B8EE411AF4EEC11AF1EE10FA09DD01EE85
:103FC000101AB8EE412A82EE211A60EE810A20EE24
:103FD000010A01EE101AF5EE001A0728B8EE411A90
:103FE00031EE601A31EE401A21EE211AF0EE411A3C
:103FF00040EEA21AB0EE612A00EE222A27D2DFE8B4
:1040000000F02604090E151A2100F0EE610AB0EE48
:10401000410A08E0F0EE410AB0EE420A0FE0F0EE8D
:10402000410AB0EE610AB0EE421A19E0F0EE420A1F
:10403000B0EE610A14E0F0EE420AB0EE410AB0EED2
:10404000611A0DE0F0EE610AB0EE420A08E088085D
:1040500000EE100AB8EE400AB0EE401AF0EE400A48
:104060001049FCEEE00A10EE900A0860BCEEC00AAF
:10407000091D10EE100A0860BCEEC10A091D10EE01
:10408000100A086002B0BDEC068B10BDD7B3DD3F4F
:104090003ACD133FD7B3DDBFD7B35D3FD7B35DBFD5
:1040A00000000000342C014010B51C48FEF7A6FDAE
:1040B00000211A48FFF776F804211848FFF772F834
:1040C00008211648FFF76EF80C211448FFF76AF82C
:1040D00000211248FEF7F0FC04211048FEF7ECFC2A
:1040E00008210E48FEF7E8FC0C4940F634000A6847
:1040F00050630A6890630968C863094800684168AA
:1041000041F0400141607F210548FCF7F5FC04487F
:10411000FCF7E2FFBDE81040FCF7C4BB2C02002016
:1041200034010020704710B594B038216846FCF780
:10413000C3F814210EA8FCF7BFF80020FDF736FDE8
:10414000012000900004032406210190CDE90841DC
:1041500002205421CDE90A1007900C900D9068467A
:10416000FEF726F808B172B6FEE70F20CDE90E047F
:10417000002010901190129004210EA8FDF7C0FEAF
:10418000002801D072B6FEE714B010BD02480168E5
:1041900041F470010160704788ED00E00148FEF7CE
:1041A00020BE0000780200202DE9F0430268264B73
:1041B000264D274E274C4FF08049984207D048455E
:1041C00005D0A84203D0B04201D0A04203D122F0D2
:1041D00070074A683A43204FDFF880C0DFF88080DC
:1041E00098420DD048450BD0A84209D0B04207D024
:1041F000A04205D0B84203D0604501D0404503D16C
:1042000022F44075CA682A434D6922F080022A438D
:1042100002608A68C2620A688262984207D0A0423D
:1042200005D0B84203D0604501D0404501D10969AD
:104230000163012141610169C90703D0016921F0CE
:1042400001010161BDE8F083002C01400004004041
:10425000000800400034014000400140004401409B
:104260000048014010B501F01F030121046A994084
:104270008C430462016A9A401143016210BD10B57B
:1042800001F00F030421046A99408C430462016A1F
:104290009A401143016210BD10B5846842EA0322BE
:1042A00024F47F440A432243826010BD8268034B9A
:1042B0001A400A4342F00701816070478FFFCFFF29
:1042C0002DE9F043056A026A22F0010202624368A6
:1042D00082691C4C25F0020522400C6822F0030282
:1042E00014438A68194E2A43174D194FDFF864C0EA
:1042F000DFF86490A84207D0B04205D0B84203D09E
:10430000604501D0484506D122F00808CA6842EA53
:10431000080222F00402A84207D0B04205D0B842F9
:1043200003D0604501D0484505D14D6923F4407361
:104330001D438B692B43436084614968416302627A
:10434000BDE8F0838FFFFEFF002C014000340140E8
:10435000004001400044014000480140F0B5056ABA
:10436000026A22F01002026242688369194C1B4EF5
:1043700023400C6823F4407343EA042425F020030F
:104380008D6843EA0513144DA84201D0B04206D10E
:10439000CF6823F0800343EA071323F04003A842C9
:1043A0000AD0B04208D00E4DA84205D00D4DA8420B
:1043B00002D00D4DA84207D14D6922F4406242EA75
:1043C00085028D6942EA85024260846149688163A1
:1043D0000362F0BDFF8FFFFE002C0140003401405E
:1043E000004001400044014000480140F0B5056A2A
:1043F000026A22F4807202624368C269194C1B4E41
:1044000022400C6822F00302144325F400728D68E8
:1044100042EA0522144DA84201D0B04206D1CF682D
:1044200022F4006242EA072222F48062A8420AD003
:10443000B04208D00E4DA84205D00E4DA84202D081
:104440000D4DA84207D14D6923F4405343EA0513AB
:104450008D6943EA05134360C4614968C163026220
:10446000F0BD00008FFFFEFF002C01400034014032
:10447000004001400044014000480140F0B5056A99
:10448000026A22F4805202624268C369194C1B4ED0
:1044900023400C6823F4407343EA042425F40053BA
:1044A0008D6843EA0533144DA84201D0B04206D1CD
:1044B000CF6823F4004343EA073323F48043A84240
:1044C0000AD0B04208D00E4DA84205D00D4DA842EA
:1044D00002D00D4DA84207D14D6922F4404242EA74
:1044E00085128D6942EA85124260C461496801649F
:1044F0000362F0BDFF8FFFFE002C0140003401403D
:1045000000400140004401400048014030B5056AC8
:10451000026A22F4803202624268036D114C234029
:104520000C681C4325F400330D8943EA05430E4D06
:10453000A8420BD00D4DA84208D00D4DA84205D081
:104540000C4DA84202D00C4DA84204D14D6922F472
:10455000803242EA05224260046549688164036250
:1045600030BD00008FFFFEFF002C014000340140F1
:1045700000400140004401400048014030B5046A59
:10458000026A22F4801202624268036D114D24F423
:1045900000142B400D6843EA05230D8944EA0554B5
:1045A0000D4DA8420BD00D4DA84208D00C4DA8428D
:1045B00005D00C4DA84202D00B4DA84204D14D6944
:1045C00022F4802242EA8522426003654968C16480
:1045D000046230BDFF8FFFFE002C0140003401401B
:1045E00000400140004401400048014010B5036A0A
:1045F000046A24F001040462846924F0F00444EAAB
:10460000021423F00A020A438461026210BD10B54D
:10461000036A046A24F010040462846923F0A0038E
:1046200024F4704444EA023243EA011182610162D7
:1046300010BDFEE70907090E002804DB00F1E020A9
:1046400080F80014704700F00F0000F1E02080F8BF
:10465000141D704710EE100AC0F3C7517F39172997
:10466000A8BF7047DFED140A002970EE200A0DDAAA
:10467000F5EEC00AF1EE10FA1ADD0028A8BF0020FE
:1046800016DAB0F1004F18BF0C4811E00C4ACA40CE
:10469000104208BF7047F5EEC00AF1EE10FA07DDD0
:1046A000002804DA4FF4000323FA01F10844904390
:1046B00000EE100A70470000CAF24971000080BF86
:1046C000FFFF7F0010B52DED028BB1EEC08A18EE12
:1046D000100A20F00040C0F1FF40C00F0AD010EED9
:1046E000100A20F00040C0F1FF40C00F04BF0120BD
:1046F000FBF711FEB0EE480ABDEC028B10BDFDF7D2
:10470000A9F9FFF710FDFEF7C1FEFEF7ADFEFEF7BB
:104710002BFEFEF737FFFEF70DFFFFF7C5FCFEE7A8
:1047200010B50F490F48FBF761FF0F48FCF74EF932
:104730000E48017849B10E4940F634000A685063CA
:104740000A6890630968C86310BD41780129FBD1EC
:1047500080780128F8D1BDE81040FEF7A5BF000021
:104760001000002074000020A400002000000020A1
:104770002C0200204FF04070E1EE100A7047FFFF5E
:104780000000000000000000010203040607080901
:10479000000000000102030400000000920E493CEA
:1047A000B10AC93C2BC3163D2EFB483D752B7B3D02
:1047B00004A9963D80B6AF3D36BDC83D2FBCE13D56
:1047C00073B2FA3D87CF093E8340163EB5AB223E19
:1047D000A2102F3ECF6E3B3EC2C5473E0115543E50
:1047E000135C603E7F9A6C3ECCCF783EC07D823EAB
:1047F000938E883E229A8E3E32A0943E86A09A3EA8
:10480000E59AA03E128FA63ED47CAC3EEF63B23E4A
:104810002A44B83E491DBE3E15EFC33E53B9C93EBA
:10482000CA7BCF3E4136D53E80E8DA3E4F92E03E2D
:104830007533E63EBBCBEB3EEA5AF13ECBE0F63EAB
:10484000275DFC3EE4E7003F3D9C033F824B063F73
:104850009BF5083F6B9A0B3FDA390E3FCDD3103FE3
:104860002A68133FD9F6153FC07F183FC6021B3F89
:10487000D17F1D3FCBF61F3F9967223F25D2243FB2
:104880005636273F1594293F4AEB2B3FDE3B2E3F00
:10489000BB85303FC9C8323FF304353F233A373F29
:1048A0004268393F3B8F3B3FF9AE3D3F67C73F3FD3
:1048B00070D8413F01E2433F03E4453F65DE473F97
:1048C00012D1493FF8BB4B3F029F4D3F207A4F3FEB
:1048D0003D4D513F4918533F31DB543FE595563F1D
:1048E0005348583F6AF2593F1A945B3F532D5D3F3E
:1048F00005BE5E3F2146603F97C5613F5A3C633F1E
:1049000059AA643F880F663FD86B673F3CBF683F3A
:10491000A7096A3F0C4B6B3F5E836C3F93B26D3FC0
:104920009ED86E3F73F56F3F0809713F5213723F77
:104930004714733FDD0B743F0BFA743FC6DE753FBF
:1049400007BA763FC58B773FF853783F9812793F87
:104950009DC7793F02737A3FBE147B3FCDAC7B3F4E
:10496000283B7C3FC9BF7C3FAC3A7D3FCCAB7D3F11
:1049700023137E3FB0707E3F6DC47E3F580E7F3F55
:104980006D4E7F3FAB847F3F0FB17F3F97D37F3F1B
:1049900043EC7F3F11FB7F3F0000803F11FB7F3FD7
:1049A00043EC7F3F97D37F3F0FB17F3FAB847F3F87
:1049B0006D4E7F3F580E7F3F6DC47E3FB0707E3F8F
:1049C00023137E3FCCAB7D3FAC3A7D3FC9BF7C3FDC
:1049D000283B7C3FCDAC7B3FBE147B3F02737A3FCC
:1049E0009DC7793F9812793FF853783FC58B773F41
:1049F00007BA763FC6DE753F0BFA743FDD0B743F96
:104A00004714733F5213723F0809713F73F56F3FAC
:104A10009ED86E3F93B26D3F5E836C3F0C4B6B3FF5
:104A2000A7096A3F3CBF683FD86B673F880F663F66
:104A300059AA643F5A3C633F97C5613F2146603F96
:104A400005BE5E3F532D5D3F1A945B3F6AF2593FAE
:104A50005348583FE595563F31DB543F4918533F83
:104A60003D4D513F207A4F3F029F4D3FF8BB4B3F9A
:104A700012D1493F65DE473F03E4453F01E2433F32
:104A800070D8413F67C73F3FF9AE3D3F3B8F3B3F4B
:104A90004268393F233A373FF304353FC9C8323FB4
:104AA000BB85303FDE3B2E3F4AEB2B3F1594293F21
:104AB0005636273F25D2243F9967223FCBF61F3F2A
:104AC000D17F1D3FC6021B3FC07F183FD9F6153F5F
:104AD0002A68133FCDD3103FDA390E3F6B9A0B3F54
:104AE0009BF5083F824B063F3D9C033FE4E7003FB8
:104AF000275DFC3ECBE0F63EEA5AF13EBBCBEB3EF7
:104B00007533E63E4F92E03E80E8DA3E4136D53ED0
:104B1000CA7BCF3E53B9C93E15EFC33E491DBE3EC9
:104B20002A44B83EEF63B23ED47CAC3E128FA63E20
:104B3000E59AA03E86A09A3E32A0943E229A8E3EEE
:104B4000938E883EC07D823ECCCF783E7F9A6C3E6D
:104B5000135C603E0115543EC2C5473ECF6E3B3EDE
:104B6000A2102F3EB5AB223E8340163E87CF093EB2
:104B700073B2FA3D2FBCE13D36BDC83D80B6AF3DB6
:104B800004A9963D752B7B3D2EFB483D2BC3163D5E
:104B9000B10AC93C920E493C00000000920E49BC8B
:104BA000B10AC9BC2BC316BD2EFB48BD752B7BBDFE
:104BB00004A996BD80B6AFBD36BDC8BD2FBCE1BD52
:104BC00073B2FABD87CF09BE834016BEB5AB22BE15
:104BD000A2102FBECF6E3BBEC2C547BE011554BE4C
:104BE000135C60BE7F9A6CBECCCF78BEC07D82BEA7
:104BF000938E88BE229A8EBE32A094BE86A09ABEA4
:104C0000E59AA0BE128FA6BED47CACBEEF63B2BE46
:104C10002A44B8BE491DBEBE15EFC3BE53B9C9BEB6
:104C2000CA7BCFBE4136D5BE80E8DABE4F92E0BE29
:104C30007533E6BEBBCBEBBEEA5AF1BECBE0F6BEA7
:104C4000275DFCBEE4E700BF3D9C03BF824B06BF6F
:104C50009BF508BF6B9A0BBFDA390EBFCDD310BFDF
:104C60002A6813BFD9F615BFC07F18BFC6021BBF85
:104C7000D17F1DBFCBF61FBF996722BF25D224BFAE
:104C8000563627BF159429BF4AEB2BBFDE3B2EBFFC
:104C9000BB8530BFC9C832BFF30435BF233A37BF25
:104CA000426839BF3B8F3BBFF9AE3DBF67C73FBFCF
:104CB00070D841BF01E243BF03E445BF65DE47BF93
:104CC00012D149BFF8BB4BBF029F4DBF207A4FBFE7
:104CD0003D4D51BF491853BF31DB54BFE59556BF19
:104CE000534858BF6AF259BF1A945BBF532D5DBF3A
:104CF00005BE5EBF214660BF97C561BF5A3C63BF1A
:104D000059AA64BF880F66BFD86B67BF3CBF68BF36
:104D1000A7096ABF0C4B6BBF5E836CBF93B26DBFBC
:104D20009ED86EBF73F56FBF080971BF521372BF73
:104D3000471473BFDD0B74BF0BFA74BFC6DE75BFBB
:104D400007BA76BFC58B77BFF85378BF981279BF83
:104D50009DC779BF02737ABFBE147BBFCDAC7BBF4A
:104D6000283B7CBFC9BF7CBFAC3A7DBFCCAB7DBF0D
:104D700023137EBFB0707EBF6DC47EBF580E7FBF51
:104D80006D4E7FBFAB847FBF0FB17FBF97D37FBF17
:104D900043EC7FBF11FB7FBF000080BF11FB7FBFD3
:104DA00043EC7FBF97D37FBF0FB17FBFAB847FBF83
:104DB0006D4E7FBF580E7FBF6DC47EBFB0707EBF8B
:104DC00023137EBFCCAB7DBFAC3A7DBFC9BF7CBFD8
:104DD000283B7CBFCDAC7BBFBE147BBF02737ABFC8
:104DE0009DC779BF981279BFF85378BFC58B77BF3D
:104DF00007BA76BFC6DE75BF0BFA74BFDD0B74BF92
:104E0000471473BF521372BF080971BF73F56FBFA8
:104E10009ED86EBF93B26DBF5E836CBF0C4B6BBFF1
:104E2000A7096ABF3CBF68BFD86B67BF880F66BF62
:104E300059AA64BF5A3C63BF97C561BF214660BF92
:104E400005BE5EBF532D5DBF1A945BBF6AF259BFAA
:104E5000534858BFE59556BF31DB54BF491853BF7F
:104E60003D4D51BF207A4FBF029F4DBFF8BB4BBF96
:104E700012D149BF65DE47BF03E445BF01E243BF2E
:104E800070D841BF67C73FBFF9AE3DBF3B8F3BBF47
:104E9000426839BF233A37BFF30435BFC9C832BFB0
:104EA000BB8530BFDE3B2EBF4AEB2BBF159429BF1D
:104EB000563627BF25D224BF996722BFCBF61FBF26
:104EC000D17F1DBFC6021BBFC07F18BFD9F615BF5B
:104ED0002A6813BFCDD310BFDA390EBF6B9A0BBF50
:104EE0009BF508BF824B06BF3D9C03BFE4E700BFB4
:104EF000275DFCBECBE0F6BEEA5AF1BEBBCBEBBEF3
:104F00007533E6BE4F92E0BE80E8DABE4136D5BECC
:104F1000CA7BCFBE53B9C9BE15EFC3BE491DBEBEC5
:104F20002A44B8BEEF63B2BED47CACBE128FA6BE1C
:104F3000E59AA0BE86A09ABE32A094BE229A8EBEEA
:104F4000938E88BEC07D82BECCCF78BE7F9A6CBE69
:104F5000135C60BE011554BEC2C547BECF6E3BBEDA
:104F6000A2102FBEB5AB22BE834016BE87CF09BEAE
:104F700073B2FABD2FBCE1BD36BDC8BD80B6AFBDB2
:104F800004A996BD752B7BBD2EFB48BD2BC316BD5A
:104F9000B10AC9BC920E49BC00000080BC4F000899
:104FA000000000202C00000014020008E84F000858
:104FB0002C000020FC080000300200080000000067
:104FC00000000000000000000000000000000000E1
:104FD00000000000000000001000000001000000C0
:084FE000000000000024F400B1
:04000005080001D915
:00000001FF
