:020000040800F2
:10000000D8070020790200080728000827250008E3
:10001000052800082D0400088F2D000800000000AE
:100020000000000000000000000000000B28000895
:100030007904000800000000092800088128000851
:10004000930200089302000893020008930200083C
:10005000930200089302000893020008930200082C
:10006000930200089302000893020008930200081C
:10007000930200089302000893020008930200080C
:100080009302000800000000930200089302000899
:1000900093020008930200089302000893020008EC
:1000A00093020008930200089302000893020008DC
:1000B00093020008930200089302000893020008CC
:1000C00093020008930200089302000893020008BC
:1000D00093020008930200089302000893020008AC
:1000E000930200089302000893020008930200089C
:1000F0009302000893020008930200080000000029
:1001000000000000930200080000000093020008B5
:10011000930200080000000093020008F92800087C
:10012000930200089302000893020008930200085B
:100130009302000800000000000000009302000885
:100140009302000893020008000000000000000075
:10015000000000000000000000000000000000009F
:1001600000000000000000000000000093020008F2
:1001700093020008000000000000000000000000E2
:1001800000000000930200080000000000000000D2
:10019000000000000000000000000000000000005F
:1001A0000000000000000000930200089302000815
:1001B0009302000893020008930200080000000068
:1001C0000000000093020008000000000000000092
:1001D000930200089302000800F002F800F03CF8D7
:1001E0000AA090E8000C82448344AAF10107DA4592
:1001F00001D100F031F8AFF2090EBAE80F0013F0A8
:10020000010F18BFFB1A43F001031847E42B00004D
:10021000042C0000103A24BF78C878C1FAD85207DD
:1002200024BF30C830C144BF04680C607047000070
:100230000023002400250026103A28BF78C1FBD8EF
:10024000520728BF30C148BF0B6070471FB502F08E
:10025000BEFD1FBD10B510BD00F058F81146FFF7E8
:10026000F5FF02F0A5FD00F076F803B4FFF7F2FF0A
:1002700003BC00F07DF800000948804709480047AA
:10028000FEE7FEE7FEE7FEE7FEE7FEE7FEE7FEE746
:10029000FEE7FEE704480549054A064B70470000A3
:1002A000E9280008D9010008D8010020D80700205B
:1002B000D8030020D80300204FF0000200B51346F9
:1002C00094469646203922BFA0E80C50A0E80C5076
:1002D000B1F12001BFF4F7AF090728BFA0E80C5027
:1002E00048BF0CC05DF804EB890028BF40F8042B20
:1002F00008BF704748BF20F8022B11F0804F18BF8D
:1003000000F8012B7047704770477047754600F042
:100310002BF8AE4605006946534620F00700854697
:1003200018B020B5FFF7B6FFBDE820404FF000063B
:100330004FF000074FF000084FF0000B21F00701CD
:10034000AC46ACE8C009ACE8C009ACE8C009ACE810
:10035000C0098D46704710B50446AFF300802046B3
:10036000BDE81040FFF781BF0048704774010020CE
:1003700001491820ABBEFEE72600020070470000CE
:10038000F8B50446002000902068816811F0010F44
:1003900041D18168214A11422ED18168D54329403B
:1003A000491C81601E48806800F0E07000020DD595
:1003B0001C481D490068B0FBF1F0401C00EB4000F8
:1003C000800000E0401E00900028FBD100F04AFEB3
:1003D00006461BE0816811F0010F03D181682940B6
:1003E000491C816000F03EFE801B02280ED9206867
:1003F0000068C043C00709D0E06D40F01000E06520
:10040000206E40F0010020660120F8BD20680168E0
:10041000C943C907DED10020F8BD00003F000080BD
:100420000003005014000020400D0300FEE7000010
:100430000D48B3EE080A0E2180ED000A017141F269
:100440006801C1800A48DFED090AC0ED050AC0ED68
:10045000060ADFED080AC0ED070AC0ED0A0A80EDC2
:10046000090A81857047000000000020000000009C
:10047000180000202506813E704772B6FEE7000096
:100480002DE9F84F4FF000080446CDF800800D46E6
:1004900094F85820DFF8EC93616947464046012AFA
:1004A0000AD00126F84A84F8586041B1296A012926
:1004B00005D0A36EEBB129E00220BDE8F88F686893
:1004C000092838D1A96A4FF4785041B12B6801F05E
:1004D0007C0100EA53400843E96A084302E02968C6
:1004E00000EA51402168CB6C13400343CB64606643
:1004F00021E0C4E91971A96A286A31B101F07C01CF
:10050000401E0843E96A084300E0401E29682B7931
:10051000C1F3846103F01F0399400143A06E401EA4
:10052000A066636E43EA0103636604D12068C16C70
:1005300011401943C164206802F000F858B995F8D9
:10054000250098B12068C16895F8262021F4401153
:1005500041EA4251C160206801F0F8FF82462068FC
:1005600001F0ECFF5AEA00000DD0FBE095F8260000
:1005700095F82410400540EA01512068C26822F431
:1005800040121143E6E7A86A30B1E86A20B195F855
:10059000250001285ED003E095F82500012804D04D
:1005A0002068C16821F0007103E02068C16841F053
:1005B0000071C16095F83000012852D020680169AF
:1005C00021F002010161AA6829682068B2F1004F98
:1005D00038D001F0BFFF2068416921F0004141613E
:1005E00020686969C268C2F3C102520091402A6959
:1005F000042A44D000EB82002B68026EDFF88CC224
:1006000003F0F84302EA0C020B431A4342F00041A4
:10061000016620682A69A96900EB8200026E22F057
:1006200080720A430266297F22682869012923D043
:100630005FF0000102EB8000026E22F000720A43BC
:1006400002668FE0002201F085FF2068416941F0D9
:100650000041C4E7E06D40F02000E0654FF0010884
:10066000A8E7D5E90D1001432068026922F4FF7262
:1006700042F002021143A5E74FF00071DAE70021D2
:1006800001F052FF400320684FF0000172D001F0EA
:100690004BFF90FAA0F0B0FA80F1286842036ED0C8
:1006A00090FAA0F0B0FA80F0814204D10022114605
:1006B000206801F05EFF0121206801F035FF400352
:1006C00020684FF001015DD001F02EFF90FAA0F0FC
:1006D000B0FA80F12868420359D090FAA0F0B0FA3D
:1006E00080F0814204D100220121206801F041FF05
:1006F0000221206801F018FF400320684FF002013A
:1007000048D001F011FF90FAA0F0B0FA80F128680B
:10071000420344D090FAA0F0B0FA80F0814204D1B4
:1007200000220221206801F024FF0321206801F04B
:10073000FBFE400320684FF0030133D001F0F4FECC
:1007400090FAA0F0B0FA80F1286842032FD090FA16
:10075000A0F0B0FA80F0814204D100220321206889
:1007600001F007FF2068816811F0010F22D0B6E088
:1007700000E004E001F0D8FEC0F384618DE7C0F32F
:10078000846091E701F0D0FEC0F38461A2E7C0F37A
:100790008460A6E701F0C8FEC0F38461B7E7C0F348
:1007A0008460BBE701F0C0FEC0F38461CCE7C0F316
:1007B0008460D0E72A7B296850F8B03FC1F3120C5F
:1007C00023EA0C0302F0180C314A22FA0CF20A4018
:1007D00013430360E96849457ED1286841031CD072
:1007E00090FAA0F1B1FA81F1491C01F01F01092929
:1007F0004FEA403132D8002912D000BF90FAA0F160
:10080000B1FA81F101F1010101F01F0106FA01F6CF
:1008100009D100BFC0F3846109E0C0F38461E3E75C
:10082000C0F38461EEE790FAA0F1B1FA81F101F131
:10083000010101F01F0146EA816102D1C0F3846029
:1008400003E090FAA0F0B0FA80F000F1010000F0AF
:100850001F0000EB400041EA00513AE000290ED0B1
:1008600090FAA0F1B1FA81F101F1010101F01F014B
:1008700006FA01F60ED100BFC0F384610EE0C0F3AA
:100880008461F1E700007F400040100400F0FF03A6
:10089000FFFF070090FAA0F1B1FA81F101F1010127
:1008A00001F01F0146EA816102D1C0F3846003E0D8
:1008B00090FAA0F0B0FA80F000F1010000F01F0003
:1008C0002B4A00EB400002EB005041EA000141F0EE
:1008D0000071AA68206800E001E001F03BFE2548B5
:1008E0002A68024240D024488168244B01F0E0711C
:1008F0009A4202D0224B9A421BD10B0219D4226891
:10090000B2F1A04F30D1826841F4000122F0E072D0
:100910000A4382601B481C490068B0FBF1F0801C50
:1009200000EB4000800000E0401E00900028FBD15A
:100930001AE0164D164BAA4207D1CD0105D4226804
:100940009A4211D041F0807109E0124DAA420BD1B8
:100950004A0209D422689A4206D041F48001826892
:1009600022F0E0720A43826084F858704046A4E5A1
:10097000000020FE0000088000030050000021C39A
:100980001000C09014000020400D0300000052C76A
:1009900000010050000084CB2DE9F04104463548A9
:1009A000806800F01F05206801F0C8FD08BB2168C1
:1009B000C868C96C00F0004011F4C07F00D190B14C
:1009C00094F85800012814D0012084F858002046DB
:1009D000FFF7D6FC02004FF000030CD084F858302B
:1009E0001046BDE8F081E06D40F02000E065012098
:1009F000F7E70220F5E7E06DC00504D5206E20F092
:100A00000800206600E02366E06D42F201018843A1
:100A100040F48050E065184F21684FF0A046B9427D
:100A200001D1304600E00846884200D01DB9E06D93
:100A300020F48010E0656020086084F85830206859
:100A4000B84200D00646864209D045B1062D06D0F0
:100A5000072D04D0E06D40F48010E065C0E7C16868
:100A600011F0007FBCD18168044B194041F00801AE
:100A70008160B5E70003005000010050C0FFFF7F18
:100A80002DE9F047044690F858009CB00E464FF010
:100A90000009012815D0012084F858000025179579
:100AA000189520684FF0A04840450ED1284F009778
:100AB000384601F04BFD8246206801F047FD60B1E9
:100AC0000EE002201CB0BDE8F087E06D40F0200091
:100AD000E06584F858500120F4E7BAF1000F09D01E
:100AE000E06D40F02000E0654FF0010984F85850B7
:100AF0004846E7E71748326840F61F71002A8268C7
:100B000022F4604216D094F8383042EA43327368D7
:100B10001A438260D8F80820BB6802F0010203F093
:100B200001031A43E2D1B36832681A4383688B43E6
:100B30001A430BE08260D8F80820BB6802F001027B
:100B400003F001031A43D1D182688A438260CDE762
:100B50000001005000030050F8B54FF000050400FC
:100B60002E46009502D0E06D10B107E00120F8BDDF
:100B7000204600F0EBF8266684F85860206881680B
:100B8000C1F3407119B18168684A114081602068E1
:100B90008168C1F3007189B98168654A114041F0EB
:100BA00080518160634864490068B0FBF1F0400007
:100BB000801C00E0401E00900028FBD12068816866
:100BC000C1F3007141B9E16D41F01001E165216EA1
:100BD00041F001012166012501F0B4FCE16DC90677
:100BE00000D430B1E06D40F01000E06501252846EA
:100BF000F8BDE06D20F4807040F00200E0652068F0
:100C0000806810F0010F11D14FF0A04080684B496F
:100C100000F00100896801F00101084306D148484D
:100C20006168826822F47C120A438260E168E06BAA
:100C3000627F0843A16841EA4231084394F82410D6
:100C400040EA0140012904D1218D3E4A02EB414195
:100C50000843E16A29B101F47871226B014342EA49
:100C600001002268D168384B19400143D1602068E7
:100C70000169626B21F0406111430161206801F05C
:100C800059FC70BB207F94F83810800340EA410281
:100C90002168C86844F2020398431043C860206981
:100CA0000028206801690AD041F480310161206880
:100CB00050F8C01F22696FF30D01114307E021F4C2
:100CC00080310161206850F8C01F6FF30D01016091
:100CD00094F8400001280CD02068016921F001013E
:100CE0000161606901282068016B21F00F0111D0BA
:100CF00013E0D4E911010843D4E913121143084366
:100D000021680A6940F2FC739A43104340F00100E5
:100D10000861E6E7226A521E11430163E06D20F08C
:100D2000020040F00100E06561E70000C0FFFF5FE6
:100D3000C0FFFF7F14000020400D030000010050A1
:100D4000000300500000FEFF0740F0FF10B598B010
:100D50000446142111A8FFF7AFFA44216846FFF7B3
:100D6000ABFA2068B0F1A04F26D14FF400400090BC
:100D700080030F90684600F095FA08B1FFF77DFBFD
:100D80000E48C16C41F40051C164C16C01F40051C2
:100D90001691C16C41F00101C164C06C11A900F051
:100DA000010016900F201190032012900020139044
:100DB0004FF0904000F032F818B010BD0010024023
:100DC00070B5040004D094F82100002510B106E0AD
:100DD000012070BD84F82050204600F00BF86562B9
:100DE0006560A560E56025610120656184F82100EA
:100DF000002070BD08B500680649884208D1064841
:100E0000816C41F008018164806C00F00800009062
:100E100008BD0000000C0240001002402DE9F04F18
:100E2000DFF82092002301260324A9F1040B85B0EA
:100E30000F2709F1040AABF1040EFAE006FA03F5F4
:100E40002A407CD091F804C00CF0030CBCF1010FD7
:100E500002D0BCF1020F26D1D0F808C0CDF800C0F6
:100E60004FEA430C04FA0CF8CDF810C0DDF800C0CE
:100E70002CEA080CCDF800C0D1F80C80DDF810C0C9
:100E800008FA0CF8DDF800C048EA0C08C0F8088041
:100E9000D0F804C02CEA050C0D79C5F300159D406F
:100EA00045EA0C0545600D79ED43AD070ED0C568E8
:100EB0004FEA430804FA08FC25EA0C05D1F808C0FB
:100EC0000CFA08FC4CEA050CC0F80CC00D7905F0D2
:100ED0000305022D16D1DD0800EB850CCDF808C006
:100EE000DCF820805D074FEAD56C07FA0CF528EA9C
:100EF00005080D6905FA0CF5DDF808C045EA080596
:100F0000CCF8205005684FEA430CCDF808C004FA2D
:100F10000CFC25EA0C0591F804C00CF00308DDF880
:100F200008C008FA0CF848EA0508C0F800804D68C7
:100F300015F4403F7CD0444DD5F860C000E077E028
:100F40004CF0010CC5F860C02D6E23F0030C05F0C9
:100F5000010500953D4D65440295AD684FEA837CDF
:100F60004FEA1C7807FA08FC25EA0C05B0F1904F0F
:100F700006D0DFF8DCC0604505D14FF0010C20E061
:100F80004FF0000C1DE0DFF8CCC0604502D14FF0FF
:100F9000020C16E0DFF8C0C0604502D14FF0030C30
:100FA0000FE0DFF8B8C0604502D14FF0040C08E054
:100FB000DFF8ACC0604502D14FF0050C01E04FF006
:100FC000060C0CFA08FC4CEA050C029DC5F808C09A
:100FD000D9F80050CC46D1F8048095435FEAC82880
:100FE00000D51543CCF80050DAF80050D446D1F8BB
:100FF000048095435FEA882800D51543CCF800505B
:10100000DBF80050DC46D1F8048095435FEA88386D
:1010100000D51543CCF80050DEF80050F446D1F866
:10102000048095435FEAC83800D51543CCF80050DA
:101030005B1C0A6832FA03F57FF400AF05B0BDE827
:10104000F08F000008040140001002400000014041
:101050000004004800080048000C00480010004848
:101060000014004801488068704700000800002014
:10107000024881684268114481607047080000207E
:1010800010B50024032000F095F80F2000F008F8B8
:1010900008B1012401E000F047F8204610BD00002F
:1010A00030B505461B4887B0816D41F02001816550
:1010B000806D06A900F02000009001A800F024FB3C
:1010C00000F042FB1449154AB0FBF1F11448491EE7
:1010D0000260416040F2E7320021C0E903218160F3
:1010E00000F07FFE040012D10D4800F0F5FE040070
:1010F0000DD1372000F030F8102D07D200222946FC
:10110000372000F037F80748056000E0012407B0F9
:10111000204630BD0010024040420F000014004045
:1011200028010020080000200A4882B0016E41F02A
:1011300001010166016E01F001010091816D41F034
:1011400080518165806D00F08050009002B000F009
:10115000A1B8000000100240002809DB00F01F02C7
:10116000012191404009800000F1E020C0F8001109
:1011700070470000F0B40E4B1B680C46C3F302230B
:10118000C3F10705042D00D90425191D072901D233
:10119000002300E0DB1E012606FA05F1491E21406E
:1011A00099409E40761E16403143F0BC01F0F0BDE0
:1011B0000CED00E0064900F0070208684FF6FF0357
:1011C000184040EA0220034A1043086070470000BC
:1011D0000CED00E00000FA052B492C4B0A68322187
:1011E0004A432B4940B1B0F5007F086829D020F46C
:1011F000C06040F480602CE00868C0F34120022801
:1012000004D051F8800F20F4807022E0D1F88000E3
:1012100020F48070C1F88000086820F4C06040F4B9
:1012200000700860B2FBF3F0401C00E0401E4A6909
:10123000520501D50028F9D1486940050AD5032097
:101240007047C0F34120022806D051F8800F40F4C7
:101250008070086000207047D1F8800040F48070F2
:10126000C1F88000086820F4C06040F40070086095
:10127000B2FBF3F0401C00E0401E4A695205DBD58A
:101280000028F9D1D8E700001400002040420F00E8
:10129000007000400248816841F4804181607047DD
:1012A000007000402DE9F8430446006800269D4D7B
:1012B00000035ED5A86D0027C00008D4A86D40F0DB
:1012C0008050A865A86D012700F080500090DFF8DD
:1012D0005892D9F8001041F48071C9F80010FFF756
:1012E000C1FE804606E000BFFFF7BCFEA0EB080091
:1012F00002282BD8D9F80000C005F5D5D5F8900004
:1013000010F4407014D0216C814211D0D5F89000B7
:10131000D5F8901020F4407041F48031C5F8901059
:10132000D5F8901021F48031C5F89010C5F89000E0
:10133000C00711D0FFF796FE804641F2883907E0DA
:10134000FFF790FEA0EB0801494501D903260BE009
:10135000D5F890008007F3D5D5F89000216C20F4E3
:1013600040700843C5F890001FB1A86D20F0805070
:10137000A8652078C00707D0D5F88800616820F0FC
:1013800003000843C5F888002078800707D5D5F802
:101390008800A16820F00C000843C5F88800207878
:1013A000400707D5D5F88800E16820F030000843F1
:1013B000C5F888002078000707D5D5F8880021698E
:1013C00020F0C0000843C5F888002078800607D5C3
:1013D000D5F88800616920F440600843C5F88800AA
:1013E0002078400607D5D5F88800A16920F4405040
:1013F0000843C5F888002078000607D5D5F888008E
:10140000E16920F440400843C5F888002088C00501
:1014100007D5D5F88800216A20F440300843C5F884
:1014200088002088800507D5D5F88800616A20F4F7
:1014300040200843C5F88800208840050FD5D5F81E
:101440008800A16A20F440100843C5F88800A06A0B
:10145000B0F5801F03D1E86840F48010E860208870
:1014600000050FD5D5F88800E16A20F44000084354
:10147000C5F88800E06AB0F5800F03D1E86840F451
:101480008010E8602088C0040FD5D5F88800216B53
:1014900020F040700843C5F88800206BB0F1807FD1
:1014A00003D1E86840F48010E86020884FF00061C4
:1014B00080040ED5D5F88800626B20F040601043A0
:1014C000C5F88800606B884203D1E86840F480105A
:1014D000E860208840040ED5D5F88800A26B20F083
:1014E00040601043C5F88800A06B884203D1E868CB
:1014F00040F48010E860208800040FD5D5F88800FB
:10150000E16B20F040500843C5F88800E06BB0F173
:10151000805F03D1E86840F48030E8603046BDE881
:10152000F883000000100240007000402DE9F047F1
:101530000E4605004FF0000725D0DFF8AC81D8F843
:10154000000000F00F00B0420CD2D8F8001021F0DB
:101550000F013143C8F80010D8F8000000F00F0068
:10156000B04210D12968614CC80741F2883A5AD07C
:101570006868DFF87C91032808D0022820682DD005
:10158000400500282CDB0120BDE8F08720688001A1
:10159000F9D5E06800F00302E068C0F30310401CD6
:1015A000032A19D0534A00BFB2FBF0F0E268C2F33D
:1015B00006225043E268C2F34162521C5200B0FB63
:1015C000F2F0484517D9A06810F0F00F0CD088074A
:1015D00011D5A86840B10EE0474AE5E78003D0E79F
:1015E00000F0C4F8484506D9A06820F0F00040F0AB
:1015F0008000A0608027A068696820F0030008438D
:10160000A060FFF72FFD814606E000BFFFF72AFD2F
:10161000A0EB090151453AD8A068696800F00C00B8
:10162000B0EB810FF2D12868810714D5400703D5AC
:10163000A06840F4E060A0602878000705D5A068A5
:1016400020F4605040F4E060A060A068A96820F039
:10165000F000084304E0802F03D1A06820F0F000E0
:10166000A060D8F80010404601F00F01B14216D931
:10167000016821F00F0131430160FFF7F3FC0746D9
:1016800007E000BFFFF7EEFCC11B514501D9032065
:101690007AE7D8F8000000F00F00B042F2D12878C5
:1016A000400705D5A068E96820F4E0600843A06021
:1016B0002878000706D5A068296920F4605040EA20
:1016C000C100A06000F052F8A1680C4AC1F30311F8
:1016D000515C01F01F01C8400949086009480068D1
:1016E000BDE8F047FFF7DCBC0020024000100240DC
:1016F00000B4C4040024F40000366E01D82D0008A4
:1017000014000020080000200F2202600C4A936899
:1017100003F003034360936803F0F003836093686E
:1017200003F4E063C36092684FF4E06303EAD2021B
:1017300002610448006800F00F0008607047000074
:1017400000100240002002400548064900688968F0
:10175000054AC1F30221515C01F01F01C8407047E6
:101760001400002000100240E82D0008184910B5B0
:101770008868C0F381021748012A0BD08A68164B8B
:10178000C2F38102022A06D08A68C2F38102032AC8
:1017900003D0002010BD184610BDCA6802F0030433
:1017A000CA68C2F30312521C032C02D0B0FBF2F041
:1017B00001E0B3FBF2F0CA68C968C2F306225043E5
:1017C000C1F34161491C4900B0FBF1F010BD0000BC
:1017D000001002400024F40000366E012DE9F843A9
:1017E00004007AD02078F84DC00747D0A868E9688F
:1017F00000F00C0001F003010C2802D0082817D0DB
:1018000001E0032914D06068B0F5803F17D0B0F52F
:10181000A02F286817D020F480302860286820F492
:10182000802028606068E0B1FFF71CFC064614E0E9
:101830002868800322D560680028D2D01EE028687E
:1018400040F48030EDE740F480202860F7E700BFE7
:10185000FFF708FC801B642870D828688003F7D540
:101860000CE0FFF7FFFB064605E000BFFFF7FAFBC1
:10187000801B6428F0D828688003F7D4207880077C
:101880004CD5A868E96800F00C0001F003010C28B1
:1018900002D004280DD001E002290AD0E068002817
:1018A00028682BD040F480702860FFF7DBFB0646E9
:1018B00019E02868400502D5E068002891D06868E2
:1018C000217C20F0FE4040EA01606860BF4800686B
:1018D000FFF7E6FB002800D120E072E1FFF7C2FB32
:1018E000801B0228B8D828684005F7D56868217C95
:1018F00020F0FE4040EA016068600FE020F4807054
:101900002860FFF7AFFB064605E000BFFFF7AAFB24
:10191000801B0228A0D828684005F7D4207800074B
:1019200029D560690028D5F8940013D040F0010053
:10193000C5F89400FFF796FB064606E090E000BF6E
:10194000FFF790FB801B022886D8D5F8940080070B
:10195000F6D510E020F00100C5F89400FFF782FBF7
:10196000064604E0FFF77EFB801B022878D8D5F8F6
:1019700094008007F6D42078400761D5A86D002632
:10198000C00008D4A86D40F08050A865A86D01265D
:1019900000F0805000908E480168C90511D401689C
:1019A000804641F480710160FFF75CFB074604E06C
:1019B000FFF758FBC01B022852D8D8F80000C0051A
:1019C000F6D5A068012815D00528D5F8900016D0C6
:1019D00020F00100C5F89000D5F8900020F0040038
:1019E000C5F89000A06841F28838B8B1FFF73AFB1B
:1019F00007460EE0D5F8900040F00100F0E740F017
:101A00000400C5F89000F5E7FFF72CFBC11B41452A
:101A100026D8D5F890008007F6D50CE0FFF722FB1A
:101A2000074604E0FFF71EFBC11B414518D8D5F857
:101A300090008007F6D41EB1A86D20F08050A865F4
:101A40002078800629D5A0690028D5F8980013D001
:101A500040F00100C5F89800FFF704FB064606E0D9
:101A600075E000BFFFF7FEFA801B02286FD8D5F89B
:101A700098008007F6D510E020F00100C5F8980026
:101A8000FFF7F0FA064604E0FFF7ECFA801B0228A5
:101A90005DD8D5F898008007F6D4E069F0B3A9685E
:101AA000C1F3810103295DD00228286820F08070ED
:101AB000286003D0FFF7D6FA04464BE0FFF7D2FACE
:101AC000064604E0FFF7CEFA801B02283FD82868BC
:101AD0008001F7D4F4E908016FF00F0202EB011165
:101AE0000843218A5204490802EB4151A26841EAA5
:101AF00002210843217D4FF07E42490802EB4161FB
:101B00000843217B40EAC160E968324A114008433A
:101B1000E860286840F08070286000E05EE0E868D7
:101B200040F08070E860FFF79DFA044605E000BFD2
:101B3000FFF798FA001B022809D828688001F7D51A
:101B40004CE000BFFFF78EFA001B022802D90320E9
:101B5000BDE8F88328688001F4D4E8681E4908408D
:101B6000E8603BE00128F3D0E868226A00F0030156
:101B7000914226D1616A00F0F002090110399142C8
:101B80001FD1A26A00F4FE41B1EB022F19D194F8E3
:101B90002C2000F07841B1EBC26F12D1218E00F4FD
:101BA000C00249084905A1F50011914209D194F8F4
:101BB000341000F0C06049084906A1F1007181426B
:101BC0000CD00120C4E700000010024008000020F3
:101BD000007000400C809F01FCFFEEFE0020B7E784
:101BE000704770477047000030B590F83C20012ADC
:101BF00042D0012280F83C20CA688B6822F44072EF
:101C00001A434B6822F480621A430B6822F4006284
:101C10001A430B6922F480521A434B6922F4005292
:101C20001A430B6B22F480421A430B8B22F470226E
:101C300042EA0342CB6922F080521A430F4D0368F7
:101C40000024AB4202D00E4DAB4210D10D8D22F4D8
:101C5000700242EA05520D6A22F080722A434D6AF0
:101C600022F000722A43C96A22F000520A435A64E1
:101C700080F83C40002030BD022030BD002C0140E7
:101C8000003401407047704770470000F0B590F88D
:101C90003C20012A3AD0012580F83C50022280F8ED
:101CA0003D2003685A689C68194E1A4FB34201D010
:101CB000BB4204D122F4700C4A6842EA0C02DFF8FD
:101CC00058C002EA0C02D1F800C04CEA020CC3F87A
:101CD00004C00268B2420DD0B2F1804F0AD00F4B5F
:101CE0009A4207D00E4B9A4204D0BA4202D00D4B12
:101CF0009A4204D1896824F080031943916080F8E6
:101D00003D50002180F83C100846F0BD0220F0BD97
:101D1000002C0140003401408FFFFFFD0004004013
:101D2000000800400040014010B50446022249B1BD
:101D300004290ED0082913D094F84700012816D0A2
:101D4000012010BD94F844000128F9D184F8442002
:101D50000FE094F845000128F2D184F8452008E00E
:101D600094F846000128EBD184F8462001E084F87D
:101D700047200422206800F030FE2068416C41F4C6
:101D8000004141641049206888420ED0B0F1804F74
:101D90000BD00E49884208D00D49884205D00D4924
:101DA000884202D00C49884207D181680B4A114011
:101DB000062906D0B1F5803F03D0016841F001014A
:101DC0000160002010BD0000002C01400004004014
:101DD00000080040003401400040014007000100BD
:101DE000704710B5040003D094F83D0010B107E02F
:101DF000012010BD002084F83C00204600F022F8AD
:101E0000022084F83D00211D206800F07BFD0120A8
:101E100084F8480084F83E0084F83F0084F84000CD
:101E200084F8410084F8420084F8430084F84400B8
:101E300084F8450084F8460084F8470084F83D00A3
:101E4000002010BD08B500680649884208D1064840
:101E5000016E41F400610166006E00F400600090C4
:101E600008BD0000002C01400010024090F83D1019
:101E7000012901D001207047022180F83D1000683F
:101E80000F4988420ED0B0F1804F0BD00D498842E7
:101E900008D00D49884205D00C49884202D00C492F
:101EA000884207D181680B4A1140062906D0B1F556
:101EB000803F03D0016841F00101016000207047BC
:101EC000002C0140000400400008004000340140A4
:101ED000004001400700010090F83D10012901D0A9
:101EE00001207047022180F83D100168CA6842F065
:101EF0000102CA600068104988420ED0B0F1804FDC
:101F00000BD00E49884208D00D49884205D00D49B2
:101F1000884202D00C49884207D181680B4A11409F
:101F2000062906D0B1F5803F03D0016841F00101D8
:101F30000160002070470000002C014000040040B8
:101F4000000800400034014000400140070001004B
:101F500070B5044690F83C000025012814D00126F5
:101F600084F83C60022084F83D0022689068364B7B
:101F7000184020F47F409060086870282ED010DC54
:101F800010F00F0F03D021E04FF0020070BD4FEAB8
:101F90002012072A1AD2DFE802F0525252524A386F
:101FA00040002A4BC21A984249D009DCB0F5805F44
:101FB0000DD0B0F5005F1CD0B0F1101F06D13EE08F
:101FC000102A3CD0202A3AD0502A38D0012584F853
:101FD0003D60002084F83C00284670BDCB68D1E904
:101FE0000121206800F006FD2068816841F077013A
:101FF00009E0CB68D1E90121206800F0FBFC2068F2
:10200000816841F480418160E1E7CA6849682068DD
:1020100000F09AFE5021206806E0CA6849682068EE
:1020200000F0A3FE6021206800F0EEFCCFE7CA6854
:102030004968206800F088FE40212068F4E72268A3
:1020400001461046F0E7000088FFCEFF2000100098
:1020500070472DE9F04104460068C66805694FF0F5
:102060000007A90713D5B10711D5F91E0161012099
:102070002077206880698007204602D0FFF7E8FFBC
:1020800004E000F001F9204600F0C3F92777680763
:1020900016D5700714D521686FF00400086102207E
:1020A00020772068806910F4407F204602D0FFF737
:1020B000CFFF04E000F0E8F8204600F0AAF9277707
:1020C000280715D5300713D521686FF0080008617F
:1020D000042020772068C0698007204602D0FFF7DF
:1020E000B7FF04E000F0D0F8204600F092F927771F
:1020F000E80616D5F00614D521686FF010000861C7
:10210000082020772068C06910F4407F204602D064
:10211000FFF79EFF04E000F0B7F8204600F079F9E1
:102120002777E80708D0F00706D021686FF0010094
:102130000861204600F0ECF9280601D4A80408D56F
:10214000300606D521686FF4025008612046FFF77B
:1021500048FDE80508D5300606D521686FF4807083
:1021600008612046FFF73CFD680608D5700606D5D5
:1021700021686FF040000861204600F0D3F9A806FE
:1021800008D5B00606D521686FF02000086120460A
:10219000FFF728FDE80208D5F00206D521686FF4A4
:1021A000801008612046FFF76EFDA80208D5B00236
:1021B00006D521686FF4001008612046FFF762FD24
:1021C000680208D5700206D521686FF480000861A6
:1021D0002046FFF759FD28020AD5300208D52168AC
:1021E0006FF4000008612046BDE8F041FFF7F8BD3C
:1021F000BDE8F081F0B587B0044614216846FEF7CB
:102200005BF81E492068884236D11D48C16C41F0F8
:102210000201C164C16C01F002010591C16C41F081
:102220000101C164C06C022500F0010005904FF46B
:10223000C04000900024CDE901540626114FCDE99D
:10224000034669463846FEF7E9FDA8030090CDE94C
:1022500001540420CDE9034069463846FEF7DEFD0F
:102260004FF4E0600090CDE90154CDE903466946A2
:102270004FF09040FEF7D2FD07B0F0BD002C0140BA
:102280000010024000040048704770B5044690F802
:102290003C0000260D4601280BD0012084F83C00AC
:1022A0000C2A4AD007DC82B1042A20D0082A06D1A1
:1022B00031E0022070BD102A53D0142A63D00126C9
:1022C000002084F83C00304670BD206800F0A6FB7A
:1022D0002068816941F0080181612068816921F0ED
:1022E00004018161206881692A69114311E0206835
:1022F00000F0E2FB2068816941F40061816120689F
:10230000816921F480618161206881692A6941EADB
:1023100002218161D4E7206800F016FC2068C169C1
:1023200041F00801C1612068C16921F00401C16167
:102330002068C1692A69114311E0206800F04CFC53
:102340002068C16941F40061C1612068C16921F45C
:102350008061C1612068C1692A6941EA0221C161C5
:10236000AEE7206800F080FC2068016D41F00801B4
:1023700001652068016D21F0040101652068016D8F
:102380002A69114311E0206800F0A6FC2068016D65
:1023900041F4006101652068016D21F480610165EF
:1023A0002068016D2A6941EA0221016588E710B5BC
:1023B000040003D094F83D0010B107E0012010BDE7
:1023C000002084F83C00204600F022F8022084F827
:1023D0003D00211D206800F095FA012084F8480096
:1023E00084F83E0084F83F0084F8400084F84100FF
:1023F00084F8420084F8430084F8440084F84500DF
:1024000084F8460084F8470084F83D00002010BDA1
:102410007047704730B50446022269B1042912D0D2
:10242000082917D00C291CD0102921D094F843007A
:10243000012824D0012030BD94F83E000128F9D1B4
:1024400084F83E201DE094F83F000128F2D184F882
:102450003F2016E094F840000128EBD184F840209A
:102460000FE094F841000128E4D184F8412008E00D
:1024700094F842000128DDD184F8422001E084F87C
:1024800043200122206800F09BFA194B206819496B
:10249000194A984209D0884207D0904205D0174D7A
:1024A000A84202D0164DA84203D1456C45F4004520
:1024B0004564206898420CD0B0F1804F09D0114B90
:1024C000984206D0104B984203D0884201D09042E7
:1024D00007D181680D4A1140062906D0B1F5803F29
:1024E00003D0016841F001010160002030BD00000F
:1024F000002C0140003401400040014000440140F4
:1025000000480140000400400008004007000100AE
:1025100000680349884201D1FEF7AABD7047000058
:10252000001400407047FEE700EB8100006E00F0F1
:10253000F84070478068C0F3C00070478068C0F3FF
:10254000C00070478068C0F3800070478068C0F3A7
:1025500080007047042303EAD15310B5184443693F
:10256000C1F3045107248C40A3438A4013434361C1
:1025700010BD00EB8100016E21F0004111430166A6
:102580007047000070B592B000240F9410943C2165
:1025900068461194FDF790FE35484FF0A0410125A3
:1025A00001604FF44031C0E9011400F1100104262C
:1025B000C46081E8700004774477056280F82440A5
:1025C00080F83840C46380F84040FEF7C5FA08B18F
:1025D000FDF753FF0FA926480F94FEF751FA08B1F3
:1025E000FDF74BFF234800900920CDE901057F202E
:1025F0000594CDE9030684200A908DF824404FF419
:1026000080708DF825400B9008968DF826408DF847
:10261000304069461648FDF733FF08B1FDF72DFF3E
:102620001548009040F20F10019069461048FDF7E0
:1026300027FF08B1FDF721FF1048009040F2152058
:10264000019069460A48FDF71BFF08B1FDF715FF29
:102650000B48009040F21B30019069460448FDF79A
:102660000FFF002801D0FDF708FF12B070BD000079
:102670004800002002003004040060080800900CAC
:102680001000C010074910B5054808600846FEF75D
:1026900097FB002803D0BDE81040FDF7EEBE10BD4B
:1026A000000C0240B40000200D4808B5C16C41F098
:1026B0002001C164C16C01F020010091C16C41F0A6
:1026C0000101C164C16C01F001010091C16C41F0D4
:1026D0000201C164C06C00F00200009008BD00005F
:1026E0000010024030B59BB0002419941A9417943E
:1026F0001894149415941C2168461694FDF7DCFD7B
:10270000342107A8FDF7D8FD3D483C49C0E9001435
:102710002021816041F26801C0E903148021C0E9F1
:102720000541FFF75EFB08B1FDF7A7FE4FF48050AF
:10273000179017A93248FFF70BFC08B1FDF79DFE73
:102740002F48FFF734FE08B1FDF797FE7025CDE95D
:10275000145414A92A481694FFF798FA08B1FDF703
:102760008CFE40F634000095CDE9010403940494F6
:1027700005940022694622480694FFF786FD08B1B9
:10278000FDF77BFE042269461D48FFF77EFD08B178
:10279000FDF773FE082269461948FFF776FD08B178
:1027A000FDF76BFE4FF4967001900C2269461448B9
:1027B000FFF76BFD08B1FDF760FE4FF40060079076
:1027C000401008908010CDE909044001CDE90B408C
:1027D0000D9400030E94CDE90F40C012CDE91240D4
:1027E00007A911940648FFF7FFF908B1FDF745FE68
:1027F0000348FFF7FFFC1BB030BD0000002C014078
:10280000DC000020FEE7FEE77047704710B51A486D
:10281000FFF72CFB00211848FFF7FCFD04211648A8
:10282000FFF7F8FD08211448FFF7F4FD0C211248CA
:10283000FFF7F0FD00211048FFF776FA04210E485B
:10284000FFF772FA08210C48FFF76EFA0A4940F6C2
:1028500034000A6850630A6890630968C8630748CF
:102860000068416841F0400141600448FEF794F877
:10287000BDE81040FDF7DCBDDC0000204800002072
:10288000704710B594B038216846FDF715FD142146
:102890000EA8FDF711FD0020FEF79EFC0120009020
:1028A0000004032406210190CDE9084102205421AF
:1028B000CDE90A1007900C900D906846FEF78EFF48
:1028C00008B172B6FEE70F20CDE90E04002010908B
:1028D0001190129004210EA8FEF728FE002801D0C6
:1028E00072B6FEE714B010BD0248016841F47001F1
:1028F0000160704788ED00E00148FFF7AABB0000C7
:10290000280100202DE9F0430268264B264D274E72
:10291000274C4FF08049984207D0484505D0A8423F
:1029200003D0B04201D0A04203D122F070074A6820
:102930003A43204FDFF880C0DFF8808098420DD006
:1029400048450BD0A84209D0B04207D0A04205D0DC
:10295000B84203D0604501D0404503D122F4407510
:10296000CA682A434D6922F080022A4302608A68BD
:10297000C2620A688262984207D0A04205D0B8427B
:1029800003D0604501D0404501D1096901630121AF
:1029900041610169C90703D0016921F001010161A9
:1029A000BDE8F083002C0140000400400008004016
:1029B0000034014000400140004401400048014013
:1029C00010B501F01F030121046A99408C43046291
:1029D000016A9A401143016210BD10B501F00F0366
:1029E0000421046A99408C430462016A9A401143AD
:1029F000016210BD10B5846842EA032224F47F44CA
:102A00000A432243826010BD8268034B1A400A4386
:102A100042F00701816070478FFFCFFF2DE9F0433F
:102A2000056A026A22F001020262436882691C4C54
:102A300025F0020522400C6822F0030214438A6844
:102A4000194E2A43174D194FDFF864C0DFF8649020
:102A5000A84207D0B04205D0B84203D0604501D0AB
:102A6000484506D122F00808CA6842EA080222F066
:102A70000402A84207D0B04205D0B84203D0604556
:102A800001D0484505D14D6923F440731D438B693E
:102A90002B4343608461496841630262BDE8F0836F
:102AA0008FFFFEFF002C0140003401400040014038
:102AB0000044014000480140F0B5056A026A22F076
:102AC0001002026242688369194C1B4E23400C6855
:102AD00023F4407343EA042425F020038D6843EA7D
:102AE0000513144DA84201D0B04206D1CF6823F09F
:102AF000800343EA071323F04003A8420AD0B04200
:102B000008D00E4DA84205D00D4DA84202D00D4D63
:102B1000A84207D14D6922F4406242EA85028D69DC
:102B200042EA850242608461496881630362F0BDC4
:102B3000FF8FFFFE002C01400034014000400140A7
:102B40000044014000480140F0B5056A026A22F4E1
:102B5000807202624368C269194C1B4E22400C68A5
:102B600022F00302144325F400728D6842EA052224
:102B7000144DA84201D0B04206D1CF6822F40062C1
:102B800042EA072222F48062A8420AD0B04208D06A
:102B90000E4DA84205D00E4DA84202D00D4DA842C0
:102BA00007D14D6923F4405343EA05138D6943EA85
:102BB00005134360C4614968C1630262F0BD00004F
:102BC0008FFFFEFF002C0140003401400040014017
:102BD0000044014000480140F0B5056A026A22F451
:102BE000805202624268C369194C1B4E23400C6834
:102BF00023F4407343EA042425F400538D6843EA28
:102C00000533144DA84201D0B04206D1CF6823F459
:102C1000004343EA073323F48043A8420AD0B0427A
:102C200008D00E4DA84205D00D4DA84202D00D4D42
:102C3000A84207D14D6922F4404242EA85128D69CB
:102C400042EA85124260C461496801640362F0BDD2
:102C5000FF8FFFFE002C0140003401400040014086
:102C6000004401400048014030B5056A026A22F480
:102C7000803202624268036D114C23400C681C4391
:102C800025F400330D8943EA05430E4DA8420BD0CD
:102C90000D4DA84208D00D4DA84205D00C4DA842BC
:102CA00002D00C4DA84204D14D6922F4803242EA90
:102CB00005224260046549688164036230BD0000FA
:102CC0008FFFFEFF002C0140003401400040014016
:102CD000004401400048014030B5046A026A22F411
:102CE000801202624268036D114D24F400142B40DF
:102CF0000D6843EA05230D8944EA05540D4DA842A9
:102D00000BD00D4DA84208D00C4DA84205D00C4D5B
:102D1000A84202D00B4DA84204D14D6922F4802272
:102D200042EA8522426003654968C164046230BD9D
:102D3000FF8FFFFE002C01400034014000400140A5
:102D4000004401400048014010B5036A046A24F0C1
:102D500001040462846924F0F00444EA021423F0BC
:102D60000A020A438461026210BD10B5036A046A54
:102D700024F010040462846923F0A00324F4704456
:102D800044EA023243EA01118261016210BDFEE7AA
:102D90000907090E002804DB00F1E02080F8001488
:102DA000704700F00F0000F1E02080F8141D70471C
:102DB000FEF766F9FFF765FDFFF776FCFFF762FCAB
:102DC000FFF7E0FBFFF78EFCFFF720FDFEE74FF07B
:102DD0004070E1EE100A70470000000000000000A3
:102DE00001020304060708090000000001020304B1
:102DF000102E000800000020180000001402000837
:102E0000282E000818000020C0070000300200082B
:102E100000000000000000001000000001000000A1
:082E2000000000000024F40092
:04000005080001D915
:00000001FF
