:020000040800F2
:10000000E8540020ED010008CD5000085B470008CF
:100010001D4F000829120008D971000800000000D7
:10002000000000000000000000000000ED58000883
:10003000151500080000000055540008456500082B
:10004000070200080702000807020008070200086C
:10005000070200080702000807020008070200085C
:10006000070200080702000807020008070200084C
:10007000070200080702000807020008070200083C
:100080000702000800000000490B000807020008F2
:10009000070200080702000807020008070200081C
:1000A000070200080702000807020008070200080C
:1000B00007020008070200080702000807020008FC
:1000C00007020008070200080702000807020008EC
:1000D00007020008070200080702000807020008DC
:1000E00007020008070200080702000807020008CC
:1000F00007020008070200080702000800000000CD
:1001000000000000070200080000000007020008CD
:1001100007020008000000000702000807020008AC
:10012000070200080702000807020008070200088B
:10013000070200080000000000000000070200089D
:10014000070200080702000800000000000000008D
:10015000000000000000000000000000000000009F
:10016000000000000000000000000000070200087E
:10017000070200080000000000000000000000006E
:10018000000000000702000800000000000000005E
:10019000000000000000000000000000000000005F
:1001A000000000000000000007020008070200082D
:1001B000070200080702000807020008000000000C
:1001C000000000000702000800000000000000001E
:1001D0000702000807020008DFF80CD000F076FBE9
:1001E00000480047A9910008E854002006488047CD
:1001F00006480047FEE7FEE7FEE7FEE7FEE7FEE70C
:10020000FEE7FEE7FEE7FEE7B5650008D901000856
:100210002DE9F05F0546002092469B46884606463B
:10022000814640241BE0284641464746224600F0CE
:1002300050FA53465A46C01A914110D311461846F7
:10024000224600F037FA2D1A67EB01084F46224686
:100250000120002100F02EFA17EB00094E41201E6C
:10026000A4F10104DFDC484631462A464346BDE896
:10027000F09FD2B201E000F8012B491EFBD270477B
:100280000022F6E710B513460A4604461946FFF762
:10029000F0FF204610BD2DE9FE4F804681EA0300A5
:1002A000C00F0C46009021F0004123F00045B8EB50
:1002B0000200A94105D24046214690461C460B4605
:1002C000024623F00040104347D0270DC7F30A0031
:1002D000C3F30A510290401A019040286BDAC3F32D
:1002E000130040F4801B0098924620B10023D2EB0B
:1002F000030A63EB0B0B01985946C0F140025046CC
:1003000000F0D8F906460D4650465946019A00F0CD
:10031000F0F910EB08006141002487EA115284EAE9
:10032000E7731A4340D0009A62B3019A012A4FEA58
:10033000075215DC001B61EB02014FF0004202EA9C
:100340000752CDE90042001C41F5801132462B4690
:1003500000F027FA03B0BDE8F08F40462146F9E7E8
:10036000001B61EB0201001C41F5801300185B418A
:100370002018A2F5001747EB030140EAD570B61923
:100380006D4111E06D084FEA360645EAC0754FEA47
:100390000752001B61EB0201001C41F58011490866
:1003A0004FEA30000019514132462B4603B0BDE8F8
:1003B000F04F00F0E7B90098012240000023D0EB95
:1003C000020263EBE073009821464FEAE074B8EB59
:1003D000000061EB0401E9E783F000435BE781F093
:1003E000004158E72DE9FE4F81EA030404F0004480
:1003F00021F0004100944FF0000B23F0004350EA3D
:1004000001045ED052EA03045BD0C3F30A54C1F383
:100410000A552C44A4F2F3340194A0FB0254C1F316
:10042000130141F48011C3F3130343F4801301FB60
:10043000024400FB034E840A970A44EA815447EAC7
:100440008357A4FB076802958D0A05FB07854FEAD1
:10045000932C04FB0C542705029D4FEA065847EAEB
:100460001637B5EB08056EEB070C870E920E47EAC0
:10047000811742EA8312A7FB0201B6EB0B0164EB82
:1004800000042B0D43EA0C335E1844EB1C50DA4693
:100490005146E7FB0201C5F313044FEA0B3343EA6D
:1004A00014534FEA0432019C43EA0603A4F10C04FE
:1004B0000294009CCDE900B400F073F903B0BDE8EC
:1004C000F08F00200146F9E72DE9F04D81EA0304A1
:1004D00004F0004B21F0004514464FF0000A23F0D1
:1004E000004150EA050220D054EA01021DD0C5F3B4
:1004F0000A570246C5F31303C1F31300C1F30A56AA
:1005000040F4801543F48013A7EB0608101BD64671
:1005100008F2FD3873EB050002D308F1010801E091
:1005200092185B41B8F1000F03DA00200146BDE8E4
:10053000F08D00204FF48011064684460EE0171B14
:1005400073EB050705D3121B63EB050306434CEA67
:10055000010C49084FEA300092185B4150EA01074C
:10056000EDD152EA030012D082EA040083EA0501C9
:10057000084305D0101BAB4106D20122002306E040
:1005800000224FF0004302E06FF0010253101AEB1B
:1005900006004CEB085110EB0A0041EB0B01BDE8E3
:1005A000F04D00F0EFB80EB5C10F80EAE0700844DE
:1005B000CA07002140F233438DE80E000A460B467D
:1005C00000F0EFF803B000BDC1F30A5210B5C1F35B
:1005D000130140F2FF3341F480119A4201DA002006
:1005E00010BD40F233439A42A2F2334203DC52423E
:1005F00000F06FF810BD904010BD00F0004230F0E8
:1006000000400AD0C10D01F56071C0F3160042EA46
:100610000151C2084007114370470020014670474E
:1006200030B5041E71F1000404DB4FF00044404279
:1006300064EB0101141E73F1000405DB1C464FF04E
:100640000043524263EB04038B4208BF824230BD39
:1006500001F0004330B421F0004150EA010206D01D
:100660000A0DA2F56072C1F31301002A02DC30BC4E
:1006700000207047440F44EAC104C100E01830BCB8
:1006800000EBC25000F047B830B50B4601460020E1
:100690002022012409E021FA02F59D4205D303FA44
:1006A00002F5491B04FA02F52844151EA2F10102C5
:1006B000F1DC30BD202A04DB203A00FA02F10020F0
:1006C00070479140C2F1200320FA03F31943904090
:1006D0007047202A04DB203A21FA02F000217047FB
:1006E00021FA02F3D040C2F120029140084319469A
:1006F0007047202A06DBCB17203A41FA02F043EA82
:10070000E07306E041FA02F3D040C2F120029140CA
:100710000843194670470029A8BF7047401C49008C
:1007200008BF20F00100704710B4B0FA80FC00FA56
:100730000CF050EA010404BF10BC704749B1CCF181
:10074000200421FA04F411FA0CF118BF012121430D
:100750000843A3EB0C01CB1D4FEA00614FEA1020C8
:1007600042BF002010BC704700EBC350104400296A
:10077000A4BF10BC7047401C490008BF20F0010016
:1007800010BC704710B5141E73F1000408DA401C49
:1007900041F1000192185B411A4301D120F00100A0
:1007A00010BD2DE9F04D92469B4611B1B1FA81F290
:1007B00002E0B0FA80F220329046FFF77BFF044659
:1007C0000F4640EA0A0041EA0B0153465A460843E5
:1007D00013D0114653EA010019D0C8F14002504627
:1007E000FFF777FF05460E46504659464246FFF74B
:1007F00061FF084305D0012004E020463946BDE8EA
:10080000F08D0020054346EAE0762C4337430A98F2
:100810006305E40AA0EB08000022FD0A44EA4754FD
:100820000A3002D500200146E9E7010510196941A7
:10083000DDE9084500196941BDE8F04DA2E770B552
:1008400021F0004303430CD0C1F30A550024D5EB3B
:10085000040564EB0403D617AD1AB34102DB002094
:10086000014670BD201841EB025170BDC1F30A5220
:10087000C1F3130140F2FF3341F480119A4202DACE
:1008800000200146704740F233439A42A2F23342BD
:1008900002DC5242FFF71DBFFFF70CBF30B5041E4C
:1008A00071F1000404DB4FF00044404264EB0101AD
:1008B000141E73F1000405DB1C464FF00043524246
:1008C00063EB0403994208BF904230BD064C074DCC
:1008D00006E0E06840F0010394E807009847103410
:1008E000AC42F6D3FFF77CFCBC9C0008DC9C000803
:1008F0002DE9F04D00231A461B1A8A4103DB002024
:100900000146BDE8F08DC1F30A52C1F3130141F471
:1009100080154FF0000BD10702D100186D41521E17
:100920000027044640F2FF11384601EB620A3E46BA
:100930008046024600204FF48011FFF7CAFEC2191C
:100940007141BB1846EB0100B4EB030C75EB000CD6
:1009500004D3E41A65EB000517460E46241908F186
:1009600001006D4180463428E3DDF91946EB0600AD
:10097000091BA84103D24FF0FF32134601E00022C9
:1009800013461BEB070046EB0A51BDE8F04DFFF79D
:10099000F9BE000080B59FED441A9FED443A20EE69
:1009A000011AB0EEC11ABDEEC12AB8EEC22A31EE6C
:1009B000421A21EE031ABDEEC12A12EE102A02F1EC
:1009C000800E6FF35F2249F2B84CC0F6000C02EEC5
:1009D000102A6FF35F2E0CEB8203B8EE422A0CEB69
:1009E0008E0231EE421A92ED002A92ED013A93ED19
:1009F000004A93ED015A9FED2E7A33EE426A74EE6F
:100A0000050A20EE877A76EE060A74EE041ADFED08
:100A1000292A37EE607AF0EE080A75EE211A26EEE2
:100A2000206A61EEA21A21EE077A36EE216A36EECE
:100A3000076A21EE066A24EE227A36EE476A21EE34
:100A4000066A32EE066A81ED006A35EE445A32EEED
:100A5000036A26EE226A35EE057A36EE476A32EEF2
:100A6000027A33EE073A25EE205A23EE223A21EE9F
:100A7000066A35EE433A33EE063A21EE033A22EEA9
:100A8000222A32EE032A21EE021A34EE011AB5EEC2
:100A9000400AB1EE412AF1EE10FAB8BFB0EE421AA8
:100AA00080ED001A80BD00BF610B363B00000044A2
:100AB000DB0F49BCDB0F493C9FED201A9FED202A3C
:100AC00020EE010ABDEEC01A11EE100AB5EE400A82
:100AD000F1EE10FAB8BF013801EE100AB8EEC11AF3
:100AE00030EE410A20EE020ABDEEC01A9FED152A33
:100AF00011EE100A002130EE021AB1EB502F49F22C
:100B0000B8411CBF0020B0EE410AC0F6000101EE62
:100B1000100A01EB8001B8EE411A30EE410A91ED66
:100B2000001A91ED012AB7EE003A33EE403A23EE77
:100B3000011A20EE020A31EE000A704783F9223EC4
:100B400000000044000000C410B5024801F078FA2B
:100B500010BD00000C4F002070B50446206803F063
:100B60002FFE0646206803F030FE98B396BB20683F
:100B7000806800F00D0001280AD1206881681A4AB7
:100B80001140891C816000BF03202168086009E0D2
:100B9000E06D40F01000E065206E40F0010020663E
:100BA000012070BD01F07EFE054614E001F07AFEE2
:100BB000401B02280FD92068806800F0010050B166
:100BC000E06D40F01000E065206E40F0010020660E
:100BD0000120E6E705E02068806800F001000028B9
:100BE000E4D10020DDE70000C0FFFF7F38B50446F8
:100BF00000200090206803F0E8FD00284FD1206815
:100C000080682849084048B1E06D40F01000E06578
:100C1000206E40F001002066012038BD206803F0FE
:100C20009FFD00BF2048806800F0E07000F40000E5
:100C300080B11E4800681E49B0FBF1F0401C00EB7B
:100C400040008000009002E00098401E0090009854
:100C50000028F9D101F026FE05461AE0206803F0CD
:100C6000B4FD10B9206803F07BFD01F01BFE401BB2
:100C700002280ED92068006800F0010048B9E06D34
:100C800040F01000E065206E40F001002066012079
:100C9000C3E72068006800F001000028DED00020D3
:100CA000BBE700003F000080000300503000002040
:100CB000400D030030B52DED048B83B004460D4686
:100CC000E88800EE100AB8EE400ADFEDFE0A20EEDA
:100CD000200A84ED090A94ED090AFB48D0ED000AC8
:100CE000B0EE001A70EE810AB4EEE00AF1EE10FAEE
:100CF00003DD0120F54908701CE094ED090AF24873
:100D0000D0ED000AB0EE001A70EEC10AB4EEE00AAF
:100D1000F1EE10FA03D20220EC4908700AE0EB4829
:100D20000078012803D0E9480078022802D1002089
:100D3000E649087094ED090AE54880ED000A94ED53
:100D4000090ADFEDE40A20EE200ADFEDE30A20EED7
:100D5000200AE24880ED070A94ED090ADFEDE00A77
:100D600020EE200ADFEDDC0A20EE200A80ED0C0ADE
:100D7000288800EE100AB8EE400ADFEDDA0A20EE0D
:100D8000200ADFEDD90A80EE201A84ED001A688867
:100D900000EE100AB8EE400ADFEDD20A20EE200A7B
:100DA000DFEDD10A80EE201A84ED011AA88800EE4A
:100DB000100AB8EE400ADFEDCB0A20EE200ADFED84
:100DC000CA0A80EE201A84ED021AC0484078002832
:100DD0007ED1BE48007801287AD0BC48007802282D
:100DE000FAD0208D44F62061884272DA94ED000A30
:100DF000DFEDBE0A30EE600A10EE101A0846FFF76B
:100E0000FCFB41EC190BB0EE490AF0EE690A06F062
:100E1000C3FAB0EE408AF0EE608A9FEDB50B53EC5A
:100E2000102B51EC180BFFF7FBFB0DD294ED030ACE
:100E3000DFEDB10A20EE200AD4ED000A9FEDAF1AD3
:100E400000EE810A84ED030A94ED010ADFEDA70AA2
:100E500030EE600A10EE101A0846FFF7CEFB41ECA8
:100E6000190BB0EE490AF0EE690A06F095FAB0EEF9
:100E7000408AF0EE608A9FED9E0B53EC102B51ECF4
:100E8000180BFFF7CDFB0DD294ED040ADFED9A0AA3
:100E900020EE200AD4ED010A9FED981A00EE810A97
:100EA00084ED040A94ED020ADFED900A30EE600A48
:100EB00010EE101A0846FFF7A0FB41EC190BB0EE3C
:100EC000490AF0EE690A06F067FAB0EE408A01E0DE
:100ED0008AE019E0F0EE608A9FED850B53EC102B51
:100EE00051EC180BFFF79CFB7BD294ED050ADFED6C
:100EF000820A20EE200AD4ED020A9FED801A00EE4D
:100F0000810A84ED050A6CE094ED030ADFED770AAF
:100F100030EE600A10EE101A0846FFF76EFB41EC47
:100F2000190BB0EE490AF0EE690A06F035FAB0EE98
:100F3000408AF0EE608A9FED6E0B53EC102B51EC63
:100F4000180BFFF76DFB46D294ED040ADFED670A3C
:100F500030EE600A10EE101A0846FFF74EFB41EC27
:100F6000190BB0EE490AF0EE690A06F015FAB0EE78
:100F7000408AF0EE608A9FED5E0B53EC102B51EC33
:100F8000180BFFF74DFB26D294ED050ADFED570A4B
:100F900030EE600A10EE101A0846FFF72EFB41EC07
:100FA000190BB0EE490AF0EE690A06F0F5F9B0EE59
:100FB000408AF0EE608A9FED4E0B53EC102B51EC03
:100FC000180BFFF72DFB06D2002040490870208542
:100FD0000120487005E004203C490870002020856D
:100FE0004870208D401C208538484078012858D111
:100FF00094ED000AD4ED030A30EE600AD4ED0B0A3A
:1010000080EE201A8DED001A94ED010AD4ED040A49
:1010100030EE600AD4ED0B0A80EE201A8DED011A35
:1010200094ED020AD4ED050A30EE600AD4ED0B0A05
:1010300080EE201A8DED021A314890F9000000EE82
:10104000100AB8EEC00A2F480078694601EB80000C
:10105000D0ED000A20EE200A84ED060A284890F917
:10106000010000EE100AB8EEC00A2648407801EBF5
:101070008000D0ED000A20EE200A84ED070A204807
:1010800090F9020000EE100AB8EEC00A1D48807800
:1010900001EB8000D0ED000A20EE200A84ED080A62
:1010A00000BF94ED060AB0EEC00ADFED0E0AB4EE02
:1010B000E00AF1EE10FA39DC94ED070AB0EEC00A4E
:1010C00022E000002E33113C40000020FC000020F4
:1010D000000000209A99193F3ACD133F08010020E3
:1010E0006666663F33335340000080453333D33F59
:1010F000000000403333D33F3333733FCDCC4C3DFE
:1011000018000020120000205FED0A0AB4EEE00A89
:10111000F1EE10FA0ADC94ED080AB0EEC00A5FEDB9
:101120000F0AB4EEE00AF1EE10FA03DD03200849DD
:10113000087009E00648007818B1054800780328CF
:1011400002D100200249087003B0BDEC048B30BD11
:10115000FC00002010B52DED068BB0EE408AF0EEBD
:10116000608AB0EE000A28EE800AB0EE409AB4EE33
:10117000E88AF1EE10FA0BD2B1EE680AB4EEC08A3A
:10118000F1EE10FA04DBB0EE480ABDEC068B10BDA0
:10119000B4EEE88AF1EE10FA09DB38EE890AB4EE13
:1011A000C80AF1EE10FA02DD38EE490AEDE7B1EEB9
:1011B000680AB4EEC08AF1EE10FA0BD2B1EE680AFA
:1011C00030EE490AB4EEC80AF1EE10FA02D838EE51
:1011D000090ADAE738EE280AC0EE090AB0EE60AA7A
:1011E000B0EE4A0A06F0E2F8F0EE409AB0EE480A95
:1011F00009EEC90AB0EE408AB4EEE88AF1EE10FAC0
:1012000004DB38EE490AB0EE408A0AE0B1EE680A23
:10121000B4EEC08AF1EE10FA03D238EE090AB0EE4D
:10122000408AB0EE480AB0E700BFFEE710B5B3EE63
:10123000080A994880ED000A0E20974908719FED31
:10124000970A084680ED020A9FED950A80ED030A91
:101250009FED940A80ED040A90ED030A80ED060AE2
:1012600090ED030A80ED050A9FED8F0A80ED070AD5
:1012700042F2D00008849FED8D0A084680ED090AED
:101280009FED8B0A80ED0A0A9FED8A0A80ED0B0A1A
:101290009FED890A80ED0C0AB2EE000A80ED0D0A7E
:1012A0000120864988700220C87003200871002040
:1012B00048718871C871784890ED000A804880EDC7
:1012C000050A7549088C00EBD07149107C4A1183DE
:1012D0007148008C7B4988806F4890ED000A084671
:1012E00080ED000A9FED780A784880ED030A9FEDB3
:1012F000760A80ED040A9FED740A80ED050A6648BF
:1013000090ED090AD0ED0A0A20EE200A6F4880ED20
:101310000B0A4FF480406E490880002008719FED51
:101320006D0A084680ED050A9FED6B0A80ED0B0AF9
:10133000B7EE000A80ED090A9FED670A80ED0A0A00
:10134000B7EE000A654880ED060AB0EE080A07F01D
:101350000BF95148D0ED000A9FED611A60EE810A49
:1013600080EE801A5D4880ED071A4B4890ED0B0A1D
:10137000DFED5C0A20EE200AD0ED030A20EE200A01
:10138000564880ED000A444890ED0B0ADFED550AFF
:1013900020EE200AD0ED040A20EE200ADFED520AEA
:1013A00080EE201A4D4880ED011A01204349087251
:1013B0009FED3D0A494880ED020A9FED3B0A80ED12
:1013C000030A354890ED0D0ADFED480A20EE200AA9
:1013D000D0ED0C0A80EE201A404880ED0D1A2E4800
:1013E00090ED0D0ADFED3F0A20EE200A20EE000A04
:1013F000D0ED0C0A80EE201AB7EE000A21EE000AAA
:10140000DFED3B0A80EE201A344880ED0E1A9FED86
:10141000260A80ED110A9FED370A80ED170AB7EE14
:10142000000A80ED160A9FED340A80ED140A14209C
:101430002A49A1F860009FED2E0A084680ED190A9E
:10144000B7EE000A2D4880ED010A9FED2D0A80EDD0
:10145000080A002029498873B7EE000A084680ED83
:101460000A0A9FED280A80ED0B0A012081F830005E
:1014700000208886C8868887234804F049FA2348D4
:10148000214948609FED220A084680ED030A0020AA
:1014900008724872087010BD400000200000104221
:1014A000B5FE1639CBA1653F000000000AD7233CEA
:1014B000000048420000164400001645FC000020D1
:1014C00078000020000000203333D33F9400002038
:1014D000C40000200B246A412506813E080100203B
:1014E0009A99193FDB0FC94000409C469A260E414D
:1014F00000007A44E1CB1643713DCA3E74010020DE
:10150000C520703F0000C843CC4C0020CC01002017
:101510000000C8427047000070B5044603F0F8FAB6
:101520000546207908B9658002E0C5F580406080F5
:1015300094ED050A608800EE900AF8EE600A9FEDCF
:10154000461A10EE810A84ED020A94ED021A43480D
:10155000007900EE900AF8EE600A61EE200AB0EE23
:10156000600ADFED3F0AFFF7F5FD84ED030A3D4811
:101570008078D0BB3B484078012836D13A489FED6F
:101580003B1AF7EE000A9FED390A04F025FC208B88
:1015900044F62061884225DB208B45F208218842F1
:1015A0000BDA608B401C608394ED040AD4ED020AD0
:1015B00030EE200A84ED040A14E0012029498870E5
:1015C000D4ED040A608B00EE100AB8EE400A80EEFB
:1015D000801A84ED051A9FED250A84ED040A002087
:1015E00020836083208B401C20831E48C078012804
:1015F0001ED194ED0A0AD4ED090A20EE200A84EDEA
:101600000B0AD4ED070A94ED0B1A70EE810AB0EEC6
:10161000600ADFED130AFFF79DFD84ED070A94EDE4
:10162000070ADFED130A20EE200A84ED080A09E01C
:101630000C48C078022804D194ED030A84ED070A0F
:1016400000E000BFD4ED070AB0EE600A04F13401F7
:10165000081FFFF79FF970BD0000B43C4000002058
:1016600000003443FC0000200000002000000000C7
:1016700034FA8E3C72B600BFFEE700009FED191AE7
:10168000B0EE413A9FED181AF0EE413A174A92ED4A
:10169000061AB0EE410A92ED061ADFED121A21EE9B
:1016A000211AD2ED071A9FED102A02EE211AF0EE50
:1016B000410AB0EE401AF0EE601A0D4A92ED0C2A83
:1016C000D2ED0D2A21EE224A01EE824A81ED004A36
:1016D000B1EE414A24EE024A01EEA24A80ED004AF0
:1016E00000BF70473ACD133F3ACD933F940000209E
:1016F000C4000020F8B504460D460020009000BF4D
:1017000094F85800012801D10220F8BD012084F886
:10171000580000BF2046FFF71FFA06468EBBE06D5B
:1017200020F4885040F00200E065206881681B4A80
:10173000114005F0804242F000421143816000BF39
:1017400013E00098401C00901549009888420CD383
:10175000E06D20F0020040F01000E06500BF0020C6
:1017600084F8580000BF0120CFE720688168C90FC6
:101770000029E6D1E06D20F0020040F00100E065B4
:1017800004E0FFE7E06D40F01000E06500BF0020DE
:1017900084F8580000BF3046B7E70000C0FFFF3FA5
:1017A00002DE0400704700002DE9FC5F05460C4690
:1017B0000020019000900027686900B100BFFE4939
:1017C000E068884200D000E000BF00BF95F85800F4
:1017D000012802D10220BDE8FC9F012085F85800B5
:1017E00000BF686910B1206A01281ED1606809280D
:1017F0004ED1A06A60B194F8280000F07C00216806
:10180000C1F3846140EA4120E16A40EA010703E054
:101810002068C0F3846047022868C06CE74908402C
:1018200038432968C8646F6632E0A86E90B9216AAF
:10183000A96600206866A06A50B1206A401E94F82C
:10184000281001F07C010843E16A40EA010701E049
:10185000206A471E207900F01F010020884087433E
:101860002068C0F38460217901F01F01884007439C
:10187000A86E401EA866686E38436866A86E38B9C0
:101880002868C06CCD490840696E08432968C8645F
:10189000286802F085FFD8B994F8250070B994F84B
:1018A0002600400594F8241040EA01502968C968D0
:1018B00021F4401108432968C86009E02868C0681D
:1018C00020F4401094F8261040EA41502968C8607E
:1018D000286802F08EFF8246286802F061FF814688
:1018E000BAF1000F7ED1B9F1000FFBD1A06A08B1A7
:1018F000E06A88B994F82500012806D12868C068F4
:1019000040F000702968C86017E02868C06820F0BF
:1019100000702968C86010E094F82500012806D1FD
:10192000E86D40F02000E8650120019005E028689E
:10193000C06820F000702968C86094F83000012861
:101940000CD1606B40F00200A16B08432968096963
:1019500021F4FF7108432968086105E028680069DF
:1019600020F0020029680861A068B0F1004F0AD198
:1019700021680022286802F04AFF4FF000412868E1
:1019800002F06AFF08E0A2682168286802F03FFFC1
:101990000021286802F060FF60692968C968C1F306
:1019A000C101490000FA01F82069042840D02868E4
:1019B0002268216900F1600C0CEB8103D3F800C0B0
:1019C000DFF8FCB10CEA0B0C02F0F84B4BF0004BCB
:1019D0004BEA080B4CEA0B0CC3F800C000BF2868A8
:1019E000A26900E0CCE0216900F1600C0CEB8103FE
:1019F000D3F800C02CF0807C4CEA020CC3F800C085
:101A000000BF2868227F2169012A01D1520600E027
:101A10000022134600F1600C0CEB8102D2F800C0EA
:101A20002CF0007C4CEA030CC2F800C000BFA7E019
:101A30000021286802F0A1FEC0F3120030B9002195
:101A4000286802F09AFEC0F3846007E0002128684D
:101A500002F093FE90FAA0F0B0FA80F02168C1F392
:101A6000120119B92168C1F3846104E0216891FA77
:101A7000A1F1B1FA81F1884204D10022114628680F
:101A800002F0DFFE0121286802F077FEC0F31200A9
:101A900030B90121286802F070FEC0F3846007E0CD
:101AA0000121286802F069FE90FAA0F0B0FA80F0F7
:101AB0002168C1F3120119B92168C1F3846104E0FE
:101AC000216891FAA1F1B1FA81F1884204D1002292
:101AD0000121286802F0B5FE0221286802F04DFEBF
:101AE000C0F3120030B90221286802F046FEC0F3AC
:101AF000846007E00221286802F03FFE90FAA0F01F
:101B0000B0FA80F02168C1F3120119B92168C1F35C
:101B1000846104E0216891FAA1F1B1FA81F188426F
:101B200004D100220221286802F08BFE03212868DC
:101B300002F023FEC0F3120030B90321286802F03E
:101B40001CFEC0F3846007E00321286802F015FE44
:101B500090FAA0F0B0FA80F02168C1F3120119B92F
:101B60002168C1F3846104E0216891FAA1F1B1FA1E
:101B700081F1884204D100220321286802F061FE2D
:101B8000286802F027FE002873D12868E2682168DF
:101B9000D0F8B030C1F3120C23EA0C0302F0180B9A
:101BA000DFF820C02CFA0BFC0CEA010C43EA0C0312
:101BB000C0F8B03000BF07E000007F4000401004D4
:101BC00000F0FF03FFFF07007849E068884250D12A
:101BD0002368C3F312031BB92368C3F3846304E0CF
:101BE000236893FAA3F3B3FA83F35B1C03F01F0398
:101BF000092B3FD82368C3F312031BB92368C3F32F
:101C0000846304E0236893FAA3F3B3FA83F35B1CC1
:101C100003F01F034FF0010C0CFA03FC2368C3F31D
:101C200012031BB92368C3F3846304E0236893FAA7
:101C3000A3F3B3FA83F35B1C03F01F034CEA836C3A
:101C40002368C3F312031BB92368C3F3846304E05E
:101C5000236893FAA3F3B3FA83F35B1C03F01F0327
:101C600003EB43034FF0000B4BEA03534CEA03032F
:101C70003FE043E02368C3F312031BB92368C3F3B7
:101C8000846304E0236893FAA3F3B3FA83F35B1C41
:101C900003F01F034FF0010C0CFA03FC2368C3F39D
:101CA00012031BB92368C3F3846304E0236893FA27
:101CB000A3F3B3FA83F35B1C03F01F034CEA836CBA
:101CC0002368C3F312031BB92368C3F3846304E0DE
:101CD000236893FAA3F3B3FA83F35B1C03F01F03A7
:101CE0000A3B03EB43034FF0007B4BEA03534CEA00
:101CF00003031946A268286802F089FD2C49206870
:101D0000084050B300BF2B48806800F0E07600BF69
:101D100029492068884203D02849206888421DD17B
:101D200006F40000D0B92868B0F1A04F37D146F4CE
:101D30000001204802F07FFD214800682149B0FBE6
:101D4000F1F0801C00EB40008000009002E0009861
:101D5000401E009000980028F9D120E01A49206820
:101D600088420CD106F0807048B91849286888422A
:101D700015D046F080710F4802F05DFD0FE0144968
:101D8000206888420BD106F4800040B90F492868CA
:101D9000884204D046F48001064802F04CFD00BFA2
:101DA000002085F8580000BF019814E500007F402E
:101DB0000000088000030050000021C31000C09004
:101DC00030000020400D0300000052C70001005009
:101DD000000084CB10B504460122D1020E4800F069
:101DE0005BFD2068D0F880000C4908802068D0F89E
:101DF000840048802068D0F8880088802068D0F867
:101E00008C00C88007F064FA00224FF40061024899
:101E100000F042FD10BD000000080048080000204E
:101E2000704700002DE9F041044600BF3D4880683E
:101E300000F01F000546206802F0B2FC10B102203D
:101E4000BDE8F0812068C06800F000472068C06CE1
:101E500000F4C07030B92FB9E06D40F02000E065AB
:101E60000120EDE700BF94F85800012801D10220BD
:101E7000E6E7012084F8580000BF2046FEF7B6FED2
:101E80000646002E46D1E06D00F4807020B1206E31
:101E900020F00800206601E000202066E06D42F29C
:101EA0000101884340F48050E0651F492068884262
:101EB00002D14FF0A04000E020682168884200D0A5
:101EC0001DB9E06D20F48010E06560202168086095
:101ED00000BF002084F8580000BF134920688842E2
:101EE00002D14FF0A04000E020682168884204D071
:101EF0001DB1062D01D0072D07D1206802F046FC48
:101F000068B9206802F052FC09E0E06D40F48010EE
:101F1000E06504E000BF002084F8580000BF3046B0
:101F20008EE700000003005000010050704770472A
:101F30002DE9F0439BB004460E464FF00008306890
:101F400000B100BF00BF94F85800012803D102205F
:101F50001BB0BDE8F083012084F8580000BF0020CA
:101F6000179018902068B0F1A04F02D1314800902E
:101F700001E000200090009850B9E06D40F0200092
:101F8000E06500BF002084F8580000BF0120DFE7B3
:101F9000009802F02EFC0746206802F02AFCD8BB0D
:101FA000D7BB254D306800B394F83800716841EA1A
:101FB0004030A96821F460410843A8604FF0A04078
:101FC00002F008FC81461B4802F004FC49EA0009C3
:101FD000B9F1000F27D1B16830680843A96840F60D
:101FE0001F7291430843A8601DE0A86820F4604078
:101FF000A8604FF0A04002F0EDFB81460D4802F0D2
:10200000E9FB49EA0009B9F1000F0CD1A86840F6D4
:102010001F718843A86006E0FFE7E06D40F02000F4
:10202000E0654FF0010800BF002084F8580000BFB1
:1020300040468DE700010050000300507047704794
:102040002DE9F84F044600200090206805682068BC
:102050004668C54802F08CFB074605F002000228DE
:1020600011D106F0020002280DD1E06D00F0100041
:1020700018B9E06D40F40060E0652046FFF792FB80
:1020800002202168086005F00400042803D106F04E
:102090000400042807D005F0080008285FD106F0E6
:1020A000080008285BD1E06D00F0100018B9E06D61
:1020B00040F40070E065206802F0A0FB002848D0E2
:1020C000AA492068884202D14FF0A04000E0206871
:1020D0002168884204D01FB1052F01D0092F03D1F8
:1020E0002068D0F80C800AE0A0492068884202D11C
:1020F0004FF0A04000E020688346DBF80C8008F435
:102100000050B0F5005F24D02068006800F008009F
:1021100008281ED1206802F067FB90B9206840684B
:1021200020F00C0021684860E06D20F48070E065CC
:10213000E06D00F4805060B9E06D40F00100E065B2
:1021400007E0E06D40F01000E065206E40F0010017
:1021500020662046FFF772FF0C202168086005F01A
:102160002000202803D106F02000202807D005F009
:102170004000402872D106F0400040286ED1E06D4A
:1021800000F0100018B9E06D40F40050E0652068E0
:10219000C16C01F4C07109B9012100E000218A4637
:1021A00000BF206802F02AFB8146704920688842FF
:1021B00002D14FF0A04000E020682168884204D09E
:1021C0001FB1062F01D0072F03D12068D0F80C8053
:1021D0000AE066492068884202D14FF0A04000E042
:1021E00020688346DBF80C80BAF1000F30D008F08D
:1021F000007028B1B9F1000F2AD008F4005038BBA4
:102200002068006800F04000402821D108F4001048
:10221000F0B9206802F0BFFA90B92068406820F059
:10222000600021684860E06D20F48050E065E06D5A
:1022300000F4807060B9E06D40F00100E06507E0F7
:10224000E06D40F01000E065206E40F00100206677
:102250002046FFF7BFFD60202168086005F0800080
:1022600080280DD106F08000802809D1E06D40F46F
:102270008030E065204600F0A9F9802021680860E0
:1022800005F48070B0F5807F0FD106F48070B0F552
:10229000807F0AD1E06D40F40030E0652046FFF712
:1022A00045FE4FF480702168086005F40070B0F5B9
:1022B000007F0FD106F40070B0F5007F0AD1E06D09
:1022C00040F48020E0652046FFF731FE4FF40070B7
:1022D0002168086005F0100010282AD106F01000CF
:1022E000102826D1E06B10B90120009010E047B112
:1022F00000BF1D48806800F4604048B10120009094
:1023000006E02068C06800F0010008B101200090DC
:10231000009801280AD1E06D40F48060E065206EED
:1023200040F0020020662046FFF789FE1020216859
:10233000086005F48060B0F5806F13D106F480600A
:10234000B0F5806F0ED1E06D40F48040E065206E06
:1023500040F0080020664FF4806021680860204645
:10236000FFF75EFDBDE8F88F00030050000100504C
:102370002DE9F84304464FF000080020009014B9FE
:102380000120BDE8F883606920B194F82400012899
:1023900000D100BFE06D30B9204600F019F90020EF
:1023A000206684F8580020688168C1F3407131B11B
:1023B000206881687E4A1140816000BF00BF2068AC
:1023C00002F00DFAB0B9206881687A4A114041F0F4
:1023D0008051816000BF784800687849B0FBF1F017
:1023E000401C4000009002E00098401E00900098C1
:1023F0000028F9D1206802F0F2F948B9E06D40F008
:102400001000E065206E40F0010020664FF00108EA
:10241000206802F0E9F90646E06D00F0100000289F
:1024200077D1002EFCD1E06D20F4807040F00200E6
:10243000E065206802F0C9F9B0B94FF0A04002F0A1
:10244000C4F981465E4802F0C0F949EA0009B9F1D1
:10245000000F09D160685B49896821F47C11014350
:10246000584A916000BF00BF607FE16B41EA403095
:10247000E1680843A168084394F8241040EA014544
:1024800094F82400012803D1208D401E45EA4045E0
:10249000E06A28B1A08D00F47870216B08430543F1
:1024A0002068C0684849084028432168C8602068FF
:1024B000006920F04060616B084321680861206872
:1024C00002F069F90746002E50D1EFBB207F0021B2
:1024D00041EA803194F8380041EA40052068C0683C
:1024E00044F20201884328432168C860206988B10A
:1024F0002068006940F48030216808612068D0F8C5
:10250000C0006FF30D00216908432168C1F8C000C5
:102510000EE045E02068006920F480302168086101
:102520002068D0F8C0006FF30D002168C1F8C0002A
:1025300094F84000012813D1606C40F00101A06CB8
:102540000843E16C084300E010E0216D0843216876
:10255000096940F2FC72914308432168086105E073
:102560002068006920F00100216808616069012885
:1025700009D12068006B20F00F00216A491E084332
:102580002168086305E02068006B20F00F002168D7
:102590000863E06D20F0020040F00100E06505E016
:1025A000E06D40F01000E0654FF001084046E8E6BD
:1025B000C0FFFF5FC0FFFF7F30000020400D030021
:1025C00000010050000300500740F0FF704700007A
:1025D00010B598B00446142113A8FDF751FE44210C
:1025E00002A8FDF74DFE2068B0F1A04F38D14FF49E
:1025F000004002908003119002A800F0BFFA08B1D9
:10260000FFF738F800BF1748C06C40F40050154978
:10261000C8640846C06C00F40050019000BF00BFC1
:1026200000BF0846C06C40F00100C8640846C06C9A
:1026300000F00100019000BF00BF0F2013900320A5
:1026400014900020159013A94FF0904000F03EF830
:1026500000221146122000F0A9F9122000F092F990
:1026600018B010BD0010024010B504460CB901208E
:1026700010BD94F8210028B9002084F820002046DD
:1026800000F00CF8002060626060A060E0602061F3
:102690006061012084F821000020E9E708B5094ABB
:1026A000016891420DD100BF0749896C41F00801D2
:1026B000054A91641146896C01F00801009100BF40
:1026C00000BF08BD000C02400010024078B5024671
:1026D0000B460021CAE001268E401D6805EA06046B
:1026E000002C73D01D7905F00305012D04D01D7950
:1026F00005F00305022D13D190684E000325B54067
:10270000A8434E00DD68B54028439060506801251D
:102710008D40A8431D79C5F300158D4028435060B6
:102720001D7905F00305032D09D0D0684E0003255F
:10273000B540A8434E009D68B5402843D0601D7940
:1027400005F00305022D13D1CE0802F1200555F83E
:1027500026004D07EE0E0F25B540A8434E07F60E96
:102760001D69B5402843CE0802F1200545F8260032
:1027700010684E000325B540A8431D7905F00305F8
:102780004E00B540284310605D6805F44035002DCB
:102790006BD000BF384D2D6E45F00105364E3566C5
:1027A00035462D6E05F00105009500BF00BF4FEACC
:1027B000B6358E0855F826008D072E0F0F25B5402B
:1027C000A843B2F1904F02D100251AE04DE02B4D05
:1027D000AA4201D1012514E0294DAA4201D10225C6
:1027E0000FE0284DAA4201D103250AE0264DAA4256
:1027F00001D1042505E0254DAA4201D1052500E0BF
:1028000006258E07360FB5402843214D8E0845F822
:102810002600204D2868A0435D6805F4801505B1A9
:1028200020431C4D28602D1D2868A0435D6805F4D9
:10283000001505B12043174D2D1D2860154D2D1F86
:102840002868A0435D6805F4003505B12043114DAB
:102850002D1F28602D1F2868A0435D6805F4803572
:1028600005B120430B4D083D2860491C1D68CD4033
:10287000002D7FF430AF78BD001002400004004806
:1028800000080048000C00480010004800140048F0
:1028900008000140080401400AB1816100E0816242
:1028A00070470000014800687047000024000020C5
:1028B00003480068034909680844014908607047F3
:1028C000240000202C00002010B50024032000F07C
:1028D000ABF80F2000F008F808B1012401E000F087
:1028E0002FF8204610BD000070B5044600251148A1
:1028F0000068D8B10F4800684FF47A71B1FBF0F06E
:102900000D490968B1FBF0F6304601F048F958B9B5
:10291000102C07D200222146501E00F047F807482D
:10292000046004E0012502E0012500E001252846BD
:1029300070BD00002C000020300000202800002086
:1029400008B500BF0E48006E40F001000C49086653
:102950000846006E00F00100009000BF00BF00BFFD
:102960000846806D40F0805088650846806D00F014
:102970008050009000BF00BF00F0F6F808BD0000D6
:10298000001002400146084600280DDB00BF00BFD2
:1029900000F01F0301229A4043099B0003F1E0234A
:1029A000C3F8002100BF00BF00BF70472DE9F05FF2
:1029B00080460D46164604F047FC074639462A462F
:1029C000334601F00700C0F1070ABAF1040F02D93B
:1029D0004FF0040A01E0C0F1070AD14600F1040AF1
:1029E000BAF1070F02D24FF0000A01E0A0F1030A8A
:1029F000D4464FF0010A0AFA09FAAAF1010A0AEAD2
:102A0000020A0AFA0CFA4FF0010B0BFA0CFBABF1BD
:102A1000010B0BEA030B4AEA0B042146404604F083
:102A20001BFCBDE8F09F000000BF00F00702064B52
:102A300019684FF6FF031940044B0B4343EA022188
:102A4000014B196000BF70470CED00E00000FA0573
:102A500002468ABB4148006800F4C060B0F5806F50
:102A60002BD13E488030006820F480703B4BC3F887
:102A700080001846006820F4C06040F400701860C0
:102A80003748006832235843364BB0FBF3F0411C03
:102A900000E0491E3148406900F48060B0F5806F65
:102AA00001D10029F5D12D48406900F48060B0F5CE
:102AB000806F51D10320704708E0284880300068BB
:102AC00020F48070254BC3F8800045E0B2F5007F0C
:102AD0003AD12248006800F4C060B0F5806F2AD176
:102AE0001E488030006840F480701C4BC3F88000A2
:102AF0001846006820F4C06040F400701860184860
:102B0000006832235843174BB0FBF3F0411C00E040
:102B1000491E1248406900F48060B0F5806F01D111
:102B20000029F5D10D48406900F48060B0F5806F50
:102B300012D10320BFE709488030006840F480705C
:102B4000064BC3F8800007E00448006820F4C0602A
:102B500040F48060014B18600020ACE7007000403A
:102B60003000002040420F000348806840F480405D
:102B70000149886070470000007000402DE9F8436B
:102B800004460027B846206800F40020B0F5002F66
:102B900073D1B946D348806D00F0805078B900BF3A
:102BA000D048806D40F08050CE4988650846806DE1
:102BB00000F08050009000BF00BF4FF00109CA48EC
:102BC000006840F48070C8490860FFF76BFE064655
:102BD00006E0FFF767FE801B022801D9032705E006
:102BE000C148006800F480700028F2D000BF002FB8
:102BF00046D1BC489030006800F44075CDB1206CDF
:102C0000A84216D0B7489030006820F44075B54807
:102C1000D0F8900040F48030B249C1F890000846E6
:102C2000D0F8900020F48030C1F890000846C0F839
:102C3000905005F00100A0B1FFF734FE064608E011
:102C4000FFF730FE801B41F28831884201D903270B
:102C500006E0A4489030006800F002000028EFD0A1
:102C600000BF5FB99F489030006820F44070216C2D
:102C700008439C49C1F8900003E00CE0B84600E02E
:102C8000B846B9F1010F05D19648806D20F080500B
:102C90009449886500BF207800F0010048B1914850
:102CA0008830006820F00300616808438D49C1F84E
:102CB0008800207800F00200022809D18948883075
:102CC000006820F00C00A16808438649C1F888001C
:102CD000207800F00400042809D182488830006878
:102CE00020F03000E16808437E49C1F88800207870
:102CF00000F00800082809D17A488830006820F0E0
:102D0000C000216908437749C1F88800207800F0A5
:102D10002000202809D173488830006820F44060E2
:102D2000616908436F49C1F88800207800F04000CD
:102D3000402809D16B488830006820F44050A169D0
:102D400008436849C1F88800207800F08000802896
:102D500009D164488830006820F44040E1690843A4
:102D60006049C1F88800208800F48070B0F5807F49
:102D700009D15C488830006820F44030216A08435B
:102D80005849C1F88800208800F40070B0F5007F31
:102D900009D154488830006820F44020616A084313
:102DA0005049C1F88800208800F48060B0F5806F39
:102DB00013D14C488830006820F44010A16A0843C1
:102DC000484988310860A06AB0F5801F05D14548A0
:102DD000C06840F480104349C860208800F4006057
:102DE000B0F5006F13D13F488830006820F44000F0
:102DF000E16A08433B4988310860E06AB0F5800F1A
:102E000005D13848C06840F480103649C860208831
:102E100000F48050B0F5805F13D1324888300068EC
:102E200020F04070216B08432E4988310860206BE8
:102E3000B0F1807F05D12B48C06840F4801029494B
:102E4000C860208800F40050B0F5005F13D1254819
:102E50008830006820F04060616B08432149883168
:102E60000860606BB0F1006F05D11E48C06840F487
:102E700080101C49C860208800F48040B0F5804F65
:102E800013D118488830006820F04060A16B0843D7
:102E9000144988310860A06BB0F1006F05D111486A
:102EA000C06840F480100F49C860208800F40040DA
:102EB000B0F5004F13D10B488830006820F0405027
:102EC000E16B0843074988310860E06BB0F1805F2F
:102ED00005D10448C06840F480300249C8604046CB
:102EE000BDE8F88300100240007000402DE9F04179
:102EF00004460D464FF0000814B90120BDE8F081EA
:102F00007D48006800F00F00A8420ED27A480068A1
:102F100020F00F002843784908600846006800F058
:102F20000F00A84201D00120E8E7207800F001005E
:102F3000002864D06068032823D17048006800F03E
:102F4000007008B90120D9E702F086FA06466C48FD
:102F5000864237D96948806800F0F00030B12078A7
:102F600000F0020002282DD1A06858BB6348806899
:102F700020F0F00040F08000604988604FF0800849
:102F800020E06068022806D15C48006800F4003048
:102F900040B90120B2E75948006800F4806008B9E0
:102FA0000120ABE700F0DEF806465548864209D915
:102FB0005248806820F0F00040F080004F4988605F
:102FC0004FF080084D48806820F003006168084396
:102FD0004A498860FFF766FC074608E0FFF762FC95
:102FE000C01B41F28831884201D9032086E743485B
:102FF000806800F00C006168B0EB810FEED12078A2
:1030000000F00200022820D1207800F004000428FB
:1030100005D13A48806840F4E060384988602078FB
:1030200000F00800082807D13448806820F4605078
:1030300040F4E060314988603048806820F0F0005A
:10304000A16808432D49886008E0B8F1800F05D1D8
:103050002A48806820F0F0002849886026480068E7
:1030600000F00F00A84219D92348006820F00F0093
:10307000284321490860FFF715FC074608E0FFF7E1
:1030800011FCC01B41F28831884201D9032035E789
:103090001948006800F00F00A842F0D1207800F035
:1030A0000400042807D11548806820F4E060E16836
:1030B000084312498860207800F00800082808D1E9
:1030C0000E48806820F46050216940EAC1000B4935
:1030D000886000F047F809498968C1F30311094A7B
:1030E000515C01F01F01C8400749086007480068AB
:1030F000FFF7FAFB02E70000002002400010024048
:1031000000B4C404D693000830000020280000203A
:1031100001480068704700003000002000B5FFF74C
:10312000F7FF05498968C1F30221044A515C01F0A7
:103130001F01C84000BD000000100240E6930008D7
:1031400000B5FFF7E5FF05498968C1F3C221044ACC
:10315000515C01F01F01C84000BD0000001002409A
:10316000E693000870B5224DAD6805F00C05042DFE
:1031700001D120483AE01E4DAD6805F00C05082D40
:1031800001D11D4832E01A4DAD6805F00C050C2D3B
:103190002BD1174DED6805F00304154DED68C5F30F
:1031A00003156A1C022C0CD0032C09D1124DB5FB5F
:1031B000F2F50F4EF668C6F3062605FB06F10AE0A7
:1031C00000BF0C4DB5FBF2F5094EF668C6F30626B6
:1031D00005FB06F100BF00BF054DED68C5F3416575
:1031E0006D1C6B00B1FBF3F000E0002070BD00002F
:1031F000001002400024F40000366E012DE9F8436F
:10320000044614B90120BDE8F883207800F00100DD
:10321000002865D0FC48806800F00C07FA48C068B8
:1032200000F003060C2F01D1032E01D0082F0AD184
:10323000F548006800F40030002851D0606800288C
:103240004ED10120DFE700BF6068B0F5803F06D1B6
:10325000ED48006840F48030EB4908601AE060688F
:10326000B0F5A02F0BD1E848006840F48020E64973
:1032700008600846006840F4803008600AE0E248D0
:10328000006820F48030E04908600846006820F4B7
:103290008020086000BF606888B1FFF703FB054627
:1032A00006E0FFF7FFFA401B642801D90320AAE7D4
:1032B000D548006800F400300028F2D010E0FFF795
:1032C000F1FA054606E0FFF7EDFA401B642801D944
:1032D000032098E7CC48006800F400300028F2D1C1
:1032E000207800F00200022860D1C748806800F012
:1032F0000C07C548C06800F003060C2F01D1022E50
:1033000001D0042F18D1C048006800F4806018B1C3
:10331000E06808B9012076E7BB48406820F0FE402D
:10332000217C40EA0160B8494860B8480068FFF76E
:10333000DBFA18B3012066E7E06800B3B248006822
:1033400040F48070B0490860FFF7ACFA054606E02B
:10335000FFF7A8FA401B022801D9032053E7AA4827
:10336000006800F480600028F2D0A748406820F090
:10337000FE40217C40EA0160A349486016E0A24873
:10338000006820F48070A0490860FFF78BFA0546BA
:1033900006E0FFF787FA401B022801D9032032E735
:1033A0009948006800F480600028F2D1207800F08D
:1033B0000800082836D16069D0B19348943000687D
:1033C00040F001009049C1F89400FFF76BFA054600
:1033D00006E0FFF767FA401B022801D9032012E735
:1033E00089489430006800F002000028F1D019E00C
:1033F00085489430006820F001008349C1F89400AA
:10340000FFF750FA054606E0FFF74CFA401B02288A
:1034100001D90320F7E67C489430006800F00200F0
:103420000028F1D1207800F00400042872D14FF078
:1034300000087548806D012121EA107078B100BF45
:103440007148806D40F080506F4988650846806DF6
:1034500000F08050009000BF00BF4FF001086C48A2
:10346000006800F48070B0B96948006840F480706A
:1034700067490860FFF716FA054606E0FFF712FAFB
:10348000401B022801D90320BDE66148006800F412
:1034900080700028F2D000BFA068012808D15A48E7
:1034A0009030006840F001005749C1F8900021E0D9
:1034B000A06805280FD154489030006840F00400FF
:1034C0005149C1F890000846D0F8900040F0010042
:1034D000C1F890000EE04C489030006820F00100E8
:1034E0004949C1F890000846D0F8900020F0040047
:1034F000C1F8900000BFA068A8B1FFF7D3F9054656
:1035000009E0FFF7CFF9401B41F28831884202D928
:10351000032078E625E03C489030006800F0020087
:103520000028EED013E0FFF7BDF9054608E0FFF7ED
:10353000B9F9401B41F28831884201D9032062E683
:1035400031489030006800F002000028EFD1B8F157
:10355000010F05D12C48806D20F080502A498865E4
:1035600000BF207800F02000202836D1A069D0B11B
:1035700025489830006840F001002349C1F89800C0
:10358000FFF790F9054606E0FFF78CF9401B02288B
:1035900001D9032037E61C489830006800F002008B
:1035A0000028F1D019E018489830006820F0010098
:1035B0001549C1F89800FFF775F9054606E0FFF7D1
:1035C00071F9401B022801D903201CE60E489830EF
:1035D000006800F002000028F1D1E069002860D006
:1035E0000948806800F00C000C287AD0E0690228B5
:1035F00058D10548006820F0807003490860FFF743
:1036000051F905460DE0000000100240280000209E
:1036100000700040FFF746F9401B022801D9032043
:10362000F1E54A48006800F000700028F2D1D4E9C2
:103630000810401E41EA0011A06A41EA0021208ED4
:103640000122C2EB500041EA40513420005DC2EB40
:10365000500041EA40612C20005D41EAC0603B49D6
:10366000C9683B4A114008433849C86008460068A9
:1036700040F0807008600846C06840F08070C86004
:10368000FFF710F9054606E0FFF70CF9401B02288A
:1036900001D90320B7E52D48006800F0007000282C
:1036A000F2D051E02948006820F080702749086076
:1036B000FFF7F8F8054606E0FFF7F4F8401B02288C
:1036C00001D903209FE52148006800F00070002820
:1036D000F2D11E48C0681F4908401C49C86033E049
:1036E000FFE7E069012800D18DE51848C66806F0BB
:1036F0000301206A814225D106F0F001606A401E74
:10370000B1EB001F1ED106F4FE41A06AB1EB002F01
:1037100018D106F078412C20005DB1EBC06F11D1BB
:1037200006F4C001208E0122C2EB5000B1EB405FD5
:1037300008D106F0C0613420005DC2EB5000B1EB4F
:10374000406F01D001205EE500205CE500100240E2
:103750000C809F01FCFFEEFE70B504460CB9012001
:1037600070BD606A38B96068B0F5827F00D105E04D
:103770000021E16102E00021216161610021A1627B
:1037800094F85D0028B9002084F85C00204600F021
:1037900061F8022084F85D002068006820F0400095
:1037A00021680860E068B0F5E06F01D9002501E00C
:1037B0004FF48055E068B0F5706F05D0E068B0F563
:1037C000E06F01D00021A162A08800F482702189FD
:1037D00001F404410843217C01F002010843217DEA
:1037E00001F001010843218B01F400710843217F9E
:1037F00001F0380108432021095D01F080010843F0
:10380000218D01F400510843216808600421A0695A
:1038100001EA104094F8241001F01001084394F8D4
:10382000341001F008010843A18901F470610843D4
:1038300005F480510843216848602068C06920F47D
:1038400000602168C86100202066012084F85D00C6
:10385000002085E710B586B00446142101A8FCF7C6
:103860000FFD18492068884229D100BF1648006E14
:1038700040F48050144908660846006E00F48050F9
:10388000009000BF00BF00BF0846C06C40F00100C0
:10389000C8640846C06C00F00100009000BF00BF83
:1038A000E020019002200290002003900320049069
:1038B0000520059001A94FF09040FEF707FF06B0E4
:1038C00010BD000000300140001002402DE9FF5FF4
:1038D0000446894692461D460E9E01200190002016
:1038E000009000BF94F85C00012803D1022004B0CE
:1038F000BDE8F09F012084F85C0000BFFEF7D2FF16
:10390000074694F85D00029060680390A846AB46B5
:10391000029801280BD00398B0F5827F04D1A068EB
:1039200010B90298042802D00220009030E1B9F1C9
:10393000000F03D0BAF1000F00D015B9012000909C
:1039400026E194F85D00042802D0052084F85D008B
:1039500000202066C4F840A0A4F84650A4F84450C3
:10396000C4F83890E587A587E0642065E068B0F585
:10397000E06F02D8BBF1010F06D92068406820F43F
:1039800080502168486005E02068406840F480501D
:10399000216848602068006800F04000402805D099
:1039A0002068006840F0400021680860E068B0F5D9
:1039B000E06F51D9606810B1B8F1010F09D1A06B67
:1039C00000882168C860A06B801CA063E08F401E47
:1039D000E08739E02068806800F00200022810D1FA
:1039E000E08F70B1019801280BD1A06B008821688D
:1039F000C860A06B801CA063E08F401EE0870020A1
:103A000001902068806800F0010080B1B4F84600A1
:103A100068B12068C068216C0880206C801C20641C
:103A2000B4F84600401EA4F8460001200190FEF7BD
:103A300039FFC01BB04207D3701C28B1032000908F
:103A4000012084F85D00A3E0E08F0028C2D1B4F823
:103A500046000028BED188E0606810B1B8F1010FBF
:103A600017D1E08F01280AD9A06B00882168C860AF
:103A7000A06B801CA063E08F801EE08709E0A06B34
:103A8000007821680873A06B401CA063E08F401E83
:103A9000E08763E02068806800F0020002281ED101
:103AA000E08FE0B10198012819D1E08F01280AD9EF
:103AB000A06B00882168C860A06B801CA063E08FA9
:103AC000801EE08709E0A06B007821680873A06B76
:103AD000401CA063E08F401EE0870020019020681A
:103AE000806800F0010058B3B4F8460040B3B4F861
:103AF0004600012816D92068C068216C0880206C17
:103B0000801C2064B4F84600801EA4F84600B4F877
:103B10004600012812D82068406840F4805021688F
:103B200048600BE02068007B216C0870206C401C12
:103B30002064B4F84600401EA4F84600012001901D
:103B4000FEF7B0FEC01BB04201D3701C00B92EB905
:103B500003200090012084F85D0019E0E08F002828
:103B600098D1B4F84600002894D13A463146204610
:103B700001F0A2FD18B10120009020202066206EE7
:103B800010B10120009002E0012084F85D0000BF28
:103B900000BF002084F85C0000BF0098A7E670B565
:103BA00004462546681EB0F1807F01D301200FE056
:103BB000681E4FF0E02148610F214FF0FF3003F005
:103BC0004BFB00204FF0E0218861072008610020B6
:103BD00070BD000010B50346002200BF93F83C0002
:103BE000012801D1022010BD012083F83C0000BF54
:103BF00022F0FF00CC6840EA040222F440708C6896
:103C000040EA040222F480604C6840EA040222F494
:103C100000600C6840EA040222F480500C6940EA1B
:103C2000040222F400504C6940EA040222F480406D
:103C30000C6B40EA040222F470200C8B40EA044230
:103C400022F08050CC6940EA0402124C1868A0426D
:103C500003D0114C1868A04213D122F470000C8DCF
:103C600040EA045222F080700C6A40EA040222F01A
:103C700000704C6A40EA040222F00050CC6A40EA2C
:103C800004021868426400BF002083F83C0000BFB3
:103C900000BFA8E7002C01400034014030B50246C7
:103CA0000B4600BF92F83C00012801D1022030BD34
:103CB000012082F83C0000BF022082F83D0010681D
:103CC0004168106884681D4D1068A84203D01C4DDF
:103CD0001068A84203D121F47001586801431948C3
:103CE00001401868014310684160144D1068A842F3
:103CF00013D01068B0F1804F0FD0134D1068A84258
:103D00000BD0124D1068A84207D00D4D1068A84284
:103D100003D00F4D1068A84205D124F080049868A4
:103D2000044310688460012082F83D0000BF002039
:103D300082F83C0000BF00BFB9E70000002C014042
:103D4000003401408FFFFFFD0004004000080040E8
:103D50000040014070B504460D4615B994F8440082
:103D60000BE0042D02D14520005D06E0082D02D1B4
:103D70004620005D01E04720005D012801D00120C0
:103D800070BD1DB9022084F844000EE0042D03D15B
:103D900002214520015508E0082D03D102214620CB
:103DA000015502E0022147200155042229462068DE
:103DB00002F081FC2068406C40F4004021684864B7
:103DC00018492068884213D02068B0F1804F0FD086
:103DD0001549206888420BD014492068884207D0D2
:103DE00013492068884203D012492068884210D1C4
:103DF00020688068104900EA0106062E0FD0B6F54B
:103E0000803F0CD02068006840F001002168086005
:103E100005E02068006840F001002168086000208B
:103E2000AEE70000002C0140000400400008004004
:103E300000340140004001400700010010B5044675
:103E40000CB9012010BD94F83D0028B9002084F879
:103E50003C00204600F02AF8022084F83D00211D95
:103E6000206802F0B1FB012084F8480000BF84F80C
:103E70003E0001213F2001554020015541200155C0
:103E8000422001554320015500BF00BF012084F8A6
:103E9000440045200155462001554720015500BFEB
:103EA000012084F83D000020CCE7000008B5094A55
:103EB000016891420DD100BF0749096E41F40061CC
:103EC000054A11661146096E01F40061009100BFB8
:103ED00000BF08BD002C014000100240014691F8CF
:103EE0003D00012801D001207047022081F83D00EB
:103EF000184B0868984213D00868B0F1804F0FD073
:103F0000154B086898420BD0144B0868984207D0AC
:103F1000134B0868984203D0124B0868984210D19E
:103F200008688068104B00EA0302062A0FD0B2F539
:103F3000803F0CD00868006840F001000B681860F2
:103F400005E00868006840F001000B681860002078
:103F5000CAE70000002C01400004004000080040B7
:103F60000034014000400140070001002DE9F0410C
:103F700004460D46002700BF94F83C00012802D1FA
:103F80000220BDE8F081012084F83C0000BF02203F
:103F900084F83D00206886683F48064026F47F4646
:103FA000206886602868702824D00CDC00F00F019F
:103FB000002964D10011072861D2DFE800F05354D2
:103FC000555649353F00354A811A90424FD009DC99
:103FD000B0F5805F0DD0B0F5005F18D0B0F1101FC4
:103FE0004DD143E0102943D0202942D0502946D159
:103FF00040E046E0D5E902136A68206802F06CFBF5
:104000002068866846F077062068866039E0D5E942
:1040100002136A68206802F05FFB2068806840F441
:104020008040216888602CE0EA686968206802F0B6
:104030003FFD5021206802F05BFB22E0EA686968DE
:10404000206802F048FD6021206802F051FB18E072
:10405000EA686968206802F02BFD4021206802F0C0
:1040600047FB0EE000BF00BF00BF00BF00BF00BFA6
:1040700000BF00BF2968206802F03AFB01E0012779
:1040800000BF00BF012084F83D0000BF002084F87D
:104090003C0000BF384674E788FFCEFF20001000C8
:1040A00010B586B00446142101A8FCF7E9F82649AA
:1040B0002068884245D100BF2448C06C40F002000F
:1040C0002249C8640846C06C00F00200009000BF9E
:1040D00000BF00BF0846C06C40F00100C86408463D
:1040E000C06C00F00100009000BF00BF4FF4C04062
:1040F0000190022002900020039004900620059079
:1041000001A91348FEF7E2FA4FF4004001900220A3
:1041100002900020039004900420059001A90C480F
:10412000FEF7D4FA4FF4E0600190022002900020E4
:10413000039004900620059001A94FF09040FEF7EF
:10414000C5FA06B010BD0000002C0140001002406E
:10415000000400482DE9F04104460D4616460027AC
:1041600000BF94F83C00012802D10220BDE8F08194
:10417000012084F83C0000BF0C2E51D005DC4EB16C
:10418000042E1ED0082E7AD133E0102E60D0142ECB
:10419000F9D175E02946206802F0B6FA20688069F6
:1041A00040F00800216888612068806920F00400E0
:1041B00021688861206880692969084321688861CD
:1041C00078E02946206802F0F5FA2068806940F41A
:1041D0000060216888612068806920F4806021681F
:1041E000886120688069296940EA01202168886126
:1041F00060E02946206802F037FB2068C06940F083
:1042000008002168C8612068C06920F004002168A6
:10421000C8612068C069296908432168C86149E00C
:104220002946206802F07AFB2068C06940F40060EB
:104230002168C8612068C06920F480602168C86175
:104240002068C069296940EA01202168C86131E01D
:104250002946206802F0BCFB2068006D40F0080091
:10426000216808652068006D20F004002168086559
:104270002068006D29690843216808651AE017E085
:104280002946206802F0DCFB2068006D40F40060E5
:10429000216808652068006D20F480602168086549
:1042A0002068006D296940EA01202168086501E065
:1042B000012700BF00BF00BF002084F83C0000BF02
:1042C000384653E710B504460CB9012010BD94F8E8
:1042D0003D0028B9002084F83C00204600F029F871
:1042E000022084F83D00211D206802F06DF90120B4
:1042F00084F8480000BF84F83E0001213F200155AA
:1043000040200155412001554220015543200155CF
:1043100000BF00BF012084F844004520015546201D
:1043200001554720015500BF012084F83D000020C1
:10433000CCE7704770B504460D4615B994F83E00B9
:1043400015E0042D02D13F20005D10E0082D02D1C0
:104350004020005D0BE00C2D02D14120005D06E005
:10436000102D02D14220005D01E04320005D0128B4
:1043700001D0012070BD1DB9022084F83E001AE072
:10438000042D03D102213F20015514E0082D03D153
:104390000221402001550EE00C2D03D102214120C5
:1043A000015508E0102D03D102214220015502E001
:1043B00002214320015501222946206802F06AF9B2
:1043C0002749206888420FD02649206888420BD0B0
:1043D00025492068884207D024492068884203D0B4
:1043E00023492068884201D1012000E0002028B143
:1043F0002068406C40F400402168486418492068F7
:10440000884213D02068B0F1804F0FD0194920683E
:1044100088420BD018492068884207D0114920688B
:10442000884203D010492068884210D120688068F3
:10443000124900EA0106062E0FD0B6F5803F0CD0D7
:104440002068006840F001002168086005E02068ED
:10445000006840F001002168086000208AE7000041
:10446000002C014000340140004001400044014064
:10447000004801400004004000080040070001001F
:10448000014600BF91F88400012801D10220704745
:10449000012081F8840000BF2420C1F8880008684A
:1044A00002680868006820F001000B68186022F0BC
:1044B000005200204866086802602020C1F8880089
:1044C00000BF002081F8840000BF00BFDFE770B5A7
:1044D00004460D4600BF94F88400012801D1022053
:1044E00070BD012084F8840000BF2420C4F8880037
:1044F000206806682068006820F0010021680860D4
:104500002068806820F06060284321688860204629
:1045100002F0F6FA206806602020C4F8880000BF88
:10452000002084F8840000BF00BFD9E770B50446BE
:104530000D4600BF94F88400012801D1022070BD0F
:10454000012084F8840000BF2420C4F8880020687B
:1045500006682068006820F0010021680860206873
:10456000806820F06040284321688860204602F07F
:10457000C7FA206806602020C4F8880000BF002029
:1045800084F8840000BF00BFD9E710B504460CB919
:10459000012010BDA06900B100E000BFD4F8880080
:1045A00028B9002084F88400204600F02BF824204D
:1045B000C4F888002068006820F0010021680860C5
:1045C000A06A10B1204602F0C7FA204602F0ECFBC8
:1045D000012800D1DDE72068406820F49040216880
:1045E00048602068806820F02A0021688860206880
:1045F000006840F0010021680860204602F028FBB6
:10460000C7E7000010B598B00446142113A8FBF7C3
:1046100037FE442102A8FBF733FE1C49206888427C
:1046200031D1012002900020039002A8FEF7A6FAE3
:1046300008B1FDF71FF800BF1548006E40F4804038
:10464000134908660846006E00F48040019000BFE0
:1046500000BF00BF0846C06C40F00200C8640846B6
:10466000C06C00F00200019000BF00BFC02013909A
:10467000022014900020159016900720179013A97F
:104680000448FEF723F818B010BD000000380140C0
:1046900000100240000400482DE9F84F04460E4681
:1046A00017469946D4F88800202854D106B117B986
:1046B0000120BDE8F88F00205434E06321206063BE
:1046C000FEF7F0F8824627806780543CA068B0F57A
:1046D000805F04D1206910B90025B04602E035465C
:1046E0004FF0000820E05346002280212046CDF8FC
:1046F000009002F01BFD20B12020C4F888000320A8
:10470000D7E745B9B8F80000C0F30800216888620F
:1047100008F1020803E02878216888626D1CB4F86B
:104720005600401EA4F85600B4F856000028DAD10E
:104730005346002240212046CDF8009002F0F6FCBE
:1047400020B12020C4F888000320B2E72020C4F85C
:1047500088000020ADE70220ABE700BFFEE70000C5
:104760008168024A1140491C81607047C0FFFF7F89
:104770000146886800F01F007047024602F16000A1
:1047800000EB8103186800F0F84070470146C868E4
:1047900000F00070704701468868C0F3C0007047A1
:1047A00001468868C0F3C000704700008168034A72
:1047B000114041F00801816070470000C0FFFF7F99
:1047C00001468868C0F3400070470146886800F0E1
:1047D000010070470146886800F0010070470146FB
:1047E0008868C0F30070704701468868C0F3800095
:1047F000704701468868C0F3800070470146C8686A
:1048000000F4406008B9012070470020FCE770B553
:1048100000F11404C1F3406504EB85031C68C1F387
:1048200004560725B540AC43C1F3045502FA05F51B
:104830002C431C6070BD826822F0E0720A438260E3
:10484000704710B500F1600404EB81031C6824F08C
:10485000004414431C6010BD426922F000420A4328
:1048600042617047184991ED070A80ED040A90ED06
:104870000B0ADFED160A80EE801ABCEEC10A10EEBC
:10488000101A41863C21018700218186C18641871B
:104890009FED0F0A80ED100AC1879FED0D0A80ED94
:1048A000110A9FED0B0A80ED120A9FED090A80EDB7
:1048B000130A9FED070A80ED140A9FED050A80EDAB
:1048C000150A012181877047C400002000401C4662
:1048D0000000000010B52DED048B0446A08F10B928
:1048E0002046FFF7BFFFE08F00287DD194F8360007
:1048F00000F0010010B1BFEE000A01E0B7EE000ABF
:10490000F0EE409A94ED0A0A20EE298A94F83000DD
:1049100058B994ED040AB0EE401A6148DFED610A1F
:10492000B0EE480A01F058FA0AE094ED040AB0EE3D
:10493000401A5B48F0EE480A9FED5A0A01F04CFA23
:1049400094F8300018B9584890ED040A02E056482F
:1049500090ED050AF0EE408AA08E28B9C4ED118AC8
:104960009FED500A84ED130A94ED130A30EE280AE5
:1049700084ED130AA08E401CA086A08E618E884212
:1049800056DBC4ED128A94ED0B0AF6EE002A82EE95
:10499000803AB0EE431AD4ED132AA08E00EE100A2E
:1049A000B8EE400A82EE803AF0EE431A94ED120A15
:1049B000D4ED112A30EE620AF0EE400AD4ED082A56
:1049C000B0EE480A02EEE10AB0EE402AB0EEE00A8C
:1049D000DFED362AB4EEE20AF1EE10FA22DD62EEE5
:1049E000012A82EEA03A00E056E0B0EE430ADFED85
:1049F000302AB4EEE20AF1EE10FA12DDDFED2D2AD4
:104A0000B4EEE20AF1EE10FA0BD2E08E062808DBD3
:104A1000D4ED102A72EE802AC4ED102A608F401C5B
:104A2000608700BFE08E401CE0860020A08600BFAB
:104A3000E08E218F88422EDB9FED1A0AB0EE409A5D
:104A4000608F00280ADDD4ED100A608F00EE100A96
:104A5000B8EE400A80EE801AB0EE419A94F8300029
:104A600010B984ED149A01E084ED159A94ED040ACE
:104A7000B0EE401A0A48DFED0B0A9FED0A0A01F07A
:104A8000ABF9002060879FED070A84ED100AE086ED
:104A90000120E08700BF00BFBDEC048B10BD00000B
:104AA0000000002000000000080100200AD7233C7D
:104AB000ACC527370AD7A33BB0EE401A90ED000AE9
:104AC000D0ED001A71EE611A00EEA10A80ED000A25
:104AD00090ED000A7047000038B50446002210210E
:104AE0004FF09040FDF7D8FE64200223224606498D
:104AF00000900648FEF7EAFE012210214FF0904098
:104B0000FDF7CAFE38BD0000AC930008A04F00209E
:104B100038B56846FFF7E0FF9DF8010084109DF866
:104B2000000044EA8014204638BD000000B593B070
:104B300000201090119012903C2101A8FBF7A0FBDF
:104B40004FF0A040394908604FF4403048600021E0
:104B500036488160C16001610121416104218161A8
:104B600000210177417701210162002180F82410A2
:104B700080F83810C16380F84010FDF7F9FB08B1E8
:104B8000FCF778FD0020109010A92848FDF7D0F917
:104B900008B1FCF76FFD2648019009200290012022
:104BA00003907F20049004200590002006900420AC
:104BB000099000208DF828008DF829008DF82A0032
:104BC00084200B904FF480700C9000208DF83400FE
:104BD00001A91648FCF7E8FD08B1FCF74BFD1548A4
:104BE000019040F20F10029001A91048FCF7DCFD83
:104BF00008B1FCF73FFD1048019040F215200290EB
:104C000001A90A48FCF7D0FD08B1FCF733FD0B48B9
:104C1000019040F21B30029001A90448FCF7C4FD4A
:104C200008B1FCF727FD13B000BD00000C4F0020B9
:104C300002003004040060080800900C1000C0104E
:104C400010B50548054908600846FDF70DFD08B197
:104C5000FCF710FD10BD0000000C0240784F002052
:104C600000B587B0142102A8FBF70AFB00BF2D484E
:104C7000C06C40F020002B49C8640846C06C00F0AE
:104C80002000019000BF00BF00BF0846C06C40F08C
:104C90000100C8640846C06C00F00100019000BF2C
:104CA00000BF00BF0846C06C40F00200C864084660
:104CB000C06C00F00200019000BF00BF00BF0846BA
:104CC000C06C40F00400C8640846C06C00F00400EA
:104CD000019000BF00BF012210214FF09040FDF76E
:104CE000DBFD00224FF400610F48FDF7D5FD1020D9
:104CF000029001200390002004900320059002A957
:104D00004FF09040FDF7E2FC4FF40060029001206C
:104D1000039000200490059002A90348FDF7D6FCFB
:104D200007B000BD001002400008004810B511484F
:104D3000114908604FF48270486000210E4881607C
:104D40004FF4E061C160002101610121416149022C
:104D500081611821C16100210162416281620721E4
:104D6000C162002101634163FEF7F6FC08B1FCF764
:104D700081FC10BD00300140A04F002000B59BB069
:104D800000201790189019901A9014901590169072
:104D90001C210DA8FBF774FA34216846FBF770FA62
:104DA0004148424908600020486020213F48816016
:104DB00041F26801C160002101614161802181618E
:104DC000FFF73CF808B1FCF755FC4FF48050179002
:104DD00017A93648FFF7CAF808B1FCF74BFC33486F
:104DE000FFF770FA08B1FCF745FC70201490002022
:104DF0001590169014A92D48FEF750FF08B1FCF746
:104E000039FC70200D9040F634000E9000200F9079
:104E1000109011901290139000220DA92348FFF7D3
:104E200099F908B1FCF726FC04220DA91F48FFF7E9
:104E300091F908B1FCF71EFC08220DA91B48FFF7E9
:104E400089F908B1FCF716FCFA200E900C220DA986
:104E50001648FFF77FF908B1FCF70CFC4FF400602F
:104E60000090401001908010029000200390049068
:104E70004FF40050059000200690079008904FF0E6
:104E80000070099000200A900B904FF480400C9025
:104E900069460648FEF79EFE08B1FCF7EBFB0348A7
:104EA000FFF7FEF81BB000BD002C014004500020AD
:104EB00010B51848184908604FF4E13048600021E7
:104EC00015488160C16001610C214161002181614F
:104ED000C1610162416200200F4988620846FFF704
:104EE00054FB08B1FCF7C6FB00210B48FFF71EFB83
:104EF00008B1FCF7BFFB00210748FFF7E8FA08B14B
:104F0000FCF7B8FB0448FFF7BBFA08B1FCF7B2FBAB
:104F100010BD0000003801405050002000BFFEE7E7
:104F200010B56248007901280CD16049C87060480A
:104F3000D0ED090AB0EE600A5E48DFED5F0A00F0CE
:104F4000B7FEB1E059480079022810D15749C8701E
:104F50005748D0ED070AB0EE601AD0ED090AB0EE5E
:104F6000600A5648DFED540A00F036FF9CE04F48D7
:104F70000079032817D102204C49C870504800F02E
:104F8000A7F84B48D0ED071AB0EE611A4C48D0EDA7
:104F90000B1AF0EE610AD0ED0A1AB0EE610A47482A
:104FA00000F01AFF80E04148007904281ED1022059
:104FB0003E49C8704248B0F8620010B9404800F05D
:104FC000C1F93F4800F084F83948D0ED071AB0EE37
:104FD000611A3B48D0ED0B1AF0EE610AD0ED0A1AC7
:104FE000B0EE610A354800F0F7FE5DE02F48007929
:104FF000052803D102202D49C87055E02B480079BF
:10500000062806D103202949C8702E4800F074FAFA
:105010004AE026480079072806D103202349C870B2
:105020002848FFF757FC3FE02048007908283BD18B
:1050300003201E49C8709FED200A1D4880ED070A15
:105040002148007AC8B92048407AB0B91E48007893
:1050500098B9174890ED072AF0EE421A1A4890EDD9
:10506000032AB0EE421A90ED052AF0EE420A90EDC6
:10507000042AB0EE420A00F0D1FC134800F018FDFB
:105080000F4800F025F80A48D0ED071AB0EE611A73
:105090000B48D0ED0B1AF0EE610AD0ED0A1AB0EE13
:1050A000610A064800F098FE10BD0000FC000020D8
:1050B000C400002078000020000000000000002054
:1050C0000801002074010020CC4C002000BFFEE746
:1050D00090ED022AD0ED062AF1EE622AB4EEE22A21
:1050E000F1EE10FA04D290ED062AB1EE422A0DE05C
:1050F00090ED022AD0ED062AB4EEE22AF1EE10FA83
:1051000002DD90ED062A01E090ED022A80ED022AF0
:1051100090ED032AD0ED062AF1EE622AB4EEE22ADF
:10512000F1EE10FA04D290ED062AB1EE422A0DE01B
:1051300090ED032AD0ED062AB4EEE22AF1EE10FA41
:1051400002DD90ED062A01E090ED032A80ED032AAE
:1051500090ED022AD0ED042A32EE620A90ED032A85
:10516000D0ED052A72EE620A90ED082AD0ED012AF0
:1051700002EE802A80ED082A90ED092AD0ED012A5E
:1051800002EEA02A80ED092A90ED082AD0ED002A2F
:10519000B0EE421A02EE801A90ED092AD0ED002AF4
:1051A000F0EE421A42EEA01A90ED0C2AB4EEC12A9B
:1051B000F1EE10FA04D8B5EEC00AF1EE10FA0DDCEB
:1051C00090ED0C2AB1EE422AB4EEC12AF1EE10FAAB
:1051D0000CDBB5EEC00AF1EE10FA07D290ED082A0A
:1051E000D0ED012A02EEC02A80ED082A90ED0C2AAB
:1051F000B4EEE12AF1EE10FA04D8F5EEC00AF1EEB1
:1052000010FA0DDC90ED0C2AB1EE422AB4EEE12A40
:10521000F1EE10FA0CDBF5EEC00AF1EE10FA07D24F
:1052200090ED092AD0ED012A02EEE02A80ED092A4C
:1052300090ED082AD0ED072AF1EE622AB4EEE22AB8
:10524000F1EE10FA04D290ED072AB1EE422A0DE0F9
:1052500090ED082AD0ED072AB4EEE22AF1EE10FA1A
:1052600002DD90ED072A01E090ED082A80ED082A82
:1052700090ED092AD0ED072AF1EE622AB4EEE22A77
:10528000F1EE10FA04D290ED072AB1EE422A0DE0B9
:1052900090ED092AD0ED072AB4EEE22AF1EE10FAD9
:1052A00002DD90ED072A01E090ED092A80ED092A40
:1052B00090ED082AD0ED002A02EE802AB0EE421AC4
:1052C00090ED092AD0ED002A02EEA02AF0EE421A53
:1052D00090ED0C2AB1EE422AB4EEC12AF1EE10FA9A
:1052E00004DD90ED0C2AB1EE422A0BE090ED0C2A81
:1052F000B4EEC12AF1EE10FA02D290ED0C2A01E0D0
:10530000B0EE412A80ED0A2A90ED0C2AB1EE422A35
:10531000B4EEE12AF1EE10FA04DD90ED0C2AB1EEC4
:10532000422A0BE090ED0C2AB4EEE12AF1EE10FADD
:1053300002D290ED0C2A01E0B0EE612A80ED0B2A3A
:105340007047000090ED111AD0ED131A31EE611A7A
:10535000B0EE410A90ED151AD0ED0E1A01EE801A4A
:1053600080ED151A90ED151AD0ED0D1A01EE801A88
:10537000F0EE410A90ED061AB4EEE01AF1EE10FAE2
:1053800004D8B5EEC00AF1EE10FA0DDC90ED061A65
:10539000B1EE411AB4EEE01AF1EE10FA0CDBB5EE04
:1053A000C00AF1EE10FA07D290ED151AD0ED0E1AE0
:1053B00001EEC01A80ED151A90ED151AD0ED161AEF
:1053C000F1EE611AB4EEE11AF1EE10FA04D290EDAA
:1053D000161AB1EE411A0DE090ED151AD0ED161A1D
:1053E000B4EEE11AF1EE10FA02DD90ED161A01E0CA
:1053F00090ED151A80ED151A90ED151AD0ED0D1AD5
:1054000001EE801AF0EE410A90ED061AB1EE411A53
:10541000B4EEE01AF1EE10FA04DD90ED061AB1EEEA
:10542000411A0BE090ED061AB4EEE01AF1EE10FA14
:1054300002D290ED061A01E0B0EE601AF0EE410AD9
:10544000C0ED020A9FED021A80ED031A70470000BA
:10545000000000007047000070B5164DED6805F0C3
:105460000304144DED68C5F303156B1C022C0CD01E
:10547000032C09D1104DB5FBF3F50E4EF668C6F3BB
:10548000062605FB06F10AE000BF0C4DB5FBF3F55F
:10549000084EF668C6F3062605FB06F100BF00BFFE
:1054A000044DED68C5F341656D1C6A00B1FBF2F077
:1054B00070BD00000010024000366E010024F400B0
:1054C0004FF4965141814FF47A618181002101812D
:1054D000074991ED070A80ED040A9FED060A80ED69
:1054E000080A01218173002180F824107047000010
:1054F000C40000200000000010B52DED028B044612
:10550000207806280BD2DFE800F0030B245570A3A7
:10551000A07B20B92046FFF7D3FF01202070C0E018
:1055200094ED040AB0EE401A94ED010AF0EE400A40
:105530005E489FED5F0A00F04FFC2089401C2081EF
:1055400020896189884203DB0020208102202070AD
:10555000A7E094ED040AB0EE401A94ED010AF0EED3
:10556000400A52489FED520A00F036FC514890ED37
:10557000058A94ED050A30EE080A84ED050A2089B3
:10558000401C20812089A189884212DBD4ED050AC4
:10559000208900EE100AB8EE400A80EE801A84EDF1
:1055A000061A002020819FED420A84ED050A03209F
:1055B000207076E094ED040AB0EE401A94ED010AF2
:1055C000B1EE400AF0EE400A38489FED390A00F08B
:1055D00003FC2089401C208120896189884203DBEB
:1055E00000202081042020705BE094ED040AB0EEDE
:1055F000401A94ED010AB1EE400AF0EE400A2B4841
:105600009FED2B0A00F0E8FB2A4890ED058A94ED07
:10561000050A30EE080A84ED050A2089401C208125
:105620002089A189884212DBD4ED050A208900EE89
:10563000100AB8EE400A80EE801A84ED071A0020A6
:1056400020819FED1B0A84ED050A0520207028E0CB
:1056500094ED040AB0EE401A1448DFED150A9FEDF0
:10566000140A00F0B9FB94ED060AD4ED070A30EEF7
:10567000600AD4ED010AB0EE001A60EE810A80EEF5
:10568000801A84ED081A9FED0A0A84ED060A9FED40
:10569000080A84ED070A012084F824000020207005
:1056A00000BF00BFBDEC028B10BD00000000002059
:1056B0000000000008010020F8B504460E4615461B
:1056C000334600224FF4C0512046009500F026F8E2
:1056D00028B1206E40F0200020660320F8BD33463C
:1056E000002280212046009500F094F828B1206E19
:1056F00040F0200020660320F0E7334600224FF4FC
:10570000C0612046009500F009F828B1206E40F0F5
:10571000200020660320E1E70020DFE72DE9FC5FA1
:1057200004460D4616461F46DDF8309000200090D6
:10573000FDF7B8F8A0EB0900A7EB0008FDF7B2F8F9
:105740008246206800F10C0B31480068C0EBC000B5
:1057500000EB8000000D00FB08F0019050E0B5F573
:10576000C06F05D126B99BF8000000909DF800009D
:10577000781C002844D0FDF795F8A0EB0A004045BE
:1057800002D2B8F1000F34D12068406820F0E00068
:10579000216848606068B0F5827F0DD1A068B0F5DF
:1057A000004F03D0A068B0F5806F05D12068006875
:1057B00020F0400021680860A06AB0F5005F0DD1BC
:1057C00000BF2068006820F400502168086020684D
:1057D000006840F400502168086000BF012084F890
:1057E0005D0000BF002084F85C0000BF0320BDE81E
:1057F000FC9F019808B94FF000080198401E0190E5
:10580000206880682840B042A9D10020EFE700005E
:10581000300000202DE9F84F04460D4690461E4604
:10582000DDF82890FDF73EF8A0EB0900371AFDF7E8
:1058300039F882462C480068C0F3CB30784300909A
:1058400045E0701C002842D0FDF72CF8A0EB0A00C0
:10585000B84200D2A7BB2068406820F0E000216871
:1058600048606068B0F5827F0DD1A068B0F5004F48
:1058700003D0A068B0F5806F05D12068006820F0E3
:10588000400021680860A06AB0F5005F0DD100BF3C
:105890002068006820F400502168086020680068D3
:1058A00040F400502168086000BF012084F85D00CA
:1058B00000BF002084F85C0000BF0320BDE8F88F23
:1058C000FFE7009800B900270098401E009020686C
:1058D00080682840A84201D1012000E00020404516
:1058E000AFD10020EAE70000300000207047000040
:1058F0009FED062AC2EE001A61EEA01AB0EE611A00
:10590000FCEEC11A11EE900A80B2704700409C462E
:105910009FED160A80ED040A9FED150A80ED050A39
:105920009FED120A80ED060A9FED100A80ED070A2E
:105930009FED100A80ED030A9FED0C0A80ED080A26
:105940009FED0A0A80ED090A0021017241720521CA
:10595000018500218185052141850021C1854FF404
:105960009661418600218186017070470000000029
:105970009A99993E0000C84210B52DED068B84B06F
:10598000002436E01F48406800EB041090ED030A45
:1059900010EE101A0846FAF730FE41EC180B1948C1
:1059A000406800EB041090ED020A10EE101A084651
:1059B000FAF723FE41EC190B1248406800EB041083
:1059C00090ED010A10EE101A0846FAF716FE41ECA7
:1059D0001A0B8DED028B8DED009B0A48406800EBA1
:1059E0000410018853EC1A2B07A001F005FC601C81
:1059F00084B20448808EA042C4DC04B0BDEC068BA7
:105A000010BD0000CC4C002025752C252E33662CB3
:105A1000252E36662C252E36660D0A0070B52DED26
:105A2000088B0446B0EE408AF0EE608AB0EE419AF0
:105A3000F0EE619A00206072207284ED048AC4ED59
:105A4000058A84ED039AC4ED079A94ED030ADFED0D
:105A5000160A80EE801ABCEEC10A10EE100A85B25A
:105A600000EE105AB8EE400ADFED100A80EE801A00
:105A700011EE106A3046FAF7C0FD41EC1B0BB0EE98
:105A80004B0AF0EE6B0A01F0FBFBB0EE40AAF0EE21
:105A900060AA51EC1A0BFAF797FD85B265850120D3
:105AA0002070BDEC088B70BD00409C460000964302
:105AB00010B50446207805280DD2DFE800F0030D6C
:105AC000417DE5009FED760A764880ED020A9FED64
:105AD000740A80ED030AE1E001202072208D01EEBE
